:020000040800F2
:10000000700A002089010008A5040008690400089E
:10001000A104000861020008052C0008000000008F
:10002000000000000000000000000000D52A0008C9
:100030006502000800000000E5290008F12A000818
:10004000A3010008A3010008A3010008A301000800
:10005000A3010008A3010008A3010008A3010008F0
:10006000A3010008A3010008A3010008A3010008E0
:10007000A3010008A3010008A3010008A3010008D0
:10008000A3010008A3010008A3010008A3010008C0
:10009000A3010008A3010008A3010008A3010008B0
:1000A000A3010008A3010008A3010008A3010008A0
:1000B000A3010008A3010008A3010008A301000890
:1000C000A3010008A3010008A3010008A301000880
:1000D000A3010008A3010008A3010008A301000870
:1000E000A3010008A3010008A301000800F002F822
:1000F00000F03AF80AA090E8000C82448344AAF188
:100100000107DA4501D100F02FF8AFF2090EBAE885
:100110000F0013F0010F18BFFB1A43F0010318473B
:10012000D0450000F0450000103A24BF78C878C1DF
:10013000FAD8520724BF30C830C144BF04680C60ED
:10014000704700000023002400250026103A28BF35
:1001500078C1FBD8520728BF30C148BF0B60704739
:100160001FB51FBD10B510BD00F044F81146FFF7D4
:10017000F7FF02F06BFD00F062F803B4FFF7F2FF47
:1001800003BC00F067F800000948804709480047B1
:10019000FEE7FEE7FEE7FEE7FEE7FEE7FEE7FEE737
:1001A000FEE7FEE704480549054A064B7047000094
:1001B000F52A0008ED00000870040020700A0020F5
:1001C000700600207006002070477047704710B519
:1001D00000F008F8006810BD10B5044600F002F801
:1001E000046010BD004870470800002000487047B8
:1001F000080000207546FFF7F9FFAE460500694686
:10020000534620F00700854618B020B5FFF7CAFF17
:10021000BDE820404FF000064FF000074FF0000807
:100220004FF0000BAC46ACE8C009ACE8C009ACE844
:10023000C009ACE8C00921F007018D46704710B530
:100240000446AFF300802046BDE81040FFF795BF9D
:100250007047000001491820ABBEFEE726000200EF
:10026000FEE70000704700002DE9F04F83B0012445
:100270003F201F213C221E23009402F06BFA3F20F6
:100280001F213C221E23009402F038F93F201F2139
:100290001E221423009401F08BFE0025002600BFCF
:1002A000B7B23F201F211E2214230097019400F0B3
:1002B00031F901F0F5FD3F201F211E221423009784
:1002C000019500F027F9B32F06F10106E8D30024C9
:1002D00001250026B7B23F201F211E2214230097BC
:1002E000019501F023FC01F0DBFD3F201F211E22C0
:1002F00014230097019401F019FCB32F06F10106B5
:10030000E8D34FF00A09002701200024E1B2B1F13F
:10031000140518BF0546002908BF012528064FF01F
:10032000010008BF4FF0FF30814404445FFA89FAAE
:100330005FFA84FB1FFA87F83F201F2152465B4675
:100340000126CDF80080019601F0F0FB01F0A8FD38
:100350003F201F2152465B460026CDF800800196C3
:1003600001F0E4FB0137B8F1B30F2846CED30124E6
:100370003F201F213C221E23009402F061FA3F20FF
:100380001F213C221E23009402F08AF93F201F21E6
:100390003C221E23009401F0A7FD03B0BDE8F08FBE
:1003A0002DE9F047CA7802F00F0CD30644BF8B78D2
:1003B0004CEA030C09880B0625D082465AF8144BE8
:1003C00000F1100E00254FF001094FF00F08002733
:1003D00006E000BF1E600137082F05F1040511D0AB
:1003E00009FA07F60E42F6D008FA05F324EA0303E9
:1003F0000CFA05F41C43282A5346EBD0482AEAD1CC
:100400007346E7E70460B1F5807F38BFBDE8F08749
:10041000436800F1100E00F1140900254FF4807AB2
:100420004FF00F08002705E034600137082F05F171
:10043000040512D00AFA07F404EA0106A642F4D130
:1004400008FA05F6B3430CFA05F63343282A4E465C
:10045000EAD0482AE9D17646E6E74360BDE8F0876E
:100460004161704701617047FEE7000010B582B03E
:100470001020012102F0B8FA42F2000041F200041B
:10048000C1F20300C4F20104019001A92046FFF764
:1004900087FF20464FF40051FFF7E4FF02B010BD84
:1004A000FEE7000070470000F0B581B040F268053B
:1004B000C2F2000500202946002200BF6FF00703AA
:1004C000CF180833B3F57E7F3872F9D10132082A8C
:1004D00001F10101F2D1B0200021002402F0BCFAA8
:1004E0000020002102F0B8FA1020002102F0B4FA36
:1004F000013D00BF08262F4617F8010F012102F029
:10050000ABFA013EF8D10134802C05F10805F1D198
:1005100001B0F0BD2DE9F04F8DB00546DDF858B0C3
:1005200003FB03F0984616460C46069003F025FAA6
:10053000814606FB06F08A46099003F01EFA07463C
:100540000A464FFA88F6331928460C942146144679
:100550000B952A463D46179FCDF800B0019700F055
:100560006DFB3046059603F008FA0023CBF6E073E6
:1005700000224FF0000B02F07FFF2A46234603F0D3
:100580009FFA4A46534603F03DFD0028CDE903A9F2
:10059000CDF8288063D1C8F1000003F0EEF9002304
:1005A000C3F6D0730022002702F066FF02460B4616
:1005B0002846214603F084FA4A46534602F05CFF7F
:1005C00002F028FF069ECDE90745059D82464FF0C3
:1005D000000B37E00221099AA1EB45010A9D01FBBE
:1005E0000200013D03F0A2FD0146504603F08CFCE1
:1005F0000A956CB2169D82460BF1010B0B980C9973
:100600004FFA8BF70095179D3A1863180195254608
:1006100000F014FB781C704303F0AFF980462046CD
:10062000894603F0AAF900230022CBF6E07302F01A
:1006300023FFDDE9073203F043FA42464B4603F05D
:10064000D3FC68B15046002103F006FD032101EB05
:100650004701002801FB06F0BCD00A9DC2E7059DBA
:100660000A984FFA80F9B9F1010F70DB4FFA8BF05D
:1006700003F083F90023C3F6E073002202F0FCFECE
:10068000DDE903320746884603F01AFA0A90681E2D
:10069000099D8A4600FB05F1484303F06EF90646C2
:1006A0000A980C4651463A46434603F009FA324648
:1006B000234602F0E1FE064606980F46684303F023
:1006C0005CF902460B463046394603F003FB02F064
:1006D000A1FE4FF003080646A8EB490009F1010707
:1006E00000FB05F44FEA450A29E000BF4FFA8BF002
:1006F0000221099A01EB4000A8EB49015143069AF7
:100700000BF1010B00FB021003F010FD0146304617
:1007100003F0FAFB06460B984FFA8BF10A180C9976
:10072000169DCB19023B0095179D1BB2A9F101093B
:10073000019500F083FA013F012F544407DD304654
:10074000002103F07BFC0028D0D02046DCE70DB070
:10075000BDE8F08F2DE9F04F84B0DDF834A08B4276
:10076000A2EB00042DD1002C234648BF6342002C8D
:1007700048BF10460722A2EBD1078A43012606FA9A
:1007800002F240F2680EFFB26FEA020C0025C2F2DC
:10079000000E04E001352CB2A342C0F29C813F2937
:1007A000F8D8461974B2002CF4D4F6B20EEBC60495
:1007B000E65DBAF1000F0CBF06EA0C061643E655DB
:1007C000E8E78242A3EB010831D140F26805B8F1B5
:1007D000000F4246C2F2000548BFC8F10002B8F15E
:1007E000000F48BF1946002347B24FF0070E4FF0E5
:1007F000010C05EBC00004E001331CB2A242C0F2C0
:100800006A81002FF8D4CC18E5B23F2DF4D8AEEBB6
:10081000D5052EEA04040CFA04F4EDB2BAF1000F87
:10082000465D0CBF26EA040434434455E4E7012C3A
:10083000A8BFB8F1000F0BDC012C0DDBB8F1FF3FB6
:100840000ADCC8F10008C3EB4106022517461FE089
:1008500001251E4617461BE0B4F1FF3FD8BFB8F193
:10086000FF3F0DDDB4F1FF3F4FF00005F1DCB8F1C3
:10087000010FEEDB6442C2EB400708251E4607E08D
:100880006442C8F1000804250E4607461946104682
:10089000444509DA721A0244CB191B1AD2B2141A4F
:1008A000DAB21035A2EB01083F2918D842B2002A6B
:1008B00015D40722A2EBD1038A43012707FA02F2DB
:1008C00040F26807C2F20007DBB207EBC007BAF1DB
:1008D000000FFE5C0CBF26EA02023243FA54012CE0
:1008E000C0F2F980A8EB04035B0005F01007039346
:1008F00005F00F030297671CC4EB48021FFA87F943
:100900004FF0000CA3F1010B0124CDF8048010E09E
:10091000EDB240F26806009FC2F2000606EBC70681
:10092000775D27EA0E0777550134A1451A4400F098
:10093000D28013B2D543ADB2002B039B48BF4FEA20
:100940004803BBF1070F0CEBD53CEDD8DFE80BF00B
:10095000052C040504040436E6E7029F002F55D158
:1009600005196FB2002FDFD401EB0C06F7B23F2F51
:10097000DAD84FF0070E5FFA85F8AEEBD7052EEA0E
:1009800006070126BAF1000F06FA07FE00F0948070
:10099000EFB240F26805C2F2000505EBC805EE5D56
:1009A000DDF804802EE000BF029F002F53D105190F
:1009B0006FB2002FB8D4A1EB0C0608E0029F002F05
:1009C00053D1051B6FB2002FAED401EB0C06F7B26A
:1009D0003F2FA9D8EDB24FF0070E0095AEEBD7052B
:1009E0002EEA06070126BAF1000F06FA07FE3FF4C9
:1009F0008FAFEFB240F26805009EC2F2000505EB32
:100A0000C605EE5D46EA0E06EE558DE701EB040ED7
:100A10005FFA8EF63F2E3FF687AF00EB0C077DB2F4
:100A2000002D3FF581AF07255FFA87F8A5EBD606C5
:100A300025EA0E070125BAF1000F05FA07FE3DD0A1
:100A400040F26805C2F20005F7B205EBC806F55D95
:100A5000DDF804802CE0A1EB040E5FFA8EF53F2D4B
:100A60003FF662AF00EB0C0608E001EB040E5FFA04
:100A70008EF53F2D3FF658AFA0EB0C0677B2002F56
:100A80003FF552AFF6B207270096A7EBD50627EA47
:100A90000E070125BAF1000F05FA07FE19D0F7B2CB
:100AA00040F26805009EC2F2000505EBC606F55D42
:100AB00045EA0E05F55537E7EDB200E0F5B240F234
:100AC0006806C2F2000606EBC806775DDDF8048012
:100AD00027E7F5B21DE704B0BDE8F08F2DE9F0433C
:100AE00081B01E4617460446B0EB520F88461AD214
:100AF000304602F059FF054620460E4602F054FFEC
:100B00002A46334602F0DCFF054638460E4602F020
:100B10004BFF02460B462846314602F069FD02F0C3
:100B2000FDFE06466700B8EB560F1CD2F8B202F085
:100B30003BFF4FEA4809074648460D4602F01DFFB5
:100B40003A462B4602F0BCFF054630460F4602F0FF
:100B50002BFF02460B462846394602F049FD02F0BB
:100B6000DDFE07464E46F8B204EB5000802816D34F
:100B7000F0B202F019FF05464FF48070A0EB440775
:100B800038460E4602F0F9FE2A46334602F098FF38
:100B90002A46334602F02CFD02F0C0FE0646F0B2B3
:100BA000DDF8209008EB5000402815D3F8B202F091
:100BB000FBFE05468020A0EB480630460F4602F0BB
:100BC000DCFE2A463B4602F07BFF2A463B4602F00B
:100BD0000FFD02F0A3FE0746F8B2F2B2A4EB5001FB
:100BE000A8EB520704EB500008EB5202CEB2C4B29D
:100BF000D5B23046294622462B46CDF80090FFF765
:100C0000A9FDFFB23046394622463B46CDF800905A
:100C1000FFF7A0FD3046294632463B46CDF800900E
:100C2000FFF798FD2046294622463B46CDF8009026
:100C3000FFF790FD01B0BDE8F08300002DE9F04F13
:100C400089B08B460191129905460790084698464F
:100C5000914602F0A9FE4AF6E3024DF64673CCF245
:100C60006232C3F6917302F02BFF02F0D3FB03F064
:100C70001FF904460F4602F07DFB02F0CBFB06464F
:100C80002046394602F028FB02F0C4FB8246A9EB5D
:100C9000050005B22846A8EB0B0703F047FA3146DA
:100CA000044603F0D7FA00902046514603F0D2FAEA
:100CB0003FB28146384603F039FA3146044603F024
:100CC000C9FA83462046514603F0C4FA804668427A
:100CD00003F02CFA3146044603F0BCFA0590204696
:100CE000514603F0B7FA0490784203F01FFA3146F8
:100CF000044603F0AFFA08902046514603F0AAFAE2
:100D0000CDE9029048465946CDF818B003F06EFB85
:100D10000546079803F022FA83462846594603F011
:100D2000F3F803F0E7F9064644B200984146054659
:100D3000CDF81C8003F0E8F80746019803F00EFA9E
:100D400082463846DDF84C80514603F0DDF803F06A
:100D5000D1F9002C18D43F2816D80722A2EBD001D5
:100D600022EA0000012202FA00F040F26802C2F218
:100D70000002C9B202EBC602B8F1000F535C0CBF0F
:100D800023EA0000184350540298089903F02EFB00
:100D9000594603F0B9F803F0ADF9064644B22846C7
:100DA000039D294603F0B0F8514603F0ADF803F077
:100DB000A1F9DDE90479002C18D43F2816D80722C0
:100DC000A2EBD00122EA0000012202FA00F040F278
:100DD0006802C2F20002C9B202EBC602B8F1000F0B
:100DE000535C0CBF23EA000018435054089938465E
:100DF00003F0FCFA594603F087F803F07BF9064646
:100E000044B24846294603F07FF8514603F07CF887
:100E100003F070F9002C18D43F2816D80722A2EB53
:100E2000D00122EA0000012202FA00F040F268023A
:100E3000C2F20002C9B202EBC602B8F1000F535C65
:100E40000CBF23EA0000184350540699384603F0BB
:100E5000CDFA594603F058F803F04CF907990446C7
:100E600046B2484603F050F8514603F04DF803F0FF
:100E700041F9002E1DD43F281BD80722A2EBD00138
:100E800022EA0000012202FA00F040F26802C2F2F7
:100E90000002B8F1000FC9B202EBC40205D0535CE6
:100EA0001843505409B0BDE8F08F535C23EA0000AA
:100EB000505409B0BDE8F08FF0B5DDE90554DDF818
:100EC0001CC015446AB22344002A5FFA85FE19D477
:100ED000DCB23F2C16D80726A6EBD40526EA03047D
:100EE000012606FA04F440F26806C2F20006EDB2EA
:100EF00006EBCE06BCF1000F775D0CBF27EA0404B9
:100F00003C437455002AC3EB410118D4CCB23F2CAA
:100F100015D80726A6EBD40526EA0104012606FA11
:100F200004F440F26806C2F20006EDB206EBCE070A
:100F30007E5DBCF1000F0CBFA64326437E55C2EB7D
:100F4000400042B2002AC0B219D4CDB23F2D16D80B
:100F5000072740F26806A7EBD50527EA010101271C
:100F6000C2F2000607FA01F1EFB206EBC006BCF1CF
:100F7000000FF55D0CBF25EA01012943F155002A58
:100F80001DD4D9B23F2988BFF0BD0727A7EBD102F6
:100F900027EA0301012303FA01F140F26803C2F2D8
:100FA0000003BCF1000FD2B203EBC00003D0835C9E
:100FB00019438154F0BD835C23EA01018154F0BDE3
:100FC0002DE9F04F8DB089461699834608469A461A
:100FD00016460B9202F0E8FC4AF6E3024DF6467321
:100FE000CCF26232C3F6917302F06AFD02F012FA9B
:100FF00002F05EFF07460C4602F0BCF902F00AFA66
:1010000005463846214602F067F902F003FA8046A9
:10101000A6EB0B0003F08AF82946044603F01AF900
:1010200003902046414603F015F90C90AAEB090005
:101030004F46CDF80490CDF81CA003F077F8294670
:10104000044603F007F906462046414603F002F93C
:101050000AEB0B0907EB0B0A0990A9EB0A0003F056
:1010600065F82946044603F0F5F804902046414609
:1010700003F0F0F808900B98ABEB000003F056F883
:101080002946074603F0E6F80A903846414603F041
:10109000E1F80B90AAEB090003F048F8294607464F
:1010A00003F0D8F806903846414603F0D3F805908F
:1010B000DDF804900798A9EB000003F037F8294603
:1010C000074603F0C7F802903846414603F0C2F8DD
:1010D00007460C983146079603F088F905465846AE
:1010E00003F03CF882462846514602F00DFF03F01B
:1010F00001F8054646B203980999834602F004FFB9
:101100000446484603F02AF880462046414602F04D
:10111000FBFE02F0EFFF002E18D43F2816D807225E
:10112000A2EBD00122EA0000012202FA00F040F214
:101130006802179BC2F20002C9B202EBC502002B83
:10114000535C0CBF23EA00001843505408985946DA
:1011500003F04CF9514602F0D7FE02F0CBFF049E9B
:101160000C99054644B2304602F0CEFE414602F0EC
:10117000CBFE02F0BFFF002C18D43F2816D8072260
:10118000A2EBD00122EA0000012202FA00F040F2B4
:101190006802179BC2F20002C9B202EBC502002B23
:1011A000535C0CBF23EA00001843505408980A9976
:1011B00003F01CF9514602F0A7FE02F09BFF0B99C9
:1011C000054644B2304602F09FFE414602F09CFEC6
:1011D00002F090FF029E002C18D43F2816D8072258
:1011E000A2EBD00122EA0000012202FA00F040F254
:1011F0006802179BC2F20002C9B202EBC502002BC3
:10120000535C0CBF23EA0000184350540C9831463D
:1012100003F0ECF8514602F077FE02F06BFF054652
:1012200044B25846394602F06FFE414602F06CFE69
:1012300002F060FF002C18D43F2816D80722A2EB3A
:10124000D00122EA0000012202FA00F040F2680216
:10125000179BC2F20002C9B202EBC502002B535C1D
:101260000CBF23EA0000184350540B98314603F09A
:10127000BDF8514602F048FE02F03CFFDDF8289030
:10128000054644B24846394602F03EFE414602F069
:101290003BFE02F02FFFDDE90576002C18D43F2835
:1012A00016D80722A2EBD00122EA0000012202FA9E
:1012B00000F040F26802179BC2F20002C9B202EBD2
:1012C000C502002B535C0CBF23EA000018435054A6
:1012D0003846494603F08AF8514602F015FE02F0FE
:1012E00009FF0B99044645B2304602F00DFE414617
:1012F00002F00AFE02F0FEFE002D18D43F2816D898
:101300000722A2EBD00122EA0000012202FA00F03B
:1013100040F26802179BC2F20002C9B202EBC4029B
:10132000002B535C0CBF23EA00001843505438468E
:10133000594603F05BF8514602F0E6FD02F0DAFE92
:101340000C99044645B2304602F0DEFD414602F0FB
:10135000DBFD02F0CFFE002D18D43F2816D807225F
:10136000A2EBD00122EA0000012202FA00F040F2D2
:101370006802179BC2F20002C9B202EBC402002B42
:10138000535C0CBF23EA0000184350540B98079994
:1013900003F02CF8514602F0B7FD02F0ABFE0999BC
:1013A000044645B2484602F0AFFD414602F0ACFDAE
:1013B00002F0A0FE002D1CD43F281AD80722A2EB71
:1013C000D00122EA00000122179B02FA00F040F24D
:1013D0006802C2F20002C9B202EBC4022BB1535C34
:1013E000184350540DB0BDE8F08F535C23EA000061
:1013F00050540DB0BDE8F08F2DE9F04F83B00DF1E2
:10140000300C9CE8301005EB030AA7184FFA87F858
:10141000B8F1000F5FFA87FE1DD45FFA8AF73F2FFD
:1014200019D8A9460725A5EBD70625EA0A070125FD
:10143000BCF1000F05FA07FCF7B240F26806C2F2F1
:10144000000606EBCE06F55D0CBF25EA0C0545EA65
:101450000C05F5554D46471A1F4427440E1A4FFAFE
:1014600087FB16442E44BBF1000F5FFA87F9CDF8D5
:1014700000E00193029627D4F7B23F2F24D82B46E1
:101480000725A5EBD70CB5430E9E012707FA05FEED
:1014900066B140F26806C2F200065FFA8CF506EB10
:1014A000C906775D47EA0E0777550BE040F26806FC
:1014B000C2F200065FFA8CF706EBC906F55D25EA75
:1014C0000E05F5550C9C1D46821A5718BBF1000FEE
:1014D000A7EB050E22D45FFA8EF53F2D1ED8072606
:1014E0000E9FA6EBD50526EA0E06012303FA06F3A6
:1014F00057B1EEB240F26805C2F2000505EBC9052E
:10150000AF5D1F43AF5509E040F26806C2F2000626
:10151000EFB206EBC906F55D9D43F555B8F1000F36
:10152000DDF83880CAEB410626D4F5B23F2D23D82A
:101530000727A7EBD505B7430124B8F1000F04FA3C
:1015400007FC0CD0EFB240F26805009BC2F2000528
:1015500005EBC305EC5D44EA0C04EC550BE0ECB282
:1015600040F26805009BC2F2000505EBC3052F5D44
:1015700027EA0C072F550C9C0244121B55B2002D74
:101580005FFA82FC18D4F2B23F2A15D80724A4EBE4
:10159000D202B443012606FA04F440F26806C2F20D
:1015A0000006D2B206EBCC06B8F1000FB75C0CBF58
:1015B00027EA04043C43B45408440C99019A1144AA
:1015C000401A41B20029C0B21AD45FFA8EF23F2A03
:1015D00016D80723A3EBD20223EA0E03012707FA4A
:1015E00003F340F26807C2F20007D2B207EBC0076C
:1015F000B8F1000FBE5C0CBF26EA03033343BB54B3
:10160000029F002919D4F9B23F2916D80723A3EB6A
:10161000D10223EA0701012303FA01F140F2680332
:10162000C2F20003D2B203EBC000B8F1000F835C3A
:101630000CBF23EA010119438154002D1FD45FFA26
:101640008AF03F281BD80722A2EBD00122EA0A0029
:10165000012202FA00F040F26802C2F20002B8F180
:10166000000FC9B202EBCC0205D0535C18435054B2
:1016700003B0BDE8F08F535C23EA0000505403B080
:10168000BDE8F08F2DE9F04F87B0DDE910689B468B
:1016900015468146A0EB52045B0800EB520201EBB9
:1016A0005B005D45B246069104940592039038BFF5
:1016B0006B08B6EB5B0F88BF9A46A1EB5B07B6EBF6
:1016C000550F88BF9A460AEB0403A2EB0A01DCB26D
:1016D000CEB2C1B2204632460B46CDF80080FFF7AD
:1016E00039F8F9B2204632460B46CDF80080FFF7B4
:1016F00031F803980AEB0701A0EB0A00C4B2049882
:10170000CEB2C0B2214602463346CDF80080FFF784
:1017100021F805982146C0B202463346CDF8008034
:10172000FFF718F8069FCAEB55010AEB0700CAEB52
:101730005B02D5B2CEB2C3B2484639464A46CDE97D
:101740000065CDF80880FFF757FEBAF1000F2BD0E7
:10175000CAF1010B012400BF4FFA8BF0002820468C
:10176000AAF1010158BF8A4658BF401A0BEB40004E
:101770000AEB070100F1010B04EB0900CDE900655C
:10178000CBB23946BC4637462E46119DC2B24846BA
:101790005FFA8AF8029535463E466746FFF72CFE0B
:1017A0000134E0B24045D7D907B0BDE8F08F000062
:1017B0002DE9F04F8BB0DDE9147B0990A0EB5209C5
:1017C0005E08A1EB530500EB520001EB530A9A426D
:1017D000CDE907120A9306950590CDF810A038BF01
:1017E0005608B7EB530FB84688BFB046B7EB520F59
:1017F0005FFA89F7C4B2EDB23846294622462B4635
:1018000088BFB046CDF800B0FEF7A4FF5FFA8AF6B5
:101810003846314622463346CDF800B0FEF79AFFEF
:10182000384629463A463346CDF800B0FEF792FFD7
:101830002046294622463346CDF800B0FEF78AFFFF
:1018400008EB0900BBFA8BF15FFA80FB4FEA5119F4
:10185000384629465A462B46CDF80090FEF77AFFC7
:1018600005982946A0EB08005FFA80FA2046524608
:101870002B46CDF80090FEF76DFF384631465A46AC
:101880003346CDF80090FEF765FF204631465246BC
:101890003346CDF80090FEF75DFF06982946404498
:1018A0005FFA80FB38463A465B46CDF80090FEF77B
:1018B00051FF04983146A0EB08005FFA80FA3846E1
:1018C0003A46079F5346CDF80090FEF743FF204667
:1018D000294622465B46CDF80090FEF73BFF2046A6
:1018E0003146099E22465346CDF80090FEF732FF5E
:1018F00008990A9A08EB0700C8EB5101C8EB52029D
:10190000159DD4B25FFA81FAC3B2304639463246E9
:10191000CDE900A40295FFF76FFDB8F1000F2AD0C2
:10192000C8F10109012500BF4FFA89F000282846B7
:10193000A8F1010158BF884658BF401A09EB400082
:1019400000F10109A81908EB0701CDE900A4CBB209
:10195000C2B230463946A44634463E46159F5FFA29
:1019600088FB0297374626466446FFF745FD01355A
:10197000E8B25845D8D90BB0BDE8F08F2DE9F04F4B
:101980008BB0CDE90710A0EB5209A1EB530600EB99
:101990005200DDE9148B5FFA89F7C4B2F5B20992FF
:1019A0000A93059001EB530A3846294622462B46F6
:1019B0000696CDF810A0CDF800B0FEF7CBFE5FFA8A
:1019C0008AF63846314622463346CDF800B0FEF757
:1019D000C1FE384629463A463346CDF800B0FEF7F8
:1019E000B9FE2046294622463346CDF800B0FEF720
:1019F000B1FE09EB0800BBFA8BF15FFA80FB4FEAFE
:101A00005119384629465A462B46CDF80090FEF724
:101A1000A1FE05982946A0EB08005FFA80FA20464F
:101A200052462B46CDF80090FEF794FE38463146DC
:101A30005A463346CDF80090FEF78CFE20463146DC
:101A400052463346CDF80090FEF784FE06982946AC
:101A500040445FFA80FB38463A465B46CDF800903A
:101A6000FEF778FE04983146A0EB08005FFA80FA92
:101A700038463A46079F5346CDF80090FEF76AFE77
:101A80002046294622465B46CDF80090FEF762FECE
:101A900020463146089E22465346CDF80090FEF778
:101AA00059FE09990A9A08EB0700C8EB5101C8EBE7
:101AB0005202159DD4B25FFA81FAC3B2304639465C
:101AC0003246CDE900A40295FFF796FCB8F1000F6D
:101AD00029D0C8F1010901254FFA89F000282846CC
:101AE000A8F1010158BF884658BF401A09EB4000D1
:101AF00000F10109A81908EB0701CDE900A4CBB258
:101B0000C2B230463946A44634463E46159F5FFA77
:101B100088FB0297374626466446FFF76DFC013581
:101B2000E8B25845D8D90BB0BDE8F08F2DE9F04F99
:101B30008DB00546DDF858B003FB03F09846164615
:101B40000C46069001F019FF814606FB06F08A4616
:101B5000099001F012FF07460A464FFA88F633193A
:101B600028460C94214614460B952A463D46179F5D
:101B7000CDF800B00197FFF723FA3046059601F043
:101B8000FCFE0023CBF6E07300224FF0000B01F0C7
:101B900073FC2A46234601F093FF4A46534602F05F
:101BA00031FA0028CDE903A9CDF8288063D1C8F126
:101BB000000001F0E2FE0023C3F6D07300220027EC
:101BC00001F05AFC02460B462846214601F078FFF8
:101BD0004A46534601F050FC01F01CFC069ECDE93C
:101BE0000745059D82464FF0000B37E00221099A18
:101BF000A1EB45010A9D01FB0200013D02F096FAAE
:101C00000146504602F080F90A956CB2169D824654
:101C10000BF1010B0B980C994FFA8BF70095179D60
:101C20003A18631801952546FFF7CAF9781C7043E6
:101C300001F0A3FE80462046894601F09EFE002367
:101C40000022CBF6E07301F017FCDDE9073201F06A
:101C500037FF42464B4602F0C7F968B150460021B3
:101C600002F0FAF9032101EB4701002801FB06F01D
:101C7000BCD00A9DC2E7059D0A984FFA80F9B9F1D8
:101C8000010F70DB4FFA8BF001F077FE0023C3F6F3
:101C9000E073002201F0F0FBDDE9033207468846DD
:101CA00001F00EFF0A90681E099D8A4600FB05F1AF
:101CB000484301F062FE06460A980C4651463A46F1
:101CC000434601F0FDFE3246234601F0D5FB0646B1
:101CD00006980F46684301F050FE02460B46304618
:101CE000394601F0F7FF01F095FB4FF00308064677
:101CF000A8EB490009F1010700FB05F44FEA450A8A
:101D000029E000BF4FFA8BF00221099A01EB400055
:101D1000A8EB49015143069A0BF1010B00FB02109D
:101D200002F004FA0146304602F0EEF806460B983F
:101D30004FFA8BF10A180C99169DCB19023B0095AE
:101D4000179D1BB2A9F101090195FFF739F9013F70
:101D5000012F544407DD3046002102F06FF90028BE
:101D6000D0D02046DCE70DB0BDE8F08FF0B581B0F3
:101D700000F046FEAE200021002400F06DFED520CC
:101D8000002100F069FE5020002100F065FEA8202F
:101D9000002100F061FE3F20002100F05DFED32015
:101DA000002100F059FE0020002100F055FE4020E7
:101DB000002100F051FE8D20002100F04DFE142086
:101DC000002100F049FE2020002100F045FE012006
:101DD000002100F041FEA120002100F03DFEC020C6
:101DE000002100F039FEDA20002100F035FE12203B
:101DF000002100F031FE8120002100F02DFE7F2027
:101E0000002100F029FED920002100F025FEF1205C
:101E1000002100F021FEDB20002100F01DFE30201B
:101E2000002100F019FEA420002100F015FEA620DC
:101E3000002100F011FEAF20002100F00DFE40F265
:101E40006805C2F20005A5F10800002180220346C2
:101E5000013A03F8084FFBD10131082900F10100D4
:101E6000F4D1B0200021002400F0F6FD0020002174
:101E700000F0F2FD1020002100F0EEFD013D00BF5A
:101E800008262F4617F8010F012100F0E5FD013E5D
:101E9000F8D10134802C05F10805F1D101B0F0BD75
:101EA00070B5B0200021002400F0D6FD00200021F4
:101EB00000F0D2FD1020002100F0CEFD40F26805B8
:101EC000C2F200054FF0FF36A8194078012100F05A
:101ED000C3FD0136072EF7D10134802C05F108052A
:101EE00008BF70BDEEE700002DE9F04F83B00C9EF7
:101EF0009A429A46994615468B4638BF9246BAF1A1
:101F0000000F074623D0B6FA86F040094FF00008CC
:101F1000029000BF5FFA88F4384659462A464B467D
:101F200000940196FFF72AFDFFF7BAFF0094029C88
:101F3000384659462A464B460194FFF71FFD444652
:101F400008F101085FFA88F05045E3D300E0FF2470
:101F5000B24620061DD0BAFA8AF04FEA501800BFE8
:101F6000E6B2384659462A464B460096CDF804A0BC
:101F7000FFF704FDFFF794FF384659462A464B46C3
:101F80000096CDF80480FFF7F9FC013C2006E7D16C
:101F90000024BAFA8AF04609E0B200903846594661
:101FA0002A464B460196FFF7E9FC03B0BDE8F08FE7
:101FB0002DE9F04FA1B08B4652EA030100F09A825E
:101FC00081461046002A18BF01202A9E119003FB6B
:101FD00003F01C461546179001F0CFFC05FB05F8F1
:101FE000CDE91310404601F0C8FC824660420F461E
:101FF00001F0C3FC0023C3F6D073002201F03CFAC9
:1020000002460B4650463946CDF868A0199700277E
:1020100001F056FDDDE9133201F02EFA01F0FAF974
:102020000890179800FB08F001F0A7FCCDE90E100E
:10203000A9EB0500079004EB0B00069005EB0900E7
:102040000590ABEB04000490B6FA86F04009CDE9A8
:102050001C084FEA480000221E90CDE90954CDF833
:1020600058B0CDF86C9000BF1292A91AE21B07EB92
:102070000B00D2B2C9B2CDE91F12CDE90012C3B232
:10208000484659464A4610930296FEF715FF7DB220
:10209000284601F072FC00230022CBF6E0734FF0DB
:1020A000000801F0E9F9DDE9193201F009FDDDE987
:1020B000133201F0A7FF0028BB461597189551D1A0
:1020C000DDF820A0DDF85C9000274FF0000835E037
:1020D0002A9C02F02BF80146504601F015FF1F9B89
:1020E00082461B98169908F101080093209B08EB83
:1020F00000070BEB01020193D3B2FAB20294FEF790
:10210000DBFE4FFA88F7781C00FB09F001F035FC84
:102110004FFA8BF5044628460E4601F02EFC0023AC
:102120000022CBF6E07301F0A7F9DDE9193201F0E6
:10213000C7FC2246334601F057FF98B150460021B4
:1021400001F08AFF032101EB4701002801FB09F0A0
:10215000BED102211D9AA1EB450101FB0200ABF1AA
:10216000010BB5E74FFA8BFADDF858B0DDF8A8900F
:102170001B9FBAF1010F69DB4FFA88F001F0FDFBFC
:1021800000230022C3F6E07301F076F9DDE9133293
:1021900004460E4601F094FCCDE90B101D99681E13
:1021A0004143484301F0E9FB05460D91DDE90B1081
:1021B0002246334601F084FC0D9B2A4601F05CF96F
:1021C000DDE90E3201F086FD01F024F90546032019
:1021D0001D99A0EB4A000AF1010401FB00F62DE075
:1021E0004FFA88F0022101EB400003211D9AA1EB78
:1021F0004A015143179A08F1010800FB021001F04F
:1022000095FF0146284601F07FFE1F9A04EB0B0163
:102210000092209A054608EB070002390192C2B2EB
:10222000CBB238465946AAF1010ACDF80890FEF71C
:1022300043FE1E98013C012C064407DD2846002180
:1022400001F0FCFE0028CBD03046D8E70798129B5F
:10225000159E0699059A1844891BD21AC5B25FFAD1
:1022600082FACCB22846214652462346CDF8009049
:10227000FEF770FA0498524630445FFA80F8284618
:1022800041464346CDF80090FEF764FA28462146C1
:102290002A464346CDF80090FEF75CFA50462146A8
:1022A00052464346CDF80090FEF754FAFFF7F8FD8A
:1022B0001C9E28462146524623460096FEF74AFABF
:1022C00028464146524643460096FEF743FA2846C2
:1022D00021462A4643460096FEF73CFA50462146E0
:1022E000524643460096FEF735FA1F98109B009021
:1022F00020985946019038463A460296FEF7DCFD92
:10230000189801F03AFB00230022CBF6E0734FF05F
:10231000000A01F0B1F8DDE9193201F0D1FBDDE985
:10232000133201F06FFE002854D1089DDDF854806F
:10233000179C00274FF0000A36E000BF1B9E01F0FB
:10234000F5FE0146284601F0DFFD1F9A0AF1010A59
:102350000092209A05460AEB060008EB0B011C9F31
:102360000192CBB2C2B2304659460297FEF7A4FDA5
:102370004FFA8AF7781C604301F0FFFA81464FFA62
:1023800088F00E46189001F0F8FA00230022CBF6F0
:10239000E07301F071F8DDE9193201F091FB4A4672
:1023A000334601F021FEB8B12846002101F054FE69
:1023B000032101EB4701002801FB04F0BED1189A6C
:1023C0000221A1EB42011D9AA8F1010801FB0200C4
:1023D000B4E700BFDDF854804FFA88F8DDF86C9060
:1023E000B8F1010F6CDB4FFA8AF001F0C6FA002356
:1023F0000022C3F6E07301F03FF8DDE91332044632
:102400000D4601F05DFB109018981D9F01380E4697
:1024100000FB07F1484301F0B0FA189010988B4682
:10242000314622462B4601F04BFB189A5B46DDF8FD
:1024300058B001F021F8DDE90E3201F04BFC00F05C
:10244000E9FF05460320A0EB480008F101044743DB
:102450002EE000BF4FFA8AF0022101EB4000032179
:102460001D9AA1EB48015143179A0AF1010A00FB9A
:10247000021001F05BFE0146284601F045FD1F9A5F
:1024800004EB0B010092209A05460AEB0900023981
:102490001C9E0192C2B2CBB248465946A8F101082F
:1024A0000296FEF709FD1E98013C012C074407DD4A
:1024B0002846002101F0C2FD0028CBD03846D8E7DD
:1024C0001198129A159F00F00100099D0244F9B27B
:1024D000D0B2A94238BF0137A8424FF0000038BF40
:1024E00001200A9C2A9E1190FFF4BEADF8B2A042D2
:1024F000FFF4BAAD21B0BDE8F08F00002DE9F04F38
:1025000089B08846DDF848A09A421946994638BFF6
:102510001146089288BF13464A080493CDE9062065
:1025200021D0BAFA8AF0DDE907744FEA501B002582
:10253000EEB23846414622464B460096CDF804A0FE
:10254000FFF7A0F8FFF7ACFC3846414622464B4661
:102550000096CDF804B0FFF795F8069A0135E8B279
:102560008242E5D800E0002504985146A0F1010A16
:102570005FFA8AF082424246CDF8149033D2B1FA23
:1025800081F040090390E8B20290DDF80880DDF8A0
:102590001CB00F4608985146484584BF50464946EE
:1025A000C6B2CCB258461146914632462346CDF8C3
:1025B00000800197FFF766F8FFF772FC3246039E32
:1025C000584649462346CDF800800196FFF75AF851
:1025D000AAF1010A06994A46DDF814905FFA8AF0DA
:1025E0008142D7D300E00F4604995FFA8AF088420F
:1025F0002FD2B7FA87F0079C40095FFA85F806905A
:1026000008985146484584BF504649465FFA80F9CC
:10261000CEB22046114693464A463346CDF8008056
:102620000197FFF72FF8FFF73BFC3346069E204645
:1026300059464A46DDF81490CDF800800196FFF720
:1026400021F80AF1010A04995FFA8AF05A46884291
:10265000D6D3280620D0BA46B7FA87F0DDE9074777
:1026600090464FEA501B00BFEEB2204641463A4624
:102670004B460096CDF804A0FFF704F8FFF710FCD6
:10268000204641463A464B460096CDF804B0FEF748
:10269000F9FF013D2806E7D109B0BDE8F08F000041
:1026A0002DE9F04F83B089460C9C9A4219469A4610
:1026B000154638BF11465FEA510B074625D0B4FADC
:1026C00084F040094FF00008029000BF5FFA88F6DE
:1026D000384649462A46534600960194FEF7D2FFF3
:1026E000FFF7DEFB0096029E384649462A465346CF
:1026F0000196FEF7C7FF464608F101085FFA88F029
:102700005845E3D3300603D120E0FF2630061DD024
:10271000B4FA84F0A3464FEA501800BFF4B238462A
:1027200049462A4653460094CDF804B0FEF7AAFF66
:10273000FFF7B6FB384649462A4653460094CDF883
:102740000480FEF79FFF013E3006E7D103B0BDE8ED
:10275000F08F00002DE9F04F85B098468B468146FA
:102760003F267E2A4FF07F0A1046049298BFB8F1A8
:102770003E0F3FD904995FFA8AF08842CDF8048071
:1027800003D10199F0B2884231D001980499002216
:1027900081424FF0000088BF4FF0FF3002900E984A
:1027A00098BF4FF0FF32B0FA80F04FEA5018039212
:1027B00002980E9F824403985FFA8AF50644F4B2A9
:1027C000484659462A4623460097FEF787F9FFF701
:1027D00067FB484659462A462346CDF80080FEF757
:1027E0007DF904988542E3D101988442E0D105B097
:1027F000BDE8F08F0E984FF07F0AB0FA80F04009E4
:102800003F260390AAF1010A013E5FFA8AF5F4B26D
:102810000E9F484659462A4623460097FEF75EF922
:10282000FFF73EFB039F484659462A46234600973A
:10283000FEF754F9049885429CD94445E2D899E7BB
:102840002DE9F04F89B08846DDF848A09A42194634
:10285000994638BF1146089288BF13464A08049328
:10286000CDE9062021D0BAFA8AF0DDE907744FEAF3
:10287000501B0025EEB23846414622464B46009694
:10288000CDF804A0FEF794FFFFF70AFB3846414657
:1028900022464B460096CDF804B0FEF789FF069A13
:1028A0000135E8B28242E5D800E00025049851469F
:1028B000A0F1010A5FFA8AF082424246CDF81490F4
:1028C00033D2B1FA81F040090390E8B20290DDF80A
:1028D0000880DDF81CB00F4608985146484584BF73
:1028E00050464946C6B2CCB2584611469146324689
:1028F0002346CDF800800197FEF75AFFFFF7D0FA84
:102900003246039E584649462346CDF8008001963C
:10291000FEF74EFFAAF1010A06994A46DDF8149027
:102920005FFA8AF08142D7D300E00F4604995FFA3C
:102930008AF088422FD2B7FA87F0079C40095FFAE5
:1029400085F8069008985146484584BF5046494648
:102950005FFA80F9CEB22046114693464A46334686
:10296000CDF800800197FEF723FFFFF799FA334671
:10297000069E204659464A46DDF81490CDF8008060
:102980000196FEF715FF0AF1010A04995FFA8AF031
:102990005A468842D6D3280620D0BA46B7FA87F0DE
:1029A000DDE9074790464FEA501B00BFEEB22046D4
:1029B00041463A464B460096CDF804A0FEF7F8FE95
:1029C000FFF76EFA204641463A464B460096CDF850
:1029D00004B0FEF7EDFE013D2806E7D109B0BDE8E1
:1029E000F08F000070470000002941F21801C4F286
:1029F00002010A680CBF22EA000010430860704719
:102A0000B0B582B004200121FFF7EEFFB02040F600
:102A10000004C1F20300C4F2010401AD019020469C
:102A20002946FDF7BDFC2046B021FDF71BFD08201F
:102A30000121FFF7D9FF0320C1F2030004F58064F0
:102A4000019020462946FDF7ABFC20460321FDF707
:102A500009FD02B0B0BD000070B540F60004C4F23C
:102A600001040546002904F580604FF0020102D000
:102A7000FDF7F8FC01E0FDF7F3FC20461021FDF71F
:102A8000EFFC00260DE000BF20468021FDF7E8FCAA
:102A900020462021FDF7E6FC6D00072E06F1010619
:102AA0000CD220462021FDF7DBFC68B2B0F1FF3FDD
:102AB000EADC20468021FDF7D5FCE9E7204610211D
:102AC000FDF7D0FC04F580600221BDE87040FDF701
:102AD000C9BC0000704700004EF21001CEF20001A8
:102AE0000A68042822F0040208BF04320A60704712
:102AF0007047000082B041F20400C4F2020050F8B6
:102B0000041C002241F0010140F8041C0168CFF6CA
:102B1000FF021140016050F8041C4FF6FF72CFF61F
:102B2000F662114040F8041C50F8041C21F4802186
:102B300040F8041C016821F4FE0101604FF41F01FC
:102B4000416000210191009150F8041C41F4803152
:102B500040F8041C50F8041C01F400310091019964
:102B600001310191009919B90199B1F5A06FF1D125
:102B700050F8041C890354BF0021012100910099E1
:102B8000012936D142F20001C4F202010A6842F082
:102B900010020A600A6822F007020A600A6842F01E
:102BA00002020A600168016001680160016841F485
:102BB00080610160016821F47C110160016841F4C9
:102BC000E811016050F8041C41F0807140F8041CC9
:102BD00050F8041C8901FBD5016821F00301016054
:102BE000016841F002010160016801F00C0108294F
:102BF000FAD14EF60850CEF200004FF000610160AD
:102C000002B07047FEE7000080B56FF00400FFF7E8
:102C100063FF40F20000C2F2000000684DF68361DD
:102C2000C4F21B31A0FB010140F26A42480DC2F21E
:102C300000021070C1F347504FF47A71484340F2DC
:102C40006841C2F20001088080BD0000FFF7DCFF90
:102C5000FDF70CFCFFF78AF8FDF726FC40F2B410F4
:102C6000C4F2222000210160FDF7FEFAFCE74900D2
:102C700050EAC12018BF04204A0D18BF40F00100DF
:102C800040F2FF72B2EB515F08BF40F00200012832
:102C900008BF0520704700002DE9F74F144694B097
:102CA0000021C4E902111599079121F00045C94995
:102CB0008D4206DC1599C4E9000117B00020BDE87B
:102CC000F08FC549DFF814A3A9423CDD0799C44E33
:102CD0000029C44FC44A1599534619DD00F0FAFF84
:102CE000554506D0C14AC24B00F0F4FFC4E90001CB
:102CF0000AE04FF0D352BE4B00F0ECFF32463B46A9
:102D000000F0E8FFC4E9000117B00120BDE8F08F32
:102D100000F0B2FB554506D0B44AB54B00F0ACFB11
:102D2000C4E900010AE04FF0D352B14B00F0A4FB1C
:102D300032463B4600F0A0FBC4E9000117B04FF05B
:102D4000FF30BDE8F08FAB49A942159978DB21F03F
:102D5000004183468846A84AA84B00F0B1FE0022F5
:102D6000A74B00F089FB00F0D9FD099000F005FEAB
:102D700006460F469C4A534600F0A2FE43465A467A
:102D800000F09CFF80468A46984A994B3046394667
:102D900000F096FE2A0D01250B924246534600F0A4
:102DA0008DFF032DC4E9000139D00B98C1F30A51FE
:102DB000401A05EB45111139814230DA9148C3467A
:102DC000784400EB0510CDF80CA00C90D0E900235E
:102DD0003046394600F074FE02460B4604910690D8
:102DE0005846039900F076FF80468A4602460B4615
:102DF0005846039900F06EFF049B069A00F06AFFA4
:102E000083460C9803913946D0E90223304600F0FE
:102E100057FE5A46039B00F05DFF6D1CBDE7079807
:102E20000028A2BF099817B0BDE8F08F616881F053
:102E300000416160099817B04042BDE8F08FFFE79C
:102E400084461598C1F31301C0F30A50A0F2F5307F
:102E50004FEA601800F01F06C6F120001390002012
:102E60000690079041F4801E05206D4676B1664AB3
:102E700008EB00017A4452F8213002EB8101B340A3
:102E80004A68139922FA01F1194305E05F4908EBFA
:102E90000002794451F82210A1FB0E27A1FB0C136C
:102EA0001A449A4234BF0123002303EB070A05EBBF
:102EB0008003D3E901B70F448F4234BF01210021C1
:102EC00093448B4411B1934502D903E0934501D259
:102ED000012100E00021C3E901B7514445F8201069
:102EE000011EA0F10100C1DC0298059F00F1005015
:102EF000800F12900298DDE90356800000F03DFD3E
:102F0000834628460D9100F04FFD6FF01D0201F041
:102F100014FBCDE90E01304600F046FD6FF03D0296
:102F200001F00BFB80468A46384600F03DFD6FF00D
:102F30005D0201F002FB074642465346119100F044
:102F40009BFADDE90E2300F097FA5A460D9B00F03C
:102F500093FA00250E465A4628460D9B00F0BAFE0D
:102F6000DDE90E2300F0B6FE4246534600F0B2FE05
:102F70003A46119B00F0A2FEDFF898A0244A53467F
:102F800000F09EFD07468846234A244B31462846DA
:102F900000F096FD3A46434600F06EFA0746884632
:102FA0004FF0A84253463146284600F089FD3A4684
:102FB000434600F061FA159A12F0004F04D0129ABD
:102FC00081F0004152421292C4E90001129817B0F8
:102FD000BDE8F08FFB21E93F7CD90240FB21F93F9E
:102FE0007370032E8A19A33B000040543163621AA8
:102FF00061B4D03DFB21394183C8C96D305FE43FE6
:103000000000E03F34180000B017000092170000E5
:10301000182D4454FB21F93D3326A611460B113CD3
:103020002DE9FF4D21F0004807460C46B8F1795FC5
:1030300008DA00F073FC002801BF0020324904B018
:10304000BDE8F08D3A4623461046194600F038FD9B
:10305000054602462D480E460B460621784400F0F0
:103060005DF82A46334600F02BFDDDE90223824657
:103070008B463846214600F023FD04460F46524653
:103080005B462846314600F01BFD22463B4600F0D9
:1030900021FE07468A464FF0FF322846314601F0AE
:1030A0004CFA1B4A90450ADA3A46534600F012FEA3
:1030B00004B00022BDE8F04D134B00F0FFBD154AEF
:1030C0004245A8BFA8F500154FF00004B8BF124D47
:1030D00022462B4600F0FEFD0646884622462B4639
:1030E0000020094900F0F6FD04460D463A465346D5
:1030F0003046414600F0EEFD04B022462B46BDE8C6
:10310000F04D00F0DBBD00000000F03F681500004E
:103110003333D33F0000E93F0000D23F2DE9F041B7
:103120004F1E00EBC7010446D1E9000115461E46BB
:1031300037F006020DD02A46334600F0C1FC7F1E50
:1031400004EBC703D3E9002300F096F937F0060239
:10315000F1D1022F25D0042F13D0062F18BFBDE8C0
:10316000F0812A46334600F0ABFCD4E90A2300F094
:1031700083F92A46334600F0A3FCD4E9082300F083
:103180007BF92A46334600F09BFCD4E9062300F085
:1031900073F92A46334600F093FCD4E9042300F087
:1031A0006BF92A46334600F08BFCD4E9022300F089
:1031B00063F92A46334600F083FCD4E90023BDE8D6
:1031C000F04100F059B900002DE9FF4D054621F00E
:1031D000004084B00C46B0F1795F0BDA2846FFF767
:1031E00046FD042808BF00F06FF8284608B02146C5
:1031F000BDE8F08D2A460B46104600F061FC0646FD
:103200000F462A46234600F05BFC804626488A4645
:1032100032463B4605217844FFF780FF83461098ED
:10322000029160B3214A224B4046514600F048FCCF
:10323000CDE900015A4640465146029B00F040FC51
:1032400082468846DDE906014FF0FF3201F075F94C
:103250005246434600F03EFD32463B4600F030FC0D
:10326000DDE9062300F036FDDDE9002300F032FD44
:1032700008B02A462346BDE8F04D00F01FBD0B46BE
:103280005A463046394600F01BFC084A084B00F00D
:10329000F3F84246534600F013FC08B02A46234692
:1032A000BDE8F04D00F0E8B8AE14000049555555A2
:1032B0005555C5BF012201F040B900221346104602
:1032C000114600F095B90000024A0020110701F0F4
:1032D00034B9000001FDFFFF00B5244B21F000428E
:1032E00087B09A42DCBF0022134629DD204B9A4268
:1032F00008D140B94FF00100FCF76EFFFFF7DDFF8A
:1033000007B000BD03DBFFF7D5FF07B000BD02AA81
:10331000FFF7C2FC10F0030104BF0DF1080C9CE89C
:103320000F000DD0012001290ED0022914D00DF17B
:10333000080C00909CE80F00FFF746FF07B000BDA7
:10334000FFF76EFE07B000BD0DF1080C00909CE881
:103350000F00FFF739FF05E00DF1080C9CE80F00A6
:10336000FFF75EFE07B081F0004100BDFB21E93FA1
:103370000000F07F00B5254B21F0004287B09A4253
:1033800003DC0022134600922BE0214B9A4208D125
:1033900040B94FF00100FCF71FFFFFF78EFF07B0A9
:1033A00000BD03DBFFF786FF07B000BD02AAFFF7F1
:1033B00073FC10F003014FF001000DD0012914D06F
:1033C00002291AD00DF1080C9CE80F00FFF728FE27
:1033D00007B081F0004100BD0DF1080C00909CE8A1
:1033E0000F00FFF7F1FE07B000BD0DF1080C9CE8DF
:1033F0000F00FFF715FE07B000BD0DF1080C00909F
:103400009CE80F00FFF7E0FEE2E70000FB21E93F48
:103410000000F07F21F0004201F00043A2F1605271
:10342000B2F5801F28BFD2F17F6C0BD95FEA001C78
:1034300043EAC20242EB507018BF704728BF20F029
:1034400001007047B2F5801FBCBF184670474FEAB5
:10345000410C1CF5001F02D2084600F0C2BF70B537
:1034600000F0D8FB00000089FFF7F6BF4FF00040E6
:10347000A0F580007047000010B591EA030F48BF27
:1034800083F0004300F12E84841A71EB030C05D203
:10349000121943EB0C03001B61EB0C014FEA1154B2
:1034A000A4EB135CDFF81CE11EEA430F18BF9EEA91
:1034B000445F00F0748021EA045123EA0E0343F4D0
:1034C0008013DCF1200E32D322FA0CFE10EB0E003A
:1034D00023FA0CFE41EB0E01CCF1200E03FA0EFE96
:1034E00010EB0E00CCF1200E51F10001B1F5801F60
:1034F00032D201EB045112FA0EF2BDE8104058BF6F
:103500007047401C38BF5FEA420218BF704700286E
:1035100014BF20F0010041F100014FEA410313F50F
:10352000001F38BF7047A1F1C04100F0C1BB012AA4
:1035300043EB0302ACF1200CDCF11F0E32BF4FF065
:10354000000E23FA0CF310EB030041EB0451B4EB33
:10355000115FD0D0A1EB045101F58011490801EBB6
:1035600004515FEA30000ED350F1000038BF12FA68
:103570000EFE08D1BDE81040C9E7401C38BF5FEA25
:103580004202CAD1C3E7BDE810404FEA410313F538
:10359000001F38BF7047A1F1C04100F089BB9EEA0F
:1035A000445F08D011EA5E0FBDE8104004BF01F08F
:1035B000004100207047BDE8104070B500F02AFBC4
:1035C00064FBBE3E0000E0FF02494FF0000000F047
:1035D00082BF00BF0000F87F491058BFC1F14041D1
:1035E0005B1058BFC3F140438B42EFF3008070473C
:1035F0002DE9C04130B4DFF8A4C23CEA111418BF71
:103600003CEA131400F0ED801CEA111481EA030572
:1036100044EAD57418BF1CEA131500F0C880A4EB67
:10362000050404F17F7404F500344FF0004545EAC9
:10363000C12145EAC32341EA505143EA52534FEABC
:10364000C0204FEAC222994208BF904200F09D80FC
:103650004FEA13650FF24416765D4FEA134506FBF9
:1036600005F7C7F1807706FB07F74FEAD737A7FBC7
:1036700003687642A7FB06CEC8F5803838BFA8F1AC
:10368000010807FB08E6A6FB028C4FF0000EE6FBE4
:1036900003CEDCF1000CCEF1004E38BFAEF1010ECE
:1036A000A6FB0C584FF00007E6FB0E87A1FB08C6EF
:1036B000A0FB07CE16EB0E064FF0000545F1000506
:1036C000E1FB076515F1E04E7EBFA4F580345FEAAB
:1036D00046066D4116F1800745F100054FEA1727B0
:1036E00047EA05674FEA15254FEA0666A6F1DE466A
:1036F000B6F1805F20D9384605EBC47124F0010C87
:1037000001EB0C11BCF1FE6F02D8F0BCBDE80081EA
:1037100024425CBF01F5801E9EEAC47F02D4F0BC47
:10372000BDE80081244200F13980A1F1C041F0BC24
:10373000BDE8004100F0BCBA4FEAD02040EA415059
:103740004FEAD1214FEAD22242EA43524FEAD32331
:10375000A7FB028607FB036605FB02661EEA0E0F47
:1037600058BFA6EB0056B6EB00564FEA520E4EEA93
:10377000C37E18EB0E0E56EB530EBCD518EB0208A9
:103780005E417F1C55F10005B5E74FF480154FF001
:1037900000074FF000064FF00008ACE701F1C04110
:1037A00001F000414FF00000F0BCBDE800810CEAE0
:1037B000131511EA0C1F00D00CE013EA0C1F00F0E7
:1037C00026804FF0000081EA030101F00041F0BCC7
:1037D000BDE80081F0BCBDE8004181EA030100F0D2
:1037E00067BAF0BCBDE8004170B500F013FA00BF45
:1037F000097EFC3E00F007B84FF0000081EA0301AB
:1038000001F00041704781EA030100F051BAF0BCB9
:10381000BDE8004122494FF000007047FFFDFBF971
:10382000F7F5F4F2F0EEEDEBE9E8E6E4E3E1E0DEF3
:10383000DDDBDAD8D7D5D4D3D1D0CFCDCCCBCAC865
:10384000C7C6C5C4C2C1C0BFBEBDBCBBBAB9B8B78C
:10385000B6B5B4B3B2B1B0AFAEADACABAAA9A8A87F
:10386000A7A6A5A4A3A3A2A1A09F9F9E9D9C9C9B4D
:103870009A999998979796959594939392919190F8
:103880008F8F8E8E8D8C8C8B8B8A89898888878789
:103890008685858484838382828181800000FF07FE
:1038A0000000F87F51EA030C17D41CF5801F58BFA5
:1038B000BCF5801F00F10680994218BF704708BF11
:1038C0009042704707D711F5801F58BF13F5801F2E
:1038D00019D499427047894270471CF5801F08D55A
:1038E000BCF5801FF7D58B4218BF704708BF8242D6
:1038F00070474FF4001C1CEB410F38BF1CEB430F0B
:1039000001D28B42704770B500F084F992244900CF
:103910004FF000514FF08053FFF75EBE4FEA410376
:103920004FEA5353A3F58063D3F11E03C8BFD3F10D
:10393000210C0CDD4FF0004242EAC12242EA505213
:1039400032FA03FC8CEAE17CACEBE1707047102B9F
:10395000C4BF0020704703F5787CBCF1FF3F04D062
:103960006FF0004282EA2100704770B500F052F912
:103970004992248000207047F2E710F0004248BFCF
:103980004042B0FA80F310FA03F10AD0C3F11D03EC
:1039900003F5806302EB03524FEA415002EBD12161
:1039A00070474FF000007047B0FA80F310FA03F14F
:1039B0000AD0C3F11D0303F580634FEA03524FEAB7
:1039C000415002EBD12170474FF0000070470000DA
:1039D00051EA030C17D41CF5801F58BFBCF5801F9B
:1039E00000F10680994218BF704708BF90427047A7
:1039F00007D711F5801F58BF13F5801F19D49942BE
:103A00007047894270471CF5801F08D5BCF5801FA0
:103A1000F7D58B4218BF704708BF824270474FF4FA
:103A2000001C1CEB410F38BF1CEB430F01D28B4233
:103A3000704770B500F0EEF8922449004FF08051C5
:103A40004FF00053FFF7C8BD51EA030C17D41CF523
:103A5000801F58BFBCF5801F00F10680994218BF37
:103A6000704708BF9042704707D711F5801F58BFB5
:103A700013F5801F19D499427047894270471CF58D
:103A8000801F08D5BCF5801FF7D58B4218BF704743
:103A900008BF824270474FF4001C1CEB410F38BF37
:103AA0001CEB430F01D28B42704770B500F0B2F8A7
:103AB000922449004FF000514FF08053FFF78CBD26
:103AC00070B5DFF848C11CEA111E1EBF1CEA1315B1
:103AD0009EEA0C0F95EA0C0F00F06F8081EA030458
:103AE0004EEAD47EAE4421EA4C1123EA4C1341F451
:103AF000801143F48013AEF17F7EA1FB024CA0FB4A
:103B00000365361955EB0C05A1FB034C4CF1000382
:103B1000A0FB021C16EB0C06654153F100030942A1
:103B200018BF46F0010613F4007F0BD14FEA0331B2
:103B30004FEA053041EA155140EA165034036FF060
:103B400003020AE04FEAC3214FEAC52041EA55517A
:103B500040EA5650F4026FF0020202EB2E4201EBF3
:103B6000025585EACE710AD05FEA440C18BF24F0F2
:103B7000004450F1000041F1000120EAD47040F20D
:103B8000FE7C624500D270BDA84214BF4FF0804455
:103B90004FF04044002E08BF0024BEF1806FA8BF44
:103BA000A1F1C041BDE8704080F2828001F1C041C6
:103BB00001F000414FF0000070470CEA13159EEA37
:103BC0000C0F18BF95EA0C0F06D081EA030E4FF0D8
:103BD00000000EF0004170BD00F01CF88900013EAD
:103BE00000F007B800F009B84FEA430C5FEA5C5CEC
:103BF00008D081EA030100F05BB84FEA410C5FEAAC
:103C00005C5CF6D102494FF0000070470000FF07EE
:103C10000000F87F0EF1020E2EF0030E5EF8046B2A
:103C2000364205D4012A43EB030515F5001F12D8CF
:103C3000012841EB010C1CF5001F0CD80ED14FEAF6
:103C4000D17C0CEB4C0C0CF1020C15F5001F08BFDD
:103C50004CEBD37C04E04FF0080C01E04FEAD37C3E
:103C60000CEB4C0526FA05F606F00706B6F1040C37
:103C700006D20EEB860CBDE870404CF0010C60479C
:103C8000DFE80CF0090B02024FF00041A1F5002122
:103C90004FF0000070BD19461046012851EB010499
:103CA00018BFD4F5001484BF002001F0004170BD9E
:103CB0000808A0F500114FEA3101704710B591EAEC
:103CC000030F81F000413FF5DFAB83F0004300F0CC
:103CD00009B8000010B591EA030F48BF83F0004314
:103CE0003FF5D2AB841A71EB030C07D28CF0004C79
:103CF000121943EB0C03001B61EB0C014FEA11544A
:103D0000A4EB135CDFF8A4E11EEA430F18BF9EEAA0
:103D1000445F00F0B48021EA045123EA6E0352426A
:103D2000C3EB6E0338BF5B1EDCF1200E25D322FAF5
:103D30000CFE10EB0E0043FA0CFE41EB0E01CCF131
:103D4000200E03FA0EFE10EB0E00CCF1200E51F106
:103D5000000129D401EB045112FA0EF2BDE8104023
:103D600058BF7047401C1CBFB2F1004F704700287D
:103D70000CBF491C20F00100704712EB020E43EB10
:103D8000030218BF4FF0010E4EEA4202ACF1200CC4
:103D9000DCF11E0E56D943FA0CFE10EB0E00CCF1EE
:103DA0001E0E51F1FF31D5D50EF1010E12FA0EFEA5
:103DB000404141EB010101EB445C5FEA5C5C10D9DE
:103DC00001EB045110EBDE7038BFBEF1004FBDE8CF
:103DD000104018BF704700280CBF491C20F001009C
:103DE000704734D24FEAD42C24F4006411F500114A
:103DF0001BD0B1FA81F20B3AA41AA41ED2F120030F
:103E0000914030FA03F31943904001EBCC7101EB80
:103E10000451002CBDE81040A8BF704701F1C0411B
:103E200001F000414FF000007047B0FA80F310FA43
:103E300003F102D1BDE810407047E41A173C480571
:103E4000C90AE2E701EB0451BDE810407047491090
:103E50004FEA300001EB0451BDE8104002E04FF0A2
:103E6000000170474A0008BF0042F8D0B2F5001FB9
:103E700028BF704701F000414FF0000070479EEAF4
:103E8000445F07D011EA5E0FBDE8104004BF002177
:103E900000207047BDE8104070B5FFF7BBFE00BFC3
:103EA00040DFF63E104683F0004170470000E0FF1F
:103EB00043004FEAD30C4FEA3C0C43401FBF40077E
:103EC0000CF1605113F0FE4F70471CF0006F03D1EE
:103ED0000CF00041002070470CF0004343EA5070A2
:103EE00040EACC0010B500F036FA00BF00000092A6
:103EF0004FEA0001FFF7DCBE4FF00041A1F50021C1
:103F00004FF000007047000090EA010F48BF81F0B9
:103F1000004100F17282421A3CBF801A89184FEAB0
:103F2000D052A2EBD1534FF07F4C1CEA410F18BF87
:103F30009CEA026F00F03B804FF0004C4CEA0020FE
:103F40004CEA012121FA03FC10EB0C0C1ED202F109
:103F5000FF325FEA1C2040EBC25038BF70471CF0B4
:103F60007F0F4FEA400C18BFBCF17F4F38BF70473E
:103F7000C3F12003994008BF20F00100BCF17F4F3E
:103F800038BF7047A0F1C04000F02BBA4FEA3C00A8
:103F9000000A40EBC25028BF1CF0FF0F4FEA400C54
:103FA000E6D018BFBCF17F4F38BF7047EAE79CEA04
:103FB000026F05D010EA5C0F08BF00F000407047A8
:103FC00010B500F0C8F900BF64FBBE3E10B5FFF7A6
:103FD00069FC0CBF0120002010BD10B5FFF762FC8A
:103FE00014BF0120002010BD10B5FFF7F1FC8CBFFD
:103FF0000120002010BD10B5FFF7EAFC2CBF012006
:10400000002010BD10B5FFF71FFD94BF0120002058
:1040100010BD10B5FFF718FD34BF0120002010BD02
:1040200010B500F033F80CBF0120002010BD10B512
:1040300000F02CF814BF0120002010BD10B500F0D6
:10404000A1F88CBF0120002010BD10B500F09AF837
:104050002CBF0120002010BD10B500F0C7F894BFA0
:104060000120002010BD10B500F0C0F834BF0120C1
:10407000002010BD401058BFC0F14040491058BF4B
:10408000C1F140418142EFF30080704750EA010CDA
:1040900000F113801CF5000F58BFBCF5000F01D4D0
:1040A0008842704707D710F5000F58BF11F5000F71
:1040B00015D488427047894270471CF5000F04D51B
:1040C000BCF5000FF7D5814270474FF0807C1CEBA8
:1040D000400F38BF1CEB410F01D28142704710B531
:1040E00000F039F9922449004FF000504FF0805110
:1040F000FFF7C0BF41000B0ED3F19E0208D950F468
:1041000000034FEA032323FA02F048BF40427047FE
:1041100010B500F020F900BF4992248000207047BC
:104120006FF0004282EA20007047000010F000416A
:1041300048BF4042B0FA80F310FA03F2C3F19D0386
:104140000BD051EAC35101EB1220530638BF704720
:1041500000F1010008BF20F001007047B0FA80F3C1
:1041600010FA03F2C3F19D030AD0D90501EB122026
:10417000530638BF704700F1010008BF20F001006E
:104180007047000050EA010C00F113801CF5000F8D
:1041900058BFBCF5000F01D48842704707D710F50F
:1041A000000F58BF11F5000F15D48842704789429F
:1041B00070471CF5000F04D5BCF5000FF7D5814200
:1041C00070474FF0807C1CEB400F38BF1CEB410F59
:1041D00001D28142704710B500F0BDF89224490029
:1041E0004FF080504FF00051FFF744BF50EA010CF0
:1041F00000F113801CF5000F58BFBCF5000F01D46F
:104200008842704707D710F5000F58BF11F5000F0F
:1042100015D488427047894270471CF5000F04D5B9
:10422000BCF5000FF7D5814270474FF0807C1CEB46
:10423000400F38BF1CEB410F01D28142704710B5CF
:1042400000F089F8922449004FF000504FF080515F
:10425000FFF710BF4FF47F0C1CEAD0121EBF1CEA00
:10426000D11392EA0C0F93EA0C0F00F0478090EA0A
:10427000010F48BF42F480724FF0004C4CEA00201E
:104280004CEA012102EB0302A0FB0113A2F500029C
:10429000002918BF43F001035B0028BF4FEA330336
:1042A00042EB22425FEA132C4CEBC2502EBFBCEB18
:1042B000436FB2F57C0F70474FEA036CBCF1004FBF
:1042C00008BF20F00100B2F57C0F38BF70470BD556
:1042D00082F0FF0212F5803FC8BF704700F1C04076
:1042E000D8BF00F00040704700F5000C5FEA4C0CAE
:1042F00048BF7047B0F1C04000F073B80CEAD1136A
:1043000090EA010F48BF42F48072624538BF6345AE
:1043100004D280EA010000F00040704710B500F0C0
:104320001AF800BF8900013E00F007B800F009B894
:104330005FEA410C5FEA1C6C08D080EA010000F0E3
:1043400050B85FEA400C5FEA1C6CF6D14FF00040B9
:10435000A0F5800070470EF1020E2EF0030E5EF8FD
:10436000044B244204D44FEA4102B2F17F4F11D8EA
:104370004FEA4003B3F17F4F0CD80ED14FEAD07C07
:104380000CEB4C0C0CF1020CB2F17F4F08BF4CEB64
:10439000D17C04E04FF0080C01E04FEAD17C0CEB3B
:1043A0004C0324FA03F404F00704B4F1040C06D21D
:1043B0000EEB840CBDE810404CF0010C6047DFE8C8
:1043C0000CF0070802024FF00040A0F5800010BD7D
:1043D0000846420018BFD2F1807288BF00F000404A
:1043E00010BDFF2141EAD050C005704790EA010F8F
:1043F00048BF81F000413FF58EAD421A04D882F0EB
:104400000042A0EB020011444FEAD052A2EBD1537C
:104410004FF07F4C1CEA410F18BF9CEA026F4AD054
:104420004FF0004C4CEA00204CEA012121FA03FC39
:10443000B0EB0C0C0FD412F0FE0F36D05FEA4C003C
:104440001DD5001240EBC25038BF70471CF03F0F23
:1044500018BF70470BE05FEA1C20A2F1010240EB9D
:10446000C25038BF70471CF07F0F18BF7047C3F1B0
:104470002003994014BF401E20F0010070474FEA0E
:104480001223800808BF7047B0FA80FCA2EB0C0230
:10449000CCF1280C60FA0CF093EA122F04BF00EB69
:1044A000C25070474FEAC3707047130A5FEADC10CE
:1044B00008BF7047F6E79CEA026F04D010EA5C0F71
:1044C00008BF0020704710B5FFF745FF40DFF63EFC
:1044D00081F0004070470CF00F03092B08BF082043
:1044E00000F059800A2B0BD0082B18BF704708BF6B
:1044F0001CF0400F0AD04FF000004FF00001704751
:104500001CF0400F18BF4FF0004070471CF0100F18
:1045100008D000F07F4220F0704342EAD3014FEA16
:104520004370704700F0604021F07F4242EA000291
:1045300001F07F4040EA727070474FF0FF0C4CF47E
:10454000E06C1CEA11531CBF9CEA030C9445C2BFEB
:10455000DA4201EB02517047002B0DD0BCF1000F85
:104560000FD001F00041002AA4BF41F0E04141F02A
:104570007F614FF00000704701F000414FF00000F4
:10458000704750EA01334FF09B0C18BF4CF0806C21
:104590007FF41AA870471CF4801F11D01CF4E02F80
:1045A00003D06FEACC31490070474FF04050EFF331
:1045B000008222F0704242EA000282F300887047D3
:1045C0004FF00000704700004C5555555555A53F1C
:1045D0007751C1166CC156BF9015CB19A001FA3E98
:1045E000AD529C804F7E92BEC4B1B4BD9EEE213EC2
:1045F000D43888BEE9FAA8BD00004054FB21F93F39
:104600003163621A61B4D03D0000601A61B4D03DDC
:104610007370032E8A19A33B0000002E8A19A33B56
:10462000C14920259A837B3900000000000000006A
:104630006E83F9A22915444ED15727FCC0DD34F50D
:10464000999562DB4190433CAB6351FE61C5BBDE93
:104650003A6E24B7E0D24D42EA2E49061C92D109A7
:104660001CEB1DFE3EA729B1F53582E88444BB2E24
:1046700026709CE9417E5FB439D69139F439538371
:104680008B5F849C3B28F9BDFF97F81F0F9805DED0
:104690008B112FEF1F6D0A5ACF7E366DB709CB27CE
:1046A000663F464F2DEA5F9EC7BA27757BF1E5EB63
:1046B000F739073DEA92528AB15FFB6B085D8D1FA7
:1046C0004630035600000000A6F810111111813F7A
:1046D000D561C119A0012ABF7DFEB157E31DC73EB8
:1046E000EB9C2B8AE6E55ABE7CD5CF5A3AD9E53DFC
:1046F0001047000800000020080000002801000802
:104700001847000808000020680A0000440100085B
:0847100000A24A0400000000B1
:04000005080000ED02
:00000001FF
