:020000040800F2
:10000000B8100020F51400080507000807070008CD
:100010000B0700080F070008130700080000000086
:1000200000000000000000000000000017070008AA
:1000300019070008000000001B0700081D07000842
:100040000F1500080F1500080F1500080F15000800
:100050000F1500080F1500080F1500080F150008F0
:100060000F1500080F1500080F1500080F150008E0
:100070000F1500080F1500080F1500080F150008D0
:100080000F1500080F1500080F1500080F150008C0
:100090000F1500080F1500080F1500080F150008B0
:1000A0000F1500080F1500080F1500080F150008A0
:1000B0000F1500080F1500080F1500080F15000890
:1000C0000F1500080F1500080F1500080F15000880
:1000D0000F150008691400080F1500080F15000817
:1000E0000F1500080F1500080F1500080F15000860
:1000F0000F1500080F1500080F1500080F15000850
:100100000F1500080F1500080F1500080F1500083F
:100110000F1500080F1500080F1500080F1500082F
:100120000F1500080F1500080F1500080F1500081F
:1001300000F002F800F05EF80AA090E8000C82449B
:100140008344AAF10107DA4501D100F053F8AFF278
:10015000090EBAE80F0013F0010F18BFFB1A43F0A5
:1001600001031847D09F0000F09F000010F8013BEA
:100170000A4413F0030408BF10F8014B1D1108BF17
:1001800010F8015B641E05D010F8016B641E01F8C5
:10019000016BF9D1002D15D010F8014B03F00C03C1
:1001A0000C2BA1EB04040ABF10F8013BA4EB831451
:1001B000A4EB032405F1010314F8016B5B1E01F8A5
:1001C000016BF9D5914238BF10F8013BD1D370478C
:1001D0000023002400250026103A28BF78C1FBD850
:1001E000520728BF30C148BF0B6070471FB51FBD05
:1001F00010B510BD02F01BF91146FFF7F7FF00F034
:100200005EFA02F039F903B4FFF7F2FF03BC01F024
:10021000D1F8000010B5F74801F014F8F54801F0E6
:100220003CF8F54801F00EF8F34801F036F8F348D1
:1002300001F008F8F14801F030F8F14801F002F857
:10024000EF4801F02AF8EF4800F0FCFFED4801F01C
:1002500024F8ED4800F0F6FFEB4801F01EF8EB48FB
:1002600000F0F0FFE94801F018F8E94800F0EAFF73
:10027000E74801F012F8E74800F0E4FFE54801F034
:100280000CF8E34800F0DEFFE14801F006F8DF4833
:1002900000F0D8FFDD4801F000F8DB4800F0D2FFA5
:1002A000D94800F0FAFFD74800F0CCFFD54800F05D
:1002B000F4FFD34800F0F1FFD14800F0C3FFCF486E
:1002C00000F0EBFFCD4800F0BDFFCB4800F0E5FFAC
:1002D000C94800F0B7FFC74800F0DFFFC54800F08D
:1002E000B1FF4FF47A7001F038F800F09AFD10BDBC
:1002F00010B5C94800F0A6FFC84800F0A3FFC848E1
:1003000000F0A0FFC74800F09DFFC74800F09AFF2B
:10031000C64800F097FFC64800F094FFC54800F0BB
:1003200091FFC54800F08EFFC44800F08BFFC44821
:1003300000F088FFC34800F085FFC34800F082FF4B
:10034000C24800F07FFFC24800F07CFFC14800F0C7
:1003500079FFC14800F076FFC04800F073FFC04845
:1003600000F070FFBF4800F06DFF10BD10B5002019
:10037000BD490870BD4800F065FF0020BC49086019
:1003800090E0A54800F089FFBA48007800F0E5FF4A
:10039000A24800F082FFB748007800F0DEFFA048D6
:1003A00000F07BFFB348007800F0D7FF9D4800F0D5
:1003B00074FFB048007800F0D0FF9B4800F06DFF5C
:1003C000AC48007800F0C9FF984800F066FFA948E3
:1003D000007800F0C2FF964800F05FFFA548007863
:1003E00000F0BBFF934800F058FFA248007800F0EF
:1003F000B4FF914800F051FF9E48007800F0ADFF37
:100400008E4800F04AFF9B48007800F0A6FF8C4819
:1004100000F043FF9748007800F09FFF894800F004
:100420003CFF9448007800F098FF874800F035FFC3
:100430009048007800F091FF844800F02EFF8D482E
:10044000007800F08AFF824800F027FF8948007892
:1004500000F083FF7F4800F020FF8648007800F01E
:100460007CFF7D4800F019FF8248007800F075FF9E
:100470007A4800F012FF7F48007800F06EFF78485D
:1004800000F00BFF7B48007800F067FF754800F034
:1004900004FF7848007800F060FF75480068401C51
:1004A00073490860724800680A28FFF46AAF10BDFB
:1004B00010B500206C4908706D4908607CE0564812
:1004C00000F0C0FE544800F0E8FE544800F0BAFEC8
:1004D000524800F0E2FE524800F0B4FE504800F0EE
:1004E000DCFE504800F0AEFE4E4800F0D6FE4E480E
:1004F00000F0A8FE4C4800F0D0FE4C4800F0A2FEF0
:100500004A4800F0CAFE4A4800F09CFE484800F005
:10051000C4FE484800F096FE464800F0BEFE46483D
:1005200000F090FE444800F0B8FE444800F08AFE17
:10053000424800F0B2FE424800F084FE404800F01D
:10054000ACFE404800F07EFE3E4800F0A6FE3E486D
:1005500000F078FE3C4800F0A0FE3C4800F072FE3F
:100560003A4800F09AFE3A4800F06CFE384800F035
:1005700094FE384800F066FE364800F08EFE36489D
:1005800000F060FE344800F088FE344800F05AFE67
:10059000324800F082FE324800F054FE304800F04D
:1005A0007CFE304800F04EFE2E4800F076FE3048CB
:1005B0000068401C2E4908602D4800686428FFF43C
:1005C0007EAF00F02EFC00F04BFC10BD10B50220F9
:1005D0002549087000202649086006E0FFF788FEDC
:1005E00023480068401C22490860214800680A2806
:1005F000F4D310BDBC2C0008BC300008BC3400088B
:10060000BC380008BC3C0008BC400008BC440008E2
:10061000BC480008BC4C0008BC500008C25400088C
:10062000C8580008CE5C0008D4600008DA640008EE
:10063000E0680008E66C0008EC700008F27400083E
:10064000F8780008FE7C0008048100080A8500088C
:1006500010890008168D00081C91000822950008DA
:10066000289900082E9D00080008002000000020A6
:10067000040800200808002010B500201E4908705A
:100680001E4800F0DFFD01201B49087000201C49B6
:10069000086006E0FFF72CFE19480068401C184966
:1006A0000860174800680A28F4D300F0BAFB10BDB0
:1006B00010B5002010490870FFF71AFE10BD00F0B9
:1006C0000FFE00F036FD00F061F900F0AAFB00F02B
:1006D000C7FBFFF79FFD094800F0B4FD074800F095
:1006E000DCFD07E0FFF772FFFFF7C6FFFFF73EFEF6
:1006F000FFF7DEFEF6E70000000800200000002003
:1007000004080020704700BFFEE700BFFEE700BFFF
:10071000FEE700BFFEE77047704770477047000074
:100720000CB50020019000906C48006840F48030C7
:100730006A49086000BF6948006800F40030009012
:100740000198401C0190009818B90198B0F5A06F6D
:10075000F1D16248006800F4003010B1012000902F
:1007600001E0002000900098012843D15C48006817
:1007700040F010005A4908600846006820F0030065
:1007800008600846006840F002000860534840686E
:10079000524948600846406848600846406840F44E
:1007A000806048600846406820F47C104860084635
:1007B000406840F4041048600846006840F08070CB
:1007C000086000BF4548006800F000700028F9D0BC
:1007D0004248406820F003004049486008464068AD
:1007E00040F00200486000BF3C48406800F00C0048
:1007F0000828F9D10CBD10B5FFF792FF10BD10B558
:100800003648006840F001003449086008464068F6
:100810003449084031494860084600683249084078
:100820002E4908600846006820F4802008600846C9
:10083000406820F4FE0048604FF41F008860FFF716
:10084000DAFF4FF000602949086010BD10B50021A3
:1008500000200022214B5B6803F00C0121B1042928
:1008600006D0082928D107E0214B224C236027E03D
:100870001F4B204C236023E0184B5B6803F470107F
:10088000164B5B6803F48032022303EB904022B9DD
:10089000194B4343174C23600DE0104B5B6803F486
:1008A000003323B1144B4343124C236003E0104B3D
:1008B0004343104C236003E00D4B0E4C236000BFFC
:1008C00000BF064B5B68C3F303130C4CE15C094BA0
:1008D0001B68CB40074C236010BD00000010024095
:1008E000002002400000FFF8FFFFF6FE08ED00E0E8
:1008F00000127A000C08002000093D0010080020BA
:1009000010B5044600BF0221F94801F054FD00284B
:10091000F9D02146F64801F0FBFC10BD10B50446A5
:100920000120F44908600020F349C1F890012046F5
:10093000FFF7E6FF0120EF490839086010BD10B548
:1009400004460020EB490860EB49C1F890012046BD
:10095000FFF7D6FF0120E7490839086010BD70B5E0
:1009600005460C461CB10120E249086002E0002067
:10097000E04908600020DF49083908602846FFF791
:10098000BFFF0120DC49C1F8900170BD00B587B000
:100990000121082001F0EAF80120ADF81800032039
:1009A0008DF81A0010208DF81B0006A9D34800F01E
:1009B00021FE0121042001F0D9F80121080301F0F2
:1009C000D5F8A020ADF8180018208DF81B000320E2
:1009D0008DF81A0006A9CA4800F00CFE5020ADF8A8
:1009E000180010208DF81B0003208DF81A0006A9AE
:1009F000C34800F0FFFD0120BE49083908604002ED
:100A0000ADF80E000020ADF810000120ADF80C008C
:100A10000220ADF80A000020ADF808004FF4404075
:100A2000ADF804000020ADF812004FF48270ADF86C
:100A300006000720ADF8140001A9AD4801F092FBB3
:100A40000121AB4801F033FC0120AE49C1F880011F
:100A5000642000F082FC0020AB490860C82000F050
:100A60007CFC0120A749C1F880010021AE20FFF7DE
:100A700076FF00210846FFF772FF00211020FFF7E4
:100A80006EFF00214020FFF76AFF0021B020FFF732
:100A900066FF00218120FFF762FF0021FF20FFF7A2
:100AA0005EFF0021A120FFF75AFF0021A620FFF7DB
:100AB00056FF0021A820FFF752FF00213F20FFF73B
:100AC0004EFF0021C820FFF74AFF0021D320FFF787
:100AD00046FF00210846FFF742FF0021D520FFF71F
:100AE0003EFF00218020FFF73AFF0021D820FFF7CA
:100AF00036FF00210520FFF732FF0021D920FFF744
:100B00002EFF0021F120FFF72AFF0021DA20FFF756
:100B100026FF00211220FFF722FF0021DB20FFF734
:100B20001EFF00213020FFF71AFF00218D20FFF764
:100B300016FF00211420FFF712FF0021AF20FFF75E
:100B40000EFF07B000BD10B54FF4C0616B4800F058
:100B5000FEFD4FF41061694800F0F9FD4FF410619B
:100B6000664800F0F6FD6948007828B94FF4C06186
:100B7000624800F0EEFD0DE064480078012804D1E1
:100B800041025E4800F0E5FD04E04FF480615B48FF
:100B900000F0DFFD10BD10B54FF4C061574800F004
:100BA000D6FD4FF41061554800F0D3FD4FF41061AD
:100BB000524800F0CCFD10BD10B54FF4C0614F4855
:100BC00000F0C5FD5148007828B94FF4C0614B488A
:100BD00000F0BFFD0DE04D480078012804D141022E
:100BE000464800F0B6FD04E04FF48061434800F051
:100BF000B0FD10BD2DE9F04106463546434800786A
:100C000028B94FF4C0613D4800F0A3FD0DE03F4816
:100C10000078012804D14102384800F09AFD04E030
:100C20004FF48061354800F094FD00242FE02F46FA
:100C300007F08007802F05D14FF410612F4800F096
:100C400086FD04E04FF410612C4800F082FD680638
:100C5000050E4FF4C061294800F079FD2B4800785B
:100C600028B94FF4C061254800F073FD0DE0274816
:100C70000078012804D14102204800F06AFD04E018
:100C80004FF480611D4800F064FD601CC4B2082C64
:100C9000CDDBBDE8F08110B50446FFF754FF7820A6
:100CA000FFF7A8FFFFF788FF0020FFF7A3FFFFF77C
:100CB00083FF2046FFF79EFFFFF77EFFFFF76BFFE6
:100CC00010BD10B50446FFF73EFF7820FFF792FFF6
:100CD000FFF772FF4020FFF78DFFFFF76DFF204603
:100CE000FFF788FFFFF768FFFFF755FF10BD000013
:100CF000003001409801214200002142000C0140D7
:100D0000000801400080214280812142000800202B
:100D100070B504460D461DB1E0B2FFF7D2FF02E008
:100D2000E0B2FFF7B8FF70BD70B50646002418E0CA
:100D300004F1B0000021FFF7EBFF00210846FFF7A8
:100D4000E7FF00211020FFF7E3FF002505E0012168
:100D50003046FFF7DDFF681CC5B2802DF7DB601C55
:100D6000C4B2082CE4DB70BD06E041F6650100E08A
:100D7000491E0029FCD1401E0028F6D170470146CB
:100D800005E0002001E0421CD0B27B28FBDB0A1EFC
:100D9000A1F10101F5D1704770B504460D4605F18A
:100DA000B0000021FFF7B4FF102141EA1410002128
:100DB000FFF7AEFF04F00F000021FFF7A9FF70BDA1
:100DC00070B504460D4605F1B001C8B20021FFF729
:100DD000C6FD102141EA14100021FFF7C0FD04F008
:100DE0000F000021FFF7BBFD70BD10B500218D2065
:100DF000FFF78EFF00211420FFF78AFF0021AF20AC
:100E0000FFF786FF10BD10B500218D20FFF780FF92
:100E100000211020FFF77CFF0021AE20FFF778FFB4
:100E200010BD70B5002418E004F1B0000021FFF7F8
:100E30006FFF00210846FFF76BFF00211020FFF72E
:100E400067FF002505E001210020FFF761FF681C16
:100E5000C5B2802DF7DB601CC4B2082CE4DB70BD8A
:100E600070B5002419E004F1B001C8B20021FFF709
:100E700076FD00210846FFF772FD00211020FFF7E4
:100E80006EFD002505E001210020FFF768FD681CCC
:100E9000C5B2802DF7DB601CC4B2082CE3DB70BD4B
:100EA00070B5002418E004F1B0000021FFF730FF16
:100EB00000210846FFF72CFF00211020FFF728FF34
:100EC000002505E001210846FFF722FF681CC5B296
:100ED000802DF7DB601CC4B2082CE4DB70BD2DE96B
:100EE000F04707460E469046994600250024A8F193
:100EF0002000C5B27F2F02DD0027B01CC6B2B9F1B9
:100F0000100F24D131463846FFF746FF002408E091
:100F100004EB0511EE4A505C0121FFF7F9FE601C5D
:100F2000C4B2082CF4DB701CC1B23846FFF734FFA2
:100F3000002409E004EB05110831E54A505C012169
:100F4000FFF7E6FE601CC4B2082CF3DB12E031466A
:100F50003846FFF721FF00240AE005EB4501DD4A92
:100F600002EB4101085D0121FFF7D2FE601CC4B213
:100F7000062CF2DBBDE8F08710B50246012000E048
:100F800050430B1EA1F10104E1B2F9D110BD2DE9CE
:100F9000FF5F074691461E460E9D4FF0000A002453
:100FA00035E0301B401EC1B20A20FFF7E5FFB9FB58
:100FB000F0F00A21B0FBF1F201FB1208BAF1000FC8
:100FC00014D1701EA04211DDB8F1000F0CD1AB4658
:100FD00005EBDB71491001FB0471C8B22B462022DE
:100FE0000199FFF77CFF10E04FF0010AAB4605EBDB
:100FF000DB71491001FB0471C8B208F13001CAB2BB
:101000002B460199FFF76BFF00BF601CC4B2B442CE
:10101000C7DBBDE8FF9F2DE9F04104460F461546AA
:10102000984600260FE0AA5D434639462046FFF762
:1010300056FF04F10800C4B2782C02DD0024B81C6D
:10104000C7B2701CC6B2A85D0028ECD1BDE8F08123
:101050002DE9F04180460E461546002731464046B0
:10106000FFF79AFE00240DE06900C1EBC1019A4A26
:1010700002EB8101085D0121FFF74AFE781CC7B22F
:10108000601CC4B2102CEFDB701CC1B24046FFF7ED
:1010900083FE00240EE06900491CC1EBC1018E4AA9
:1010A00002EB8101085D0121FFF732FE781CC7B217
:1010B000601CC4B2102CEEDBBDE8F0812DE9F05FBE
:1010C00006460F4690461C46DDF828A04FF0000B60
:1010D000E11704EB5171C910A4EBC10131B92046ED
:1010E000E11704EB5171C1F3C70506E02046E11793
:1010F00004EB5171C910491CCDB23D4615E029469B
:101100003046FFF749FEB1460BE059460BF1010BA3
:101110001AF801000121FFF7FBFD09F1010000F0C1
:10112000FF09C145F1DB681CC5B2A542E7DBBDE89C
:10113000F09F08B50121082000F018FD4FF4706001
:10114000ADF8000010208DF8030003208DF8020098
:101150006946624800F04EFA4FF470615F4800F053
:10116000F6FA4FF4487000F0F8F80021AE20FFF7CF
:10117000CFFD00210846FFF7CBFD00211020FFF72F
:10118000C7FD00214020FFF7C3FD0021B020FFF77D
:10119000BFFD00218120FFF7BBFD0021FF20FFF7ED
:1011A000B7FD0021A120FFF7B3FD0021A620FFF726
:1011B000AFFD0021A820FFF7ABFD00213F20FFF786
:1011C000A7FD0021C820FFF7A3FD0021D320FFF7D2
:1011D0009FFD00210846FFF79BFD0021D520FFF76A
:1011E00097FD00218020FFF793FD0021D820FFF715
:1011F0008FFD00210520FFF78BFD0021D920FFF78F
:1012000087FD0021F120FFF783FD0021DA20FFF7A1
:101210007FFD00211220FFF77BFD0021DB20FFF77F
:1012200077FD00213020FFF773FD00218D20FFF7AF
:101230006FFD00211420FFF76BFD0021AF20FFF7A9
:1012400067FD08BD2DE9F04105460027002420E098
:1012500021460020FFF7A0FDFFF775FC7820FFF77F
:10126000C9FCFFF7A9FC4020FFF7C4FCFFF7A4FC72
:10127000002608E039467F1C685CFFF7BBFCFFF7DF
:101280009BFC701CC6B2802EF4DBFFF784FC601C54
:10129000C4B2082CDCDBBDE8F0812DE9F041054645
:1012A0000027002410E021460020FFF789FD0026DA
:1012B00006E039467F1C685CFFF730FB701CC6B245
:1012C000802EF6DB601CC4B2082CECDBBDE8F0819C
:1012D000BC2600089424000820080020000C0140CF
:1012E00010B56FF0040000F0F8FE2E4800682E499B
:1012F000B0FBF1F02D4908700846007800EB400182
:10130000C1EBC0104FF6FF7101EAC0002849088008
:1013100010BD0146254A12784A434FF0E0235A6136
:1013200000229A611A46126942F001021A6100BF56
:101330004FF0E022106900F001021AB100F480328F
:10134000002AF5D04FF0E022126922F001024FF09E
:10135000E0231A6100229A6170470146144A1288FC
:101360004A434FF0E0235A6100229A611A461269FB
:1013700042F001021A6100BF4FF0E022106900F054
:1013800001021AB100F48032002AF5D04FF0E022B9
:10139000126922F001024FF0E0231A6100229A61E3
:1013A000704700000C08002000127A00700900202D
:1013B0007209002000BF704700BF4A4A128802F03D
:1013C0004002002AF9D0C2B2464B1B1D1A8070475A
:1013D00010B586B00446012144F2040000F0C6FBBB
:1013E0004FF40070ADF8140003208DF8160018209B
:1013F0008DF8170005A93C4800F0FCF84FF4806018
:10140000ADF8140004208DF8170005A9364800F047
:10141000F1F825208DF8000003208DF801008DF8EB
:10142000020001208DF80300684600F00CFE0194D4
:101430000020ADF80800ADF80A00ADF80C00ADF8DA
:1014400010000C20ADF80E0001A9264800F035FC74
:10145000012240F22551234800F0C7FC0121214818
:1014600000F0B7FC06B010BD10B540F225511D4884
:1014700000F0A0FD10B31B4800F01CFDC4B21B48D7
:10148000008800F40040C8B91848008800F4804083
:1014900060B10A2C03D000201449088020E01348D2
:1014A000008840F400401149088019E00D2C06D155
:1014B0000E48008840F480400C49088010E00B483A
:1014C0000088C0F30D000A490C5408480088401CED
:1014D0000649088008460088C72801DD00200880EA
:1014E00010BD0000003801400008014078090020CC
:1014F000900900200948804709480047FEE7FEE7B9
:10150000FEE7FEE7FEE7FEE7FEE7FEE7FEE7FEE7B3
:1015100004480549054A064B70470000FF070008CC
:1015200031010008B80A0020B8100020B80C0020D3
:10153000B80C002010B50446CC48844208D10121E3
:10154000042000F02DFB0021042000F029FB46E0E0
:10155000C748844208D10121082000F021FB002166
:10156000082000F01DFB3AE0C248844208D1012166
:10157000102000F015FB0021102000F011FB2EE0E0
:10158000BD48844208D10121202000F009FB002140
:10159000202000F005FB22E0B848844208D1012158
:1015A000402000F0FDFA0021402000F0F9FA16E09A
:1015B000B348844208D10121802000F0F1FA0021D3
:1015C000802000F0EDFA0AE0AE48844207D1012104
:1015D000801500F0E5FA0021A01500F0E1FA10BD39
:1015E00010B50121084600F0DBFA0021012000F0CF
:1015F000D7FA10BD2DE9F041024600250026002053
:1016000000230024002791F803C00CF00F0591F887
:1016100003C00CF0100CBCF1000F03D091F802C015
:101620004CEA050591F800C0BCF1000F31D01468F8
:1016300000202BE04FF0010C0CFA00F3B1F800C0D1
:101640000CEA03069E4220D183004FF00F0C0CFAE7
:1016500003F7BC4305FA03FC4CEA040491F803C009
:10166000BCF1280F06D14FF0010C0CFA00FCC2F8B7
:1016700014C00AE091F803C0BCF1480F05D14FF047
:10168000010C0CFA00FCC2F810C0401C0828D1D391
:101690001460B1F800C0BCF1FF0F34DD54680020C5
:1016A0002EE000F1080C4FF0010808FA0CF3B1F835
:1016B00000C00CEA03069E4221D183004FF00F0CBC
:1016C0000CFA03F7BC4305FA03FC4CEA040491F856
:1016D00003C0BCF1280F05D100F1080C08FA0CF882
:1016E000C2F8148091F803C0BCF1480F07D100F193
:1016F000080C4FF0010808FA0CF8C2F81080401CE2
:101700000828CED35460BDE8F0814FF6FF71018008
:10171000022181700421C170704702460020936845
:101720000B400BB1012000E00020704701468868A3
:1017300080B2704702460020D3680B400BB10120F5
:1017400000E0002070470146C86880B27047016120
:101750007047416170470AB1016100E04161704723
:10176000C16070474FF480320A43826181618261B7
:1017700082698269704702460020434B18684FF621
:101780008073184040EA021008433F4B18607047CE
:101790003E49C8617047F0B50A4600230024002185
:1017A000002500F00046B6F1004F02D1364EF16937
:1017B00001E0354E7168C0F3034583B200F4401672
:1017C000B6F5401F08D121F070612F4E766826F0E3
:1017D00070662D4F7E6012E000F48016B6F5801F13
:1017E00006D1032606FA05F4A14341F0706106E034
:1017F000460D360103FA06F6B14341F0706122B19D
:10180000460D360103FA06F6314300F00046B6F104
:10181000004F02D11C4EF16101E01B4E7160F0BD22
:1018200030B500228B071C0F0F2303FA04F2164B6E
:1018300008338C1053F824309343134C08348D1024
:1018400044F8253023468C1053F824308C07240F9D
:1018500000FA04F423430C4C08348D1044F825306E
:1018600030BD0A49DC3108607047000000080140C3
:10187000000C01400010014000140140001801401C
:10188000001C0140002001400000014000002042F7
:10189000DF48006840F00100DD4908600846406804
:1018A000DC490840DA49486008460068DA490840DF
:1018B000D74908600846006820F480200860084680
:1018C000406820F4FE0048604FF41F0088607047B5
:1018D000CF49096821F48031CD4A11601146096869
:1018E00021F480211160B0F5803F03D0B0F5802F46
:1018F0000ED106E0C649096841F48031C44A11603E
:1019000007E0C349096841F4A021C14A116000E021
:1019100000BF00BF704710B5014600220023002021
:101920004A11012A02D1BA4C236806E0022A02D1E8
:10193000B74C236A01E0B64C636A01F01F02012430
:1019400094401C400CB1012000E0002010BD38B5CF
:10195000002000900024002500BF3120FFF7DBFFAE
:1019600005460098401C00900098B0F5A06F01D08B
:10197000002DF2D03120FFF7CEFF08B1012400E0A6
:101980000024204638BD01460020A14A106820F0FE
:10199000F80040EAC10010607047A0490860704735
:1019A000024600209A4B586820F47C1042EA01035A
:1019B0001843974B5860704798490866704701462E
:1019C0000020934A506820F003000843506070479D
:1019D0008F48406800F00C007047014600208C4A98
:1019E000506820F0F0000843506070470146002026
:1019F000874A506820F4E060084350607047014611
:101A00000020834A506820F4605040EAC1005060D2
:101A1000704729B17E4A527A02437D4B5A7204E0E4
:101A20007B4A527A82437A4B5A7270477B49D8314B
:101A30000860704701460020754A506820F4404015
:101A40000843506070470021714A20321170704A7B
:101A500082F82010012802D004280AD104E00121D4
:101A60006B4A2032117005E00521694A203211705D
:101A700000E000BF00BF70476949086070476449D3
:101A8000096A0143624A1162704765494439086036
:101A9000704730B500210022002400235C4D6D68A2
:101AA00005F00C0121B1042905D0082923D105E056
:101AB0005C4D056022E05B4D05601FE0544D6D6894
:101AC00005F47012524D6D6805F48034022505EB63
:101AD00092421CB9544D554305600BE04C4D6D6866
:101AE00005F400351DB1504D5543056002E04D4DE4
:101AF0005543056002E04B4D056000BF00BF444DFB
:101B00006D6805F0F0010909484D6B5C0568DD4022
:101B100045603F4D6D6805F4E061090A434D6B5C1B
:101B20004568DD4085603A4D6D6805F46051C90A2D
:101B30003E4D6B5C4568DD40C560354D6D6805F414
:101B40004041890B3A4D6B5CC568B5FBF3F5056107
:101B500030BD29B12E4A526902432D4B5A6104E02F
:101B60002B4A526982432A4B5A61704729B1284A4D
:101B700092690243264B9A6104E0254A92698243A6
:101B8000234B9A61704729B1214AD2690243204B05
:101B9000DA6104E01E4AD26982431D4BDA61704764
:101BA00029B11B4AD2680243194BDA6004E0184A93
:101BB000D2688243164BDA60704729B1144A126921
:101BC0000243134B1A6104E0114A12698243104B1D
:101BD0001A61704712494039086070470F49C8645C
:101BE00070470B49C87170470948406A40F08070DF
:101BF00007494862704701460020054A92680A403A
:101C00000AB1012000E00020704701498872704746
:101C1000001002400000FFF8FFFFF6FE0000424205
:101C20008004424200127A0000093D007A09002037
:101C30008A09002010B50446FB48844209D10121DD
:101C40008803FFF7ADFF00214FF48040FFF7A8FFA6
:101C500032E0F648844209D101214804FFF7ADFF84
:101C600000214FF40030FFF7A8FF25E0F048844240
:101C700009D101218804FFF7A0FF00214FF4802043
:101C8000FFF79BFF18E0EB48844209D10121C8040B
:101C9000FFF793FF00214FF40020FFF78EFF0BE0CA
:101CA000E548844208D101210805FFF786FF00219D
:101CB0004FF48010FFF781FF10BD2DE9F04786B08B
:101CC00005460E460024A24600BFA1460027B08963
:101CD00000B100BF2F462C8A4CF6FF700440F088FC
:101CE00004432C82AC894EF6F3100440B08831894D
:101CF0000843718908430443AC81AC8A4FF6FF4026
:101D00000440B0890443AC8201A8FFF7C2FEC64874
:101D1000874202D1DDF810A001E0DDF80CA0A8890F
:101D200000F4004040B10AEBCA0000EB0A10316831
:101D30004900B0FBF1F807E00AEBCA0000EB0A101B
:101D400031688900B0FBF1F86420B8FBF0F00401C1
:101D50002009642101FB1089A88900F4004040B1EA
:101D6000322000EBC900B0FBF1F000F007000443A3
:101D700008E0322000EB09106421B0FBF1F000F024
:101D80000F0004432C8106B0BDE8F0874FF41651D4
:101D9000016000218180C18001810C2141810021ED
:101DA0008181704710B502460020108A4FF2FF0370
:101DB00018400B884C8823438C882343CC882343CA
:101DC0001843108210BD0021018041808180C180B4
:101DD000704721B1828942F40052828104E08289F5
:101DE0004DF6FF731A4082817047F0B50346002418
:101DF00000260025002040F66A17B94200D100BF36
:101E00001846C1F3421401F01F06012707FA06F530
:101E1000012C01D10C3004E0022C01D1103000E083
:101E200014301AB107682F43076002E00768AF4318
:101E30000760F0BD1AB1838A0B43838202E0838A74
:101E40008B4383827047028A4FF6F0731A400282F6
:101E5000028A0A430282704782894FF2FF731A4056
:101E6000828182890A438281704721B1828942F04E
:101E70000202828104E082894FF6FD731A4082815A
:101E80007047028A4FF6DF731A400282028A0A43C1
:101E90000282704721B1028A42F48042028204E049
:101EA000028A4BF6FF731A4002827047C1F30802A0
:101EB0008280704701468888C0F308007047818996
:101EC00041F0010181817047028BD2B20283028B03
:101ED00042EA012202837047028B02F47F420283AE
:101EE000028B0A430283704721B1828A42F02002AA
:101EF000828204E0828A4FF6DF731A408282704742
:101F000021B1828A42F01002828204E0828A4FF676
:101F1000EF731A408282704721B1828A42F0080230
:101F2000828204E0828A4FF6F7731A4082827047F9
:101F300021B1828942F40042828103E08289C2F3A6
:101F40000E028281704721B1828A42F4006282824D
:101F500004E0828A4FF2FF731A4082827047828ABD
:101F60004FF6FB731A408282828A0A43828270474C
:101F700021B1828A42F00202828204E0828A4FF614
:101F8000FD731A408282704702460020B1F5007F3F
:101F900000D100BF13880B400BB1012000E00020EE
:101FA000704701F40072B2F5007F00D100BFCA4350
:101FB0000280704770B502460024002300250020EF
:101FC00040F66A16B14200D100BFC1F3421501F0DC
:101FD0001F03012606FA03F3012D02D1968933402F
:101FE00006E0022D02D1168A334001E0968A334082
:101FF0000C12012606FA04F41688344013B10CB111
:10200000012000E0002070BD10B50022002340F642
:102010006A14A14200D100BF0A1201249440A3B265
:10202000DC43048010BD0000003801400044004043
:1020300000480040004C004000500040314901433E
:10204000314A1160704770B5002100230F22C47817
:1020500004B32D4C246804F4E064C4F5E064210A60
:10206000C1F10403CA40447804FA03F184781440AF
:1020700021430901254C0678A155047804F01F0579
:102080000124AC4005786D11AD0005F1E025C5F8DF
:10209000004109E0047804F01F050124AC401C4D08
:1020A0000678761145F8264070BD1A4A0A40024368
:1020B000154B1B1F1A60704739B1134A121D126865
:1020C0000243114B1B1D1A6006E00F4A121D1268D5
:1020D00082430D4B1B1D1A607047042808D14FF036
:1020E000E021096941F004014FF0E022116107E0AD
:1020F0004FF0E021096921F004014FF0E022116165
:10210000704700000000FA050CED00E000E400E07C
:1021100080E100E080FFFF1F10B50446BE48844206
:1021200008D101218014FFF73BFD0021A014FFF727
:1021300037FD16E0B948844208D101210014FFF7A9
:102140003CFD00212014FFF738FD0AE0B44884422A
:1021500007D10121C013FFF730FD0021E013FFF785
:102160002CFD10BD10B50022028802F441520B88EC
:102170004C8823438C882343CC8823430C892343F6
:102180004C8923438C892343CC8923431A430280FF
:10219000838B4FF2FF74234083830B8A038210BD2D
:1021A0002DE9F04F85B005460C464FF00009022797
:1021B0004FF000084FF0010B0026B246A88B4FF2FB
:1021C00040010840A88302202884B5F81C90A0682C
:1021D000022801D100BF38E0A08810B94FF0010BF0
:1021E00001E04FF0020B8D48854200D100E000BFB6
:1021F0006846FFF74EFCDDF800A0E088B0F5007FF0
:102200000AD14FEA1A2000EB80004000A168B0FB21
:10221000F1F0401D86B20BE04FEA4B10BAFBF0F034
:1022200000EB80004000A168B0FBF1F0401D86B2D9
:102230000A20B6FBF0F606F00108A6EB0800C0F392
:102240004F074FF6FF7000EA0828022F01DBFF2F2F
:1022500002DD02274FF00008E08840EA080038431A
:102260002884A088A18908436188084321880843FD
:1022700040F4006040EA0909A5F81C9005B0BDE8EB
:10228000F08F0021018041808180C18001814181E6
:102290008181C18107210182704700210180418035
:1022A0008180C1800221816000218181704721B13C
:1022B000028842F04002028004E002884FF6BF73B9
:1022C0001A400280704721B1828B42F4806282837F
:1022D00004E0828B4FF6FF331A408283704730B59B
:1022E000002400230C110125A540ABB21AB185884A
:1022F0001D43858002E085889D43858030BD1AB1ED
:1023000083880B43838002E083888B4383807047FC
:10231000818170470146888970474FF6FF6291427C
:1023200004D0028842F48072028004E002884FF6F2
:10233000FF631A400280704721B1828842F0040294
:10234000828004E082884FF6FB731A4082807047D7
:1023500002884FF2FF731A40028002880A4302800B
:102360007047018841F480510180704721B1028893
:1023700042F40052028004E002884DF6FF731A40D6
:102380000280704702460020012901D0108B00E036
:10239000908A70470146088A7047B1F5804F04D192
:1023A000028842F48042028004E002884BF6FF7308
:1023B0001A40028070470246002013890B400BB17F
:1023C000012000E000207047CA4302817047F0B549
:1023D0000246002000240023002501F00F070126FB
:1023E000BE40B4B20B1101269E40B3B2968806EAF5
:1023F00003051689264016B10DB1012000E000202A
:10240000F0BD10B5002201F00F040123A3409AB2E1
:10241000D343038110BD000000300140003800406C
:10242000003C0040704770477047704770477546E2
:1024300000F02CF8AE4605006946534620F0070030
:10244000854618B020B5FFF763F8BDE820404FF08F
:1024500000064FF000074FF000084FF0000B21F08E
:102460000701AC46ACE8C009ACE8C009ACE8C0095B
:10247000ACE8C0098D46704710B50446AFF3008044
:102480002046BDE81040FDF7BEBE00000048704782
:10249000580A00200000000000000000002F00008B
:1024A00000000700070000147F147F1400242A7F17
:1024B0002A12006264081323003649552250000096
:1024C0000503000000001C224100000041221C0006
:1024D0000014083E08140008083E0808000000A088
:1024E0006000000808080808000060600000002084
:1024F00010080402003E5149453E0000427F400062
:10250000004261514946002141454B3100181412E7
:102510007F10002745454539003C4A4949300001B4
:102520007109050300364949493600064949291E03
:102530000000363600000000563600000008142265
:102540004100001414141414000041221408000265
:102550000151090600324959513E007C1211127C8A
:10256000007F49494936003E41414122007F4141B7
:10257000221C007F49494941007F09090901003EA9
:102580004149497A007F0808087F0000417F4100E7
:10259000002040413F01007F08142241007F40405D
:1025A0004040007F020C027F007F0408107F003E45
:1025B0004141413E007F09090906003E4151215E2B
:1025C000007F091929460046494949310001017F28
:1025D0000101003F4040403F001F2040201F003FBE
:1025E0004038403F00631408146300070870080770
:1025F00000615149454300007F41410000552A5583
:102600002A55000041417F000004020102040040FD
:10261000404040400000010204000020545454781F
:10262000007F48444438003844444420003844443F
:10263000487F00385454541800087E0901020018DD
:10264000A4A4A47C007F080404780000447D40001A
:10265000004080847D00007F102844000000417FFE
:102660004000007C04180478007C080404780038DA
:102670004444443800FC242424180018242418FC62
:10268000007C0804040800485454542000043F44CB
:102690004020003C4040207C001C2040201C003C8E
:1026A0004030403C004428102844001CA0A0A07CDE
:1026B000004464544C441414141414140000000016
:1026C000000000000000000000000000000000F812
:1026D00000000000000000333000000000100C0675
:1026E000100C0600000000000000000040C0784010
:1026F000C0784000043F04043F040400007088FCDC
:1027000008300000001820FF211E0000F008F00033
:10271000E018000000211C031E211E0000F00888A4
:10272000700000001E2123241927211010160E000E
:10273000000000000000000000000000000000E0B9
:1027400018040200000000071820400000020418CE
:10275000E00000000040201807000000404080F02A
:10276000804040000202010F01020200000000F060
:10277000000000000101011F010101000000000034
:102780000000000080B070000000000000000000A9
:102790000000000000010101010101010000000032
:1027A00000000000003030000000000000000000C9
:1027B00080601804006018060100000000E01008A6
:1027C0000810E000000F102020100F00001010F87B
:1027D000000000000020203F2020000000700808BA
:1027E000088870000030282422213000003008883A
:1027F000884830000018202020110E000000C02062
:1028000010F8000000070424243F240000F8088882
:10281000880808000019212020110E0000E010880F
:1028200088180000000F112020110E000038080841
:10283000C83808000000003F000000000070880851
:1028400008887000001C222121221C0000E01008D2
:102850000810E0000000312222110F00000000C02B
:10286000C0000000000000303000000000000080C8
:1028700000000000000080600000000000008040B8
:1028800020100800000102040810200040404040D1
:102890004040400004040404040404000008102024
:1028A0004080000000201008040201000070480869
:1028B0000808F0000000003036010000C030C828D1
:1028C000E810E0000718272423140B000000C0388C
:1028D000E0000000203C23020227382008F8888806
:1028E00088700000203F202020110E00C030080812
:1028F00008083800071820202010080008F80808E9
:102900000810E000203F202020100F0008F88888E1
:10291000E8081000203F20202320180008F88888AD
:10292000E8081000203F200003000000C030080825
:102930000838000007182020221E020008F80800AE
:102940000008F808203F210101213F20000808F875
:10295000080800000020203F202000000000080898
:10296000F8080800C08080807F00000008F888C058
:1029700028180800203F20012638200008F8080009
:1029800000000000203F20202020300008F8F80040
:10299000F8F80800203F003F003F200008F830C052
:1029A0000008F808203F200007183F00E010080842
:1029B0000810E0000F10202020100F0008F8080871
:1029C0000808F000203F210101010000E010080884
:1029D0000810E0000F18242438504F0008F88888A9
:1029E00088887000203F2000030C30200070880889
:1029F000080838000038202121221C00180808F897
:102A0000080818000000203F2000000008F8080017
:102A10000008F808001F202020201F0008788800E8
:102A200000C83808000007380E010000F80800F858
:102A30000008F800033C0700073C03000818688002
:102A40008068180820302C03032C30200838C80078
:102A5000C83808000000203F2000000010080808C7
:102A6000C83808002038262120201800000000FE69
:102A7000020202000000007F40404000000C30C015
:102A800000000000000000010638C0000002020241
:102A9000FE000000004040407F00000000000402F3
:102AA000020204000000000000000000000000001E
:102AB000000000008080808080808080000202040E
:102AC0000000000000000000000000000000808006
:102AD000808000000019242222223F2008F8008074
:102AE00080000000003F112020110E000000008037
:102AF00080800000000E11202020110000000080C6
:102B00008088F800000E112020103F2000008080F7
:102B100080800000001F222222221300008080F00B
:102B2000888888180020203F202000000000808036
:102B300080808000006B94949493600008F800807B
:102B400080800000203F210000203F2000809898D6
:102B5000000000000020203F202000000000008036
:102B60009898000000C08080807F000008F8000076
:102B700080808000203F24022D302000000808F8CB
:102B8000000000000020203F202000008080808086
:102B900080808000203F20003F20003F8080008018
:102BA00080800000203F210000203F200000808026
:102BB00080800000001F202020201F0080800080D7
:102BC0008000000080FFA12020110E000000008086
:102BD00080808000000E112020A0FF808080800077
:102BE0008080800020203F212000010000008080A4
:102BF000808080000033242424241900008080E099
:102C0000808000000000001F202000008080000065
:102C100000808000001F202020103F208080800046
:102C20000080808000010E30080601008080008056
:102C3000008080800F300C030C300F00008080007B
:102C4000808080000020312E0E31200080808000A6
:102C50000080808080818E70180601000080808056
:102C6000808080000021302C2221300000000000F4
:102C7000807C020200000000003F40400000000095
:102C8000FF00000000000000FF0000000002027CC6
:102C9000800000000040403F0000000000060101ED
:102CA000020204040000000000000000001CE01804
:102CB000040830000000071820201000FFFFFFFF6D
:102CC000FFFFFFFFFFFFFFFFFFFFFFFFFFFFFFFF14
:102CD000FFFFFFFFFFFFFFFFFFFFFFFFFFFFFFFF04
:102CE000FFFFFFFFFFFFFFFFFFFFFFFFFFFFFFFFF4
:102CF000FFFFFFFFFFFFFFFFFFFFFFFFFFFFFFFFE4
:102D0000FFFFFFFFFFFFFFFFFFFFFFFFFFFFFFFFD3
:102D1000FFFFFFFFFFFFFFFFFFFFFFFFFFFFFFFFC3
:102D2000FFFFFFFFFFFFFFFFFFFFFFFFFFFFFFFFB3
:102D3000FFFFFFFFFFFFFFFFFFFFFFFFFFFFFFFFA3
:102D4000FFFFFFFFFFFFFFFFFFFFFFFFFFFFFFFF93
:102D5000FFFFFFFFFFFFFFFFFFFFFFFFFFFFFFFF83
:102D6000FFFFFFFFFFFFFFFFFFFFFFFFFFFFFFFF73
:102D7000FFFFFFFFFFFFFFFFFFFFFFFFFFFFFFFF63
:102D8000FFFFFFFFFFFFFFFFFFFFFFFFFFFFFFFF53
:102D9000FFFFFFFFFFFFFFFFFFFFFFFFFFFFFFFF43
:102DA000FFFFFFFFFFFFFFFFFFFFFFFFFFFFFFFF33
:102DB000FFFFFFFFFFFFFFFFFFFFFFFFFFFFFFFF23
:102DC000FFFFFFFFFFFFFFFFFFFFFFFFFFFFFFFF13
:102DD000FFFFFFFFFFFF03010000000000000000F5
:102DE00000000000000000000000000000000000E3
:102DF000000103FFFFFFFFFFFFFFFFFFFFFFFFFFDC
:102E0000FFFFFFFFFF0301000000000000000000C3
:102E100000000000000000000000000000000000B2
:102E20000103FFFFFFFFFFFFFFFFFFFFFFFFFFFFAC
:102E3000FFFFFFFFFFFFFFFFFFFFFFFFFFFFFFFFA2
:102E4000FFFFFFFFFFFFFFFFFFFFFFFFFFFFFFFF92
:102E5000FFFFFFFFFFFF0000000000000000000078
:102E60000000000000000000000000000000000062
:102E7000000000FFFFFFFFFFFFFFFFFFFFFFFFFF5F
:102E8000FFFFFFFFFF000000000000000000000047
:102E90000000000000000000000000000000000032
:102EA0000000FFFFFFFFFFFFFFFFFFFFFFFFFFFF30
:102EB000FFFFFFFFFFFFFFFFFFFFFFFFFFFFFFFF22
:102EC000FFFFFFFFFFFFFFFFFFFFFFFFFFFFFFFF12
:102ED000FFFFFFFFFFFF00000000000000000000F8
:102EE00000000000000000000000000000000000E2
:102EF000000000FFFFFFFFFFFFFFFFFFFFFFFFFFDF
:102F0000FFFFFFFFFF0000000000000000000000C6
:102F100000000000000000000000000000000000B1
:102F20000000FFFFFFFFFFFFFFFFFFFFFFFFFFFFAF
:102F3000FFFFFFFFFFFFFFFFFFFFFFFFFFFFFFFFA1
:102F4000FFFFFFFFFFFFFFFFFFFFFFFFFFFFFFFF91
:102F5000FFFFFFFFFFFFF8F0E0E0E0E0E0E0E0E08F
:102F6000E0E0E0E0E0E0E0E0E0E0E0E0E0E0E0E061
:102F7000E0F0F8FFFFFFFFFFFFFFFFFFFFFFFFFF96
:102F8000FFFFFFFFFFF8F0E0E0E0E0E0E0E0E0E07E
:102F9000E0E0E0E0E0E0E0E0E0E0E0E0E0E0E0E031
:102FA000F0F8FFFFFFFFFFFFFFFFFFFFFFFFFFFF47
:102FB000FFFFFFFFFFFFFFFFFFFFFFFFFFFFFFFF21
:102FC000FFFFFFFFFFFFFFFFFFFFFFFFFFFFFFFF11
:102FD000FFFFFFFFFFFFFFFFFFFFFFFFFFFFFFFF01
:102FE000FFFFFFFFFFFFFFFFFFFFFFFFFFFFFFFFF1
:102FF000FFFFFFFFFFFFFFFFFFFFFFFFFFFFFFFFE1
:10300000FFFFFFFFFFFFFFFFFFFFFFFFFFFFFFFFD0
:10301000FFFFFFFFFFFFFFFFFFFFFFFFFFFFFFFFC0
:10302000FFFFFFFFFFFFFFFFFFFFFFFFFFFFFFFFB0
:10303000FFFFFFFFFFFFFFFFFFFFFFFFFFFFFFFFA0
:10304000FFFFFFFFFFFFFFFFFFFFFFFFFFFFFFFF90
:10305000FFFFFFFFFFFFFFFFFFFFFFFFFFFFFFFF80
:10306000FFFFFFFFFFFFFFFFFFFFFFFFFFFFFFFF70
:10307000FFFFFFFFFFFFFFFFFFFFFFFFFFFFFFFF60
:10308000FFFFFFFFFFFFFFFFFFFFFFFFFFFFFFFF50
:10309000FFFFFFFFFFFFFFFFFFFFFFFFFFFFFFFF40
:1030A000FFFFFFFFFFFFFFFFFFFFFFFFFFFFFFFF30
:1030B000FFFFFFFFFFFFFFFFFFFFFFFFFFFFFFFF20
:1030C000FFFFFFFFFFFFFFFFFFFFFFFFFFFFFFFF10
:1030D000FFFFFFFFFFFFFFFFFFFFFFFFFFFFFFFF00
:1030E000FFFFFFFFFFFFFFFFFFFFFFFFFFFFFFFFF0
:1030F000FFFFFFFFFFFFFFFFFFFFFFFFFFFFFFFFE0
:10310000FFFFFFFFFFFFFFFFFFFFFFFFFFFFFFFFCF
:10311000FFFFFFFFFFFFFFFFFFFFFFFFFFFFFFFFBF
:10312000FFFFFFFFFFFFFFFFFFFFFFFFFFFFFFFFAF
:10313000FFFFFFFFFFFFFFFFFFFFFFFFFFFFFFFF9F
:10314000FFFFFFFFFFFFFFFFFFFFFFFFFFFFFFFF8F
:10315000FFFFFFFFFFFFFFFFFF7F7F7F7F7F7F7FFF
:103160007F7F7F7F7F7F7F7F7F7F7F7F7F7F7FFFEF
:10317000FFFFFFFFFFFFFFFFFFFFFFFFFFFFFFFF5F
:10318000FFFFFFFFFFFFFFFFFF7F7F7F7F7F7F7FCF
:103190007F7F7F7F7F7F7F7F7F7F7F7F7F7F7FFFBF
:1031A000FFFFFFFFFFFFFFFFFFFFFFFFFFFFFFFF2F
:1031B000FFFFFFFFFFFFFFFFFFFFFFFFFFFFFFFF1F
:1031C000FFFFFFFFFFFFFFFFFFFFFFFFFFFFFFFF0F
:1031D000FFFFFFFFFFFF03010000000000000000F1
:1031E00000000000000000000000000000000000DF
:1031F0000103FFFFFFFFFFFFFFFFFFFFFFFFFFFFD9
:10320000FFFFFFFFFFFF03010000000000000000C0
:1032100000000000000000000000000000000000AE
:103220000103FFFFFFFFFFFFFFFFFFFFFFFFFFFFA8
:10323000FFFFFFFFFFFFFFFFFFFFFFFFFFFFFFFF9E
:10324000FFFFFFFFFFFFFFFFFFFFFFFFFFFFFFFF8E
:10325000FFFFFFFFFFFF0000000000000000000074
:10326000000000000000000000000000000000005E
:103270000000FFFFFFFFFFFFFFFFFFFFFFFFFFFF5C
:10328000FFFFFFFFFFFF0000000000000000000044
:10329000000000000000000000000000000000002E
:1032A0000000FFFFFFFFFFFFFFFFFFFFFFFFFFFF2C
:1032B000FFFFFFFFFFFFFFFFFFFFFFFFFFFFFFFF1E
:1032C000FFFFFFFFFFFFFFFFFFFFFFFFFFFFFFFF0E
:1032D000FFFFFFFFFFFF00000000000000000000F4
:1032E00000000000000000000000000000000000DE
:1032F0000000FFFFFFFFFFFFFFFFFFFFFFFFFFFFDC
:10330000FFFFFFFFFFFF00000000000000000000C3
:1033100000000000000000000000000000000000AD
:103320000000FFFFFFFFFFFFFFFFFFFFFFFFFFFFAB
:10333000FFFFFFFFFFFFFFFFFFFFFFFFFFFFFFFF9D
:10334000FFFFFFFFFFFFFFFFFFFFFFFFFFFFFFFF8D
:10335000FFFFFFFFFFFFFCF8F0E0E0E0E0E0E0E06F
:10336000E0E0E0E0E0E0E0E0E0E0E0E0E0E0E0F04D
:10337000F8FCFFFFFFFFFFFFFFFFFFFFFFFFFFFF67
:10338000FFFFFFFFFFFFFCF8F0E0E0E0E0E0E0E03F
:10339000E0E0E0E0E0E0E0E0E0E0E0E0E0E0E0F01D
:1033A000F8FCFFFFFFFFFFFFFFFFFFFFFFFFFFFF37
:1033B000FFFFFFFFFFFFFFFFFFFFFFFFFFFFFFFF1D
:1033C000FFFFFFFFFFFFFFFFFFFFFFFFFFFFFFFF0D
:1033D000FFFFFFFFFFFFFFFFFFFFFFFFFFFFFFFFFD
:1033E000FFFFFFFFFFFFFFFFFFFFFFFFFFFFFFFFED
:1033F000FFFFFFFFFFFFFFFFFFFFFFFFFFFFFFFFDD
:10340000FFFFFFFFFFFFFFFFFFFFFFFFFFFFFFFFCC
:10341000FFFFFFFFFFFFFFFFFFFFFFFFFFFFFFFFBC
:10342000FFFFFFFFFFFFFFFFFFFFFFFFFFFFFFFFAC
:10343000FFFFFFFFFFFFFFFFFFFFFFFFFFFFFFFF9C
:10344000FFFFFFFFFFFFFFFFFFFFFFFFFFFFFFFF8C
:10345000FFFFFFFFFFFFFFFFFFFFFFFFFFFFFFFF7C
:10346000FFFFFFFFFFFFFFFFFFFFFFFFFFFFFFFF6C
:10347000FFFFFFFFFFFFFFFFFFFFFFFFFFFFFFFF5C
:10348000FFFFFFFFFFFFFFFFFFFFFFFFFFFFFFFF4C
:10349000FFFFFFFFFFFFFFFFFFFFFFFFFFFFFFFF3C
:1034A000FFFFFFFFFFFFFFFFFFFFFFFFFFFFFFFF2C
:1034B000FFFFFFFFFFFFFFFFFFFFFFFFFFFFFFFF1C
:1034C000FFFFFFFFFFFFFFFFFFFFFFFFFFFFFFFF0C
:1034D000FFFFFFFFFFFFFFFFFFFFFFFFFFFFFFFFFC
:1034E000FFFFFFFFFFFFFFFFFFFFFFFFFFFFFFFFEC
:1034F000FFFFFFFFFFFFFFFFFFFFFFFFFFFFFFFFDC
:10350000FFFFFFFFFFFFFFFFFFFFFFFFFFFFFFFFCB
:10351000FFFFFFFFFFFFFFFFFFFFFFFFFFFFFFFFBB
:10352000FFFFFFFFFFFFFFFFFFFFFFFFFFFFFFFFAB
:10353000FFFFFFFFFFFFFFFFFFFFFFFFFFFFFFFF9B
:10354000FFFFFFFFFFFFFFFFFFFFFFFFFFFFFFFF8B
:10355000FFFFFFFFFFFFFFFFFFFF3F1F0F0F0707EB
:1035600003030303030303030307070F0F1F3FFFB7
:10357000FFFFFFFFFFFFFFFFFFFFFFFFFFFFFFFF5B
:10358000FFFFFFFFFFFFFFFFFF7F3F1F0F0F07073B
:10359000030303030303030307070F0F1F3F7FFF0B
:1035A000FFFFFFFFFFFFFFFFFFFFFFFFFFFFFFFF2B
:1035B000FFFFFFFFFFFFFFFFFFFFFFFFFFFFFFFF1B
:1035C000FFFFFFFFFFFFFFFFFFFFFFFFFFFFFFFF0B
:1035D000FFFFFFFFFFFFFFFFFF00000000000000F4
:1035E00000000000000000000000000000000000DB
:1035F000FFFFFFFFFFFFFFFFFFFFFFFFFFFFFFFFDB
:10360000FFFFFFFFFFFFFFFF0000000000000000C2
:1036100000000000000000000000000000000000AA
:10362000FFFFFFFFFFFFFFFFFFFFFFFFFFFFFFFFAA
:10363000FFFFFFFFFFFFFFFFFFFFFFFFFFFFFFFF9A
:10364000FFFFFFFFFFFFFFFFFFFFFFFFFFFFFFFF8A
:10365000FFFFFFFFFFFFFFFFFF0000000000000073
:10366000000000000000000000000000000000005A
:10367000FFFFFFFFFFFFFFFFFFFFFFFFFFFFFFFF5A
:10368000FFFFFFFFFFFFFFFF000000000000000042
:10369000000000000000000000000000000000002A
:1036A000FFFFFFFFFFFFFFFFFFFFFFFFFFFFFFFF2A
:1036B000FFFFFFFFFFFFFFFFFFFFFFFFFFFFFFFF1A
:1036C000FFFFFFFFFFFFFFFFFFFFFFFFFFFFFFFF0A
:1036D000FFFFFFFFFFFFFFFFFF00000000000000F3
:1036E00000000000000000000000000000000000DA
:1036F000FFFFFFFFFFFFFFFFFFFFFFFFFFFFFFFFDA
:10370000FFFFFFFFFFFFFFFF0000000000000000C1
:1037100000000000000000000000000000000000A9
:10372000FFFFFFFFFFFFFFFFFFFFFFFFFFFFFFFFA9
:10373000FFFFFFFFFFFFFFFFFFFFFFFFFFFFFFFF99
:10374000FFFFFFFFFFFFFFFFFFFFFFFFFFFFFFFF89
:10375000FFFFFFFFFFFFFFFFFFF8F0E0C0C080802A
:103760000000000000000000008080C0C0E0F0F811
:10377000FFFFFFFFFFFFFFFFFFFFFFFFFFFFFFFF59
:10378000FFFFFFFFFFFFFFFFF8F0E0C0C0808000F9
:103790000000000000000000008080C0C0E0F0F8E1
:1037A000FFFFFFFFFFFFFFFFFFFFFFFFFFFFFFFF29
:1037B000FFFFFFFFFFFFFFFFFFFFFFFFFFFFFFFF19
:1037C000FFFFFFFFFFFFFFFFFFFFFFFFFFFFFFFF09
:1037D000FFFFFFFFFFFFFFFFFFFFFFFFFFFFFFFFF9
:1037E000FFFFFFFFFFFFFFFFFFFFFFFFFFFFFFFFE9
:1037F000FFFFFFFFFFFFFFFFFFFFFFFFFFFFFFFFD9
:10380000FFFFFFFFFFFFFFFFFFFFFFFFFFFFFFFFC8
:10381000FFFFFFFFFFFFFFFFFFFFFFFFFFFFFFFFB8
:10382000FFFFFFFFFFFFFFFFFFFFFFFFFFFFFFFFA8
:10383000FFFFFFFFFFFFFFFFFFFFFFFFFFFFFFFF98
:10384000FFFFFFFFFFFFFFFFFFFFFFFFFFFFFFFF88
:10385000FFFFFFFFFFFFFFFFFFFFFFFFFFFFFFFF78
:10386000FFFFFFFFFFFFFFFFFFFFFFFFFFFFFFFF68
:10387000FFFFFFFFFFFFFFFFFFFFFFFFFFFFFFFF58
:10388000FFFFFFFFFFFFFFFFFFFFFFFFFFFFFFFF48
:10389000FFFFFFFFFFFFFFFFFFFFFFFFFFFFFFFF38
:1038A000FFFFFFFFFFFFFFFFFFFFFFFFFFFFFFFF28
:1038B000FFFFFFFFFFFFFFFFFFFFFFFFFFFFFFFF18
:1038C000FFFFFFFFFFFFFFFFFFFFFFFFFFFFFFFF08
:1038D000FFFFFFFFFFFFFFFFFFFFFFFFFFFFFFFFF8
:1038E000FFFFFFFFFFFFFFFFFFFFFFFFFFFFFFFFE8
:1038F000FFFFFFFFFFFFFFFFFFFFFFFFFFFFFFFFD8
:10390000FFFFFFFFFFFFFFFFFFFFFFFFFFFFFFFFC7
:10391000FFFFFFFFFFFFFFFFFFFFFFFFFFFFFFFFB7
:10392000FFFFFFFFFFFFFFFFFFFFFFFFFFFFFFFFA7
:10393000FFFFFFFFFFFFFFFFFFFFFFFFFFFFFFFF97
:10394000FFFFFFFFFFFFFFFFFFFFFFFFFFFFFFFF87
:10395000FFFFFFFFFFFFFFFFFFFF7F7F7F3F3F3F37
:103960001F1F1F1F1F1F1F1F1F1F3F3F3F7FFFFFE7
:10397000FFFFFFFFFFFFFFFFFFFFFFFFFFFFFFFF57
:10398000FFFFFFFFFFFFFFFFFFFF7F3F3F3F1F1FC7
:103990001F1F1F1F1F1F1F1F1F3F3F3F7F7F7FFFD7
:1039A000FFFFFFFFFFFFFFFFFFFFFFFFFFFFFFFF27
:1039B000FFFFFFFFFFFFFFFFFFFFFFFFFFFFFFFF17
:1039C000FFFFFFFFFFFFFFFFFFFFFFFFFFFFFFFF07
:1039D000FFFFFFFFFFFFFFFF1F01000000000000CF
:1039E00000000000000000000000000000000001D6
:1039F0001FFFFFFFFFFFFFFFFFFFFFFFFFFFFFFFB7
:103A0000FFFFFFFFFFFFFF1F01000000000000009D
:103A100000000000000000000000000000000001A5
:103A20001FFFFFFFFFFFFFFFFFFFFFFFFFFFFFFF86
:103A3000FFFFFFFFFFFFFFFFFFFFFFFFFFFFFFFF96
:103A4000FFFFFFFFFFFFFFFFFFFFFFFFFFFFFFFF86
:103A5000FFFFFFFFFFFFFFFF00000000000000006E
:103A60000000000000000000000000000000000056
:103A700000FFFFFFFFFFFFFFFFFFFFFFFFFFFFFF55
:103A8000FFFFFFFFFFFFFF0000000000000000003D
:103A90000000000000000000000000000000000026
:103AA00000FFFFFFFFFFFFFFFFFFFFFFFFFFFFFF25
:103AB000FFFFFFFFFFFFFFFFFFFFFFFFFFFFFFFF16
:103AC000FFFFFFFFFFFFFFFFFFFFFFFFFFFFFFFF06
:103AD000FFFFFFFFFFFFFFFFF800000000000000F6
:103AE00000000000000000000000000000000000D6
:103AF000F8FFFFFFFFFFFFFFFFFFFFFFFFFFFFFFDD
:103B0000FFFFFFFFFFFFFFFC0000000000000000C0
:103B1000000000000000000000000000000000FCA9
:103B2000FFFFFFFFFFFFFFFFFFFFFFFFFFFFFFFFA5
:103B3000FFFFFFFFFFFFFFFFFFFFFFFFFFFFFFFF95
:103B4000FFFFFFFFFFFFFFFFFFFFFFFFFFFFFFFF85
:103B5000FFFFFFFFFFFFFFFFFFFEF0E0E0C0C080C0
:103B60008080808080808080808080C0C0E0F0FE87
:103B7000FFFFFFFFFFFFFFFFFFFFFFFFFFFFFFFF55
:103B8000FFFFFFFFFFFFFFFFFEF0E0C0C08080806F
:103B900080808080808080808080C0C0E0F0FEFFD8
:103BA000FFFFFFFFFFFFFFFFFFFFFFFFFFFFFFFF25
:103BB000FFFFFFFFFFFFFFFFFFFFFFFFFFFFFFFF15
:103BC000FFFFFFFFFFFFFFFFFFFFFFFFFFFFFFFF05
:103BD000FFFFFFFFFFFFFFFFFFFFFFFFFFFFFFFFF5
:103BE000FFFFFFFFFFFFFFFFFFFFFFFFFFFFFFFFE5
:103BF000FFFFFFFFFFFFFFFFFFFFFFFFFFFFFFFFD5
:103C0000FFFFFFFFFFFFFFFFFFFFFFFFFFFFFFFFC4
:103C1000FFFFFFFFFFFFFFFFFFFFFFFFFFFFFFFFB4
:103C2000FFFFFFFFFFFFFFFFFFFFFFFFFFFFFFFFA4
:103C3000FFFFFFFFFFFFFFFFFFFFFFFFFFFFFFFF94
:103C4000FFFFFFFFFFFFFFFFFFFFFFFFFFFFFFFF84
:103C5000FFFFFFFFFFFFFFFFFFFFFFFFFFFFFFFF74
:103C6000FFFFFFFFFFFFFFFFFFFFFFFFFFFFFFFF64
:103C7000FFFFFFFFFFFFFFFFFFFFFFFFFFFFFFFF54
:103C8000FFFFFFFFFFFFFFFFFFFFFFFFFFFFFFFF44
:103C9000FFFFFFFFFFFFFFFFFFFFFFFFFFFFFFFF34
:103CA000FFFFFFFFFFFFFFFFFFFFFFFFFFFFFFFF24
:103CB000FFFFFFFFFFFFFFFFFFFFFFFFFFFFFFFF14
:103CC000FFFFFFFFFFFFFFFFFFFFFFFFFFFFFFFF04
:103CD000FFFFFFFFFFFFFFFFFFFFFFFFFFFFFFFFF4
:103CE000FFFFFFFFFFFFFFFFFFFFFFFFFFFFFFFFE4
:103CF000FFFFFFFFFFFFFFFFFFFFFFFFFFFFFFFFD4
:103D0000FFFFFFFFFFFFFFFFFFFFFFFFFFFFFFFFC3
:103D1000FFFFFFFFFFFFFFFFFFFFFFFFFFFFFFFFB3
:103D2000FFFFFFFFFFFFFFFFFFFFFFFFFFFFFFFFA3
:103D3000FFFFFFFFFFFFFFFFFFFFFFFFFFFFFFFF93
:103D4000FFFFFFFFFFFFFFFFFFFFFFFFFFFFFFFF83
:103D5000FFFFFFFFFFFFFFFFFFFFFFFFFFFFFF7FF3
:103D60007F7F7F7F7F7F7F7F3F3F3F3F3F3F7F7FE3
:103D7000FFFFFFFFFFFFFFFFFFFFFFFFFFFFFFFF53
:103D8000FFFFFFFFFFFFFFFF7F7F3F3F3F3F3F3FC3
:103D90003F3F7F7F7F7F7F7F7F7FFFFFFFFFFFFFB3
:103DA000FFFFFFFFFFFFFFFFFFFFFFFFFFFFFFFF23
:103DB000FFFFFFFFFFFFFFFFFFFFFFFFFFFFFFFF13
:103DC000FFFFFFFFFFFFFFFFFFFFFFFFFFFFFFFF03
:103DD000FFFFFFFFFFFFFFFF0301010000000000E6
:103DE00000000000000000000000000000000000D3
:103DF0000003FFFFFFFFFFFFFFFFFFFFFFFFFFFFCE
:103E0000FFFFFFFFFFFFFF000000000000000000B9
:103E1000000000000000000000000000000001039E
:103E2000FFFFFFFFFFFFFFFFFFFFFFFFFFFFFFFFA2
:103E3000FFFFFFFFFFFFFFFFFFFFFFFFFFFFFFFF92
:103E4000FFFFFFFFFFFFFFFFFFFFFFFFFFFFFFFF82
:103E5000FFFFFFFFFFFFFFFF00000000000000006A
:103E60000000000000000000000000000000000052
:103E70000000FFFFFFFFFFFFFFFFFFFFFFFFFFFF50
:103E8000FFFFFFFFFFFFFF00000000000000000039
:103E90000000000000000000000000000000000022
:103EA000FFFFFFFFFFFFFFFFFFFFFFFFFFFFFFFF22
:103EB000FFFFFFFFFFFFFFFFFFFFFFFFFFFFFFFF12
:103EC000FFFFFFFFFFFFFFFFFFFFFFFFFFFFFFFF02
:103ED000FFFFFFFFFFFFFFFFE0000000000000000A
:103EE00000000000000000000000000000000000D2
:103EF00000E0FFFFFFFFFFFFFFFFFFFFFFFFFFFFF0
:103F0000FFFFFFFFFFFFFF000000000000000000B8
:103F10000000000000000000000000000000008021
:103F2000FFFFFFFFFFFFFFFFFFFFFFFFFFFFFFFFA1
:103F3000FFFFFFFFFFFFFFFFFFFFFFFFFFFFFFFF91
:103F4000FFFFFFFFFFFFFFFFFFFFFFFFFFFFFFFF81
:103F5000FFFFFFFFFFFFFFFFFFFEF8F8F0F0E0E0DC
:103F6000E0E0E0E0E0E0E0E0E0E0E0F0F0F0F8FCED
:103F7000FEFFFFFFFFFFFFFFFFFFFFFFFFFFFFFF52
:103F8000FFFFFFFFFFFFFFFEFCF8F0F0E0E0E0E0E6
:103F9000E0E0E0E0E0E0E0E0E0E0E0F0F0F8FCFFAE
:103FA000FFFFFFFFFFFFFFFFFFFFFFFFFFFFFFFF21
:103FB000FFFFFFFFFFFFFFFFFFFFFFFFFFFFFFFF11
:103FC000FFFFFFFFFFFFFFFFFFFFFFFFFFFFFFFF01
:103FD000FFFFFFFFFFFFFFFFFFFFFFFFFFFFFFFFF1
:1041D000FFFFFFFFFFFFFFFF7F7F3F3F3F3F3F3F6F
:1041E0003F1F1F1F1F1F1F3F3F3F3F3F3F3F7F7F1F
:1041F0007FFFFFFFFFFFFFFFFFFFFFFFFFFFFFFF4F
:10420000FFFFFFFFFFFFFF7F7F7F3F3F3F3F3F3FBE
:104210003F1F1F1F1F1F1F3F3F3F3F3F3F3F7F7FEE
:104220007FFFFFFFFFFFFFFFFFFFFFFFFFFFFFFF1E
:10423000FFFFFFFFFFFFFFFFFFFFFFFFFFFFFFFF8E
:10424000FFFFFFFFFFFFFFFFFFFFFFFFFFFFFFFF7E
:10425000FFFFFFFF0301000000000000000000005E
:10426000000000000000000000000000000000004E
:104270000000000107FFFFFFFFFFFFFFFFFFFFFF41
:10428000FFFFFF0F01000000000000000000000021
:10429000000000000000000000000000000000001E
:1042A00000000103FFFFFFFFFFFFFFFFFFFFFFFF16
:1042B000FFFFFFFFFFFFFFFFFFFFFFFFFFFFFFFF0E
:1042C000FFFFFFFFFFFFFFFFFFFFFFFFFFFFFFFFFE
:1042D000FFFFFFFFFFFCF0C0000000000000000037
:1042E00000000000000000000000000000000000CE
:1042F0000080E0F8FEFFFFFFFFFFFFFFFFFFFFFF73
:10430000FFFFFFFEF8E0800000000000000000005A
:10431000000000000000000000000000000000009D
:1043200080E0F8FFFFFFFFFFFFFFFFFFFFFFFFFF42
:10433000FFFFFFFFFFFFFFFFFFFFFFFFFFFFFFFF8D
:10434000FFFFFFFFFFFFFFFFFFFFFFFFFFFFFFFF7D
:10435000FFFFFFFFFFFFFFFFFFFEFCFCF8F8F8F890
:10436000F0F0F0F0F0F0F0F0F0F0F8F8F8F8FCFE13
:10437000FFFFFFFFFFFFFFFFFFFFFFFFFFFFFFFF4D
:10438000FFFFFFFFFFFFFFFFFEFCF8F8F8F0F0F083
:10439000F0F0F0F0F0F0F0F0F8F8F8F8FCFCFEFFC8
:1043A000FFFFFFFFFFFFFFFFFFFFFFFFFFFFFFFF1D
:1043B000FFFFFFFFFFFFFFFFFFFFFFFFFFFFFFFF0D
:1043C000FFFFFFFFFFFFFFFFFFFFFFFFFFFFFFFFFD
:1043D000FFFFFFFFFFFFFFFFFFFFFFFFFFFFFFFFED
:10465000FF3F1F1F1F1F1F1F0F0F0F0F0F0F0F0FEA
:104660000F0F0F0F0F0F0F0F0F0F0F0F0F0F0F0F5A
:104670000F0F1F1F1F1FFFFFFFFFFFFFFFFFFFFFAA
:10468000FFFF3F1F1F1F1F0F0F0F0F0F0F0F0F0FEA
:104690000F0F0F0F0F0F0F0F0F0F0F0F0F0F0F0F2A
:1046A0000F1F1F1F1F1F3FFFFFFFFFFFFFFFFFFF2A
:1046B000FFFFFFFFFFFFFFFFFFFFFFFFFFFFFFFF0A
:1046C000FFFFFFFFFFFFFFFFFFFFFFFFFFFFFFFFFA
:1046D000FFFEF8F0E0C0C080800000000000000095
:1046E00000000000000000000000000000000000CA
:1046F0008080C0E0F0FCFFFFFFFFFFFFFFFFFFFF38
:10470000FFFFFCF0E0C0808000000000000000001F
:104710000000000000000000000000000000008019
:1047200080C0C0E0F0F8FEFFFFFFFFFFFFFFFFFFCC
:10473000FFFFFFFFFFFFFFFFFFFFFFFFFFFFFFFF89
:10474000FFFFFFFFFFFFFFFFFFFFFFFFFFFFFFFF79
:10475000FFFFFFFFFFFFFFFFFFFFFFFFFEFEFEFE6D
:10476000FEFEFEFEFEFEFEFEFEFEFEFEFEFFFFFF66
:10477000FFFFFFFFFFFFFFFFFFFFFFFFFFFFFFFF49
:10478000FFFFFFFFFFFFFFFFFFFFFFFEFEFEFEFE3E
:10479000FEFEFEFEFEFEFEFEFEFEFEFEFFFFFFFF35
:1047A000FFFFFFFFFFFFFFFFFFFFFFFFFFFFFFFF19
:1047B000FFFFFFFFFFFFFFFFFFFFFFFFFFFFFFFF09
:1047C000FFFFFFFFFFFFFFFFFFFFFFFFFFFFFFFFF9
:1047D000FFFFFFFFFFFFFFFFFFFFFFFFFFFFFFFFE9
:104A50007F3F3F3F3F3F3F3F7F7F7F7F7F7F7F7F26
:104A60007F7F7F7F7F7F7F7F7F7F7F7F7F7F7F7F56
:104A70007F7F7F3F3F3F3F3F7FFFFFFFFFFFFF7F86
:104A80003F3F3F3F3F7F7F7F7F7F7F7F7F7F7F7F76
:104A90007F7F7F7F7F7F7F7F7F7F7F7F7F7F7F7F26
:104AA0003F3F3F3F3F3F3F7FFFFFFFFFFFFFFFFFD6
:104AB000FFFFFFFFFFFFFFFFFFFFFFFFFFFFFFFF06
:104AC000FFFFFFFFFFFFFFFFFFFFFFFFFFFFFFFFF6
:104AD000FEFCF8F0F0E0C0C0808080000000000024
:104AE00000000000000000000000000000000000C6
:104AF000808080C0C0E0E0F0F8FFFFFFFFFFFFF81C
:104B0000F0E0E0C0C08080800000000000000000F5
:104B10000000000000000000000000000080808015
:104B2000C0C0E0E0F0F8FCFEFFFFFFFFFFFFFFFF6B
:104B3000FFFFFFFFFFFFFFFFFFFFFFFFFFFFFFFF85
:104B4000FFFFFFFFFFFFFFFFFFFFFFFFFFFFFFFF75
:104B5000FFFFFFFFFFFFFFFFFFFFFFFFFFFFFFFF65
:104B6000FFFFFFFFFFFFFFFFFFFFFFFFFFFFFFFF55
:104E5000FFFFFF7F7FFFFFFFFFFFFFFFFFFFFFFF62
:104E6000FFFFFFFFFFFFFFFFFFFFFFFFFFFFFFFF52
:104E7000FF7F7F7F3F3F3F3FFFFFFFFFFFFFFFFFC2
:104E80007F3F3F3F3F7F7F7FFFFFFFFFFFFFFFFF32
:104E9000FFFFFFFFFFFFFFFFFFFFFFFFFFFFFFFF22
:104EA000FFFFFF7F7FFFFFFFFFFFFFFFFFFFFFFF12
:104EB000FFFFFFFFFFFFFFFFFFFFFFFFFFFFFFFF02
:104EC000FFFFFFFFFFFFFFFFFFFFFFFFFFFFFFFFF2
:104ED000FFFFF8F0E0E0C0C0C0C0C0C0C0C0C0C0AC
:104EE000C0C0C0C0C0C0C0C0C0C0C0C0C0C0C0C0C2
:104EF000C0C0C0C0E0E0F0FCFFFFFFFFFFFFFFFF0E
:104F0000FCF0E0E0C0C0C0C0C0C0C0C0C0C0C0C0F5
:104F1000C0C0C0C0C0C0C0C0C0C0C0C0C0C0C0C091
:104F2000C0C0E0E0F0F8FFFFFFFFFFFFFFFFFFFF63
:104F3000FFFFFFFFFFFFFFFFFFFFFFFFFFFFFFFF81
:104F4000FFFFFFFFFFFFFFFFFFFFFFFFFFFFFFFF71
:104F5000FFFFFFFFFFFFFFFFFFFFFFFFFFFFFFFF61
:104F6000FFFFFFFFFFFFFFFFFFFFFFFFFFFFFFFF51
:104F7000FFFFFFFFFFFFFFFFFFFFFFFFFFFFFFFF41
:104F8000FFFFFFFFFFFFFFFFFFFFFFFFFFFFFFFF31
:104F9000FFFFFFFFFFFFFFFFFFFFFFFFFFFFFFFF21
:104FA000FFFFFFFFFFFFFFFFFFFFFFFFFFFFFFFF11
:104FB000FFFFFFFFFFFFFFFFFFFFFFFFFFFFFFFF01
:104FC000FFFFFFFFFFFFFFFFFFFFFFFFFFFFFFFFF1
:104FD000FFFFFFFFFFFFFFFFFFFFFFFFFFFFFFFFE1
:104FE000FFFFFFFFFFFFFFFFFFFFFFFFFFFFFFFFD1
:104FF000FFFFFFFFFFFFFFFFFFFFFFFFFFFFFFFFC1
:10500000FFFFFFFFFFFFFFFFFFFFFFFFFFFFFFFFB0
:10501000FFFFFFFFFFFFFFFFFFFFFFFFFFFFFFFFA0
:10502000FFFFFFFFFFFFFFFFFFFFFFFFFFFFFFFF90
:10503000FFFFFFFFFFFFFFFFFFFFFFFFFFFFFFFF80
:10504000FFFFFFFFFFFFFFFFFFFFFFFFFFFFFFFF70
:10505000FFFFFFFFFFFFFFFFFFFFFFFFFFFFFFFF60
:10506000FFFFFFFFFFFFFFFFFFFFFFFFFFFFFFFF50
:10507000FFFFFFFFFFFFFFFFFFFFFFFFFFFFFFFF40
:10508000FFFFFFFFFFFFFFFFFFFFFFFFFFFFFFFF30
:10509000FFFFFFFFFFFFFFFFFFFFFFFFFFFFFFFF20
:1050A000FFFFFFFFFFFFFFFFFFFFFFFFFFFFFFFF10
:1050B000FFFFFFFFFFFFFFFFFFFFFFFF2201800059
:1050C00040000000000000000000000000000000A0
:1050D00000000000000000000000000000000000D0
:1050E00000000000000000000000000000000000C0
:1050F0000000000000000080808080808080801898
:1051000010302060C0B030000000003030000000DF
:10511000000000000000000000000000000000008F
:10512000000000000000000000000000000000007F
:10513000000000000000000000000000000000006F
:10514000000000000000000000000000000000005F
:10515000000000000000000000000000000000004F
:1051600000000000000000000000000000000080BF
:10517000E0F86C0602030101000000000001050DCB
:105180000B16245830C1060C30608000000000006F
:105190000018242418000000000000000000000097
:1051A00000000000000000000000000000000000FF
:1051B00000000000000000000000000000000000EF
:1051C00000000000000000000000000000000000DF
:1051D00000000000000000000000000000000000CF
:1051E0000000000000000000000000000000FEC7FA
:1051F00000000000000000000000000000000000AF
:10520000030000000001FF00000001030000000097
:1052100000000C080000000000000000000000007A
:10522000000000000000000000000000000000007E
:10523000000000000000000000000000000000006E
:10524000000000000000000000000000000000005E
:10525000000000000000000000000000000000004E
:105260000000000000000000000000000000000737
:105270000C3060C080800000000000000000008052
:10528000C0602010080F1364C488103060C0800014
:105290000000000004040000000000000000000006
:1052A00000000000000000000000000000000000FE
:1052B00000000000000000000000000000000000EE
:1052C00000000000000000000000000000000000DE
:1052D00000000000000000000000000000000000CE
:1052E00000000000000010000000000000000000AE
:1052F00000000000000101030202027EC20F79E0FB
:10530000800000000000000000838F7E9EF1B11E2F
:10531000000000000000000000000000000000008D
:10532000000000000000000000000000000000007D
:10533000000000000000000000000000000000006D
:10534000000000000000000000000000000000005D
:10535000000000000000000000000000000000004D
:10536000000000000000000000000808000000002D
:105370000000000000001030C0800000030E3869FB
:10538000474F3E2868941402030130E1C1C0633ED8
:1053900020C0000060C00000000002060C100000E9
:1053A00000000000000000000000000000000000FD
:1053B00000000000000000000000000000000000ED
:1053C00000000000000000000000000000000000DD
:1053D00000000000000000000000000000000000CD
:1053E00000000000000000000000000000000000BD
:1053F0000006091B0E0000000003061C30C08000E0
:1054000000000000000001C38A1E331109070202D8
:105410000140C0000000000000000000000000008B
:10542000000000000000000000000000000000007C
:10543000000000000000000000000000000000006C
:10544000000000000000000000000000000000005C
:10545000000000000000000000000000000000004C
:10546000000000000000000000000000000000003C
:105470000000000000000004080000000000010619
:105480001C300000000000000106000000000000C9
:105490000000010300000000000000000000000008
:1054A00000000000000000000000000000000000FC
:1054B00000000000000000000000000000000000EC
:1054C00000002201800040000000000000000000F9
:1054D00000000000000000000000000000000000CC
:1054E00000000000000000000000000000000000BC
:1054F000000000000000000000000000008080802C
:10550000808080808000000000000000100E0C14DD
:10551000000000000000000000000000000000008B
:10552000000000000000000000000000000000007B
:10553000000000000000000000000000000000006B
:10554000000000000000000000000000000000005B
:10555000000000000000000000000000000000004B
:10556000000000000000000000000000000000003B
:10557000000000000080E0380C060203010100007A
:10558000000303030101031E7CF8F0E1070C306007
:10559000807020000000006040000000000000005B
:1055A00000000000000000000000000000000000FB
:1055B00000000000000000000000000000000000EB
:1055C00000000000000000000000000000000000DB
:1055D00000000000000000000000000000000000CB
:1055E00000000000000000000000000000000000BB
:1055F000000000007CFFC000000000000000000070
:10560000000000000000000000010307FF10000080
:1056100001030C1860C0000000000000003868683A
:10562000000000000000000000000000000000007A
:10563000000000000000000000000000000000006A
:10564000000000000000000000000000000000005A
:10565000000000000000000000000000000000004A
:10566000000000000000000000000000000000003A
:105670000000000000030F3F6C408080000000002D
:1056800000000000000080C060F0984ECB18306031
:10569000C0800000000000000000000000001800B2
:1056A00000000000000000000000000000000000FA
:1056B00000000000000000000000000000000000EA
:1056C00000000000000000000000000000000000DA
:1056D00000000000000000000000000000000000CA
:1056E00000000000000000000000000000000000BA
:1056F00000000000000000000000000101030302A0
:1057000002023EC6030101000000030E19638C3043
:105710007099078C78008080000000000000000075
:105720000800000000000000000000000000000071
:105730000000000000000000000000000000000069
:105740000000000000000000000000000000000059
:105750000000000000000000000000000000000049
:105760000000000000000000000000000000000039
:1057700000202000000000000000000000000000E9
:1057800000000000030E382060203048889C336001
:10579000408181C37E20E081000000000000000005
:1057A00000000000000000000000000000000000F9
:1057B00000000000000000000000000000000000E9
:1057C00000000000000000000000000000000000D9
:1057D00000000000000000000000000000000000C9
:1057E00000000000000000000000000000000000B9
:1057F000000000000000181000000000000000037E
:10580000061C30C080000000000000000001010EF6
:10581000121B0C04060201008000000103060000B8
:105820000000000000000000000000000000000078
:105830000000000000000000000000000000000068
:105840000000000000000000000000000000000058
:105850000000000000000000000000000000000048
:105860000000000000000000000000000000000038
:10587000000000000000000000000000000402061C
:105880000800000001061C30600000000000000657
:105890000C000000000000000103060000000000F2
:1058A00000000000000000000000000000000000F8
:1058B00000060600000000000000000000000000DC
:1058C00000000000000000002201800040000000F5
:1058D00000000000000000000000000000000000C8
:1058E00000000000000000000000000000000000B8
:1058F00000000000000000000000000000000000A8
:105900000000008080808080808080000000010096
:105910000000000000A0C0C0000000000000000067
:105920000000000000000000000000000000000077
:105930000000000000000000000000000000000067
:105940000000000000000000000000000000000057
:105950000000000000000000000000000000000047
:105960000000000000000000000000000000000037
:10597000000000000000000000000080E0380C067D
:1059800002030101000103030301FFFFFFFEFCF816
:10599000F0C00000000080010000000000000000D6
:1059A00000000000000000000000000000000000F7
:1059B00000000000000000000000000000000000E7
:1059C00000000000000000000000000000000000D7
:1059D00000000000000000000000000000000000C7
:1059E00000000000000000000000000000000000B7
:1059F000000000000000000000007CFF000000002C
:105A00000000000000000000000000030F1F3F3FE7
:105A10007F7FFF00000001030C1A66C00000000633
:105A200006000000000080400000000000000000B0
:105A30000000000000000000000000000000000066
:105A40000000000000000000000000000000000056
:105A50000000000000000000000000000000000046
:105A60000000000000000000000000000000000036
:105A70000000000000000000000000030E3F6CD892
:105A800080800000000000000000000080C0603046
:105A9000189E13204080000000000000030E1860D4
:105AA00000000000000182860000000000000000ED
:105AB00000000000000000000000000000000000E6
:105AC00000000000000000000000000000000000D6
:105AD00000000000000000000000000000000000C6
:105AE00000000000000000000000000000000000B6
:105AF00000000000000000000000000000000000A6
:105B0000000101030302126EC6020301071873CCE1
:105B100030C183CC7860DD36FCF00000000000006E
:105B20000000000000000001808000000000000074
:105B30000000000000000000000000000000000065
:105B40000000000000000000000000000000000055
:105B50000000000000000000000000000000000045
:105B60000000000000000000000000000000000035
:105B70000000000000000000000000000000000025
:105B8000000000000000000001070C3060406020B1
:105B9000334C993264C4868380C77C20E08306003E
:105BA00000000000000000000000000000000000F5
:105BB00000000000000000000000000000000000E5
:105BC00000000000000000000000000000000000D5
:105BD00000000000000000000000000000000000C5
:105BE00000000000000000000000000000000000B5
:105BF0000000000000000000000202000000008021
:105C0000000000000000000000C080000000000054
:105C100000000001091E131F080C0402010000000F
:105C20000000000C00000000000000000000000068
:105C30000000000000000000000000000000000064
:105C40000000000000000000000000000000000054
:105C50000000000000000000000000000000000044
:105C60000000000000000000000000000000000034
:105C70000000000000000000000000000000000123
:105C80000000000000000020000001061C30E08041
:105C90000000000000041C100000000000000000D4
:105CA0000E080000000000000000000000000000DE
:105CB00000000000000000000000000000000000E4
:105CC00000000000000000000000000000002201B1
:105CD0008000400000000000000000000000000004
:105CE00000000000000000000000000000000000B4
:105CF00000000000000000000000000000000000A4
:105D00000000000000000000008080808080808013
:105D10000000000000000030300000000000000023
:105D20000000000000000000000000000000000073
:105D30000000000000000000000000000000000063
:105D40000000000000000000000000000000000053
:105D50000000000000000000000000000000000043
:105D60000000000000000000000000000000000033
:105D700000000000000000000000000000C0000063
:105D800000C060380C06020301010103030330FF69
:105D9000FFFFFEFEFCF8F0C0000000000000241C25
:105DA0003824000000000000000000000000000097
:105DB00000000000000000000000000000000000E3
:105DC00000000000000000000000000000000000D3
:105DD00000000000000000000000000000000000C3
:105DE00000000000000000000000000000000000B3
:105DF000000000000000000000000000FF83000021
:105E0000FEEF0000000000000000000000000003A2
:105E10000F1F3F7FFFFFFFFFFF000000000000108B
:105E200060C000600000000000C000000000000032
:105E30000000000000000000000000000000000062
:105E40000000000000000000000000000000000052
:105E50000000000000000000000000000000000042
:105E60000000000000000000000000000000000032
:105E70000000000000000010E0000000000300002F
:105E800000070E366CD8A0000000000000000000E3
:105E9000000080C06030181F3160408000000000AA
:105EA0000000030E1870C000000000000000007029
:105EB00000000000000000000000000000000000E2
:105EC00000000000000000000000000000000000D2
:105ED00000000000000000000000000000000000C2
:105EE00000000000000000000000000000000000B2
:105EF00000000000000000000000000000000000A2
:105F000000000000000000010103023AEE860203D7
:105F1000071961C61870C0068CD070F84766F80083
:105F20000000000000000003060800000000000060
:105F30003000000000000000000000000000000031
:105F40000000000000000000000000000000000051
:105F50000000000000000000000000000000000041
:105F60000000000000000000000000000000000031
:105F7000000000000000000000000300000000001E
:105F80000000000000000000000000000001061CEE
:105F900030404061331C3073E6CC8805030080CF6D
:105FA00078408000060C00000000000000000000A7
:105FB00000000000000000000000000000000000E1
:105FC00000000000000000000000000000000000D1
:105FD00000000000000000000000000000000000C1
:105FE00000000000000000000000000000000000B1
:105FF000000000000000000000000000000004009D
:106000000000004000000000000000000000000050
:10601000000000000000000000010B171F19080C11
:10602000060301000000000000001800000000004E
:106030000000000000000000000000000000000060
:106040000000000000000000000000000000000050
:106050000000000000000000000000000000000040
:106060000000000000000000000000000000000030
:106070000000000000000000000000000000000020
:106080000000000000000000000000000000000010
:1060900000061C30E080000000000000003000001E
:1060A0000000000000000C080000000000000000DC
:1060B00000000000000000000000000000000000E0
:1060C00000000000000000000000000000000000D0
:1060D00000000000220180004000000000000000DD
:1060E00000000000000000000000000000000000B0
:1060F00000000000000000000000000000000000A0
:10610000000000000000000000000000000000800F
:10611000808080808080000000000000000030004F
:10612000000000000000000000000000000000006F
:10613000000000000000000000000000000000005F
:10614000000000000000000000000000000000004F
:10615000000000000000000000000000000000003F
:10616000000000000000000000000000000000002F
:10617000000000000000000000000000000000001F
:1061800000000000000000C060380C060207070392
:106190000303E1F8FEFFFFFFFEFEFCF8F0C0000085
:1061A00000000000C000000000000000000000002F
:1061B00000000000000000000000000000000000DF
:1061C00000000000000000000000000000000000CF
:1061D00000000000000000000000000000000000BF
:1061E00000000000000000000000000000000000AF
:1061F000000000000000000000000000000000009F
:10620000000000000000FEEF0000000000000000A1
:1062100000000F3F7FFFFFFFFFFFFFFFFFFFFF00BB
:106220000000000000000000000000D060A000009E
:10623000000000000000000000000000000000005E
:10624000000000000000000000000000000000004E
:10625000000000000000000000000000000000003E
:10626000000000000000000000000000000000002E
:10627000000000000000000000000000000000001E
:10628000000000071C60C0070C3060C08080C08028
:10629000800000000000010183C363331F0F193029
:1062A00060C080000000000000000000000000004E
:1062B00000000000000000000000000000000000DE
:1062C00000000000000000000000000000000000CE
:1062D00000000000000000000000000000000000BE
:1062E00000000000000000000000000000000000AE
:1062F000000000000000000000000000000000009E
:10630000000080C0800001030E1860C0000101037E
:1063100003021A6686BEC301011CE000000060F0A3
:10632000989061079EFC80000000000000030619A1
:1063300073C08000000202000000000000000000A6
:10634000000000000000000000000000000000004D
:10635000000000000000000000000000000000003D
:10636000000000000000000000000000000000002D
:10637000000000000000000000000000000000001D
:1063800000000304060300000000000003061810CC
:10639000000000000103071C386423377C901808B4
:1063A0000D040008F8E0633CC0000000008080009D
:1063B00000000306181000000000000000000000AC
:1063C00000000000000000000000000000000000CD
:1063D00000000000000000000000000000000000BD
:1063E00000000000000000000000000000000000AD
:1063F000000000000000000000000000000000009D
:10640000000000000C00000C000000000000000074
:106410000000000000000000000000000000030277
:10642000041E3211090C07010100000000000102E6
:10643000000000000000000000000000000000005C
:10644000000000000000000000000000000000004C
:10645000000000000000000000000000000000003C
:10646000000000000000000000000000000000002C
:10647000000000000000000000000000000000001C
:10648000000000000000000000000000000000000C
