:020000040800F2
:10000000B82B0020C9010008BD12000861110008CA
:10001000B912000885020008111E00080000000047
:10002000000000000000000000000000051E0008A5
:1000300095020008000000001D1D0008091E0008B0
:10004000E3010008E3010008E3010008E301000800
:10005000E3010008E3010008E3010008E3010008F0
:10006000E3010008E3010008E3010008E3010008E0
:10007000E3010008E3010008E30100088902000829
:10008000E3010008E3010008E3010008E3010008C0
:10009000E3010008E3010008E3010008E3010008B0
:1000A000E3010008E3010008E3010008E3010008A0
:1000B000E3010008E3010008E3010008E301000890
:1000C000E3010008E3010008E3010008E301000880
:1000D000E3010008E3010008E3010008E301000870
:1000E000E3010008E3010008E301000800F002F862
:1000F00000F05AF80AA090E8000C82448344AAF168
:100100000107DA4501D100F04FF8AFF2090EBAE865
:100110000F0013F0010F18BFFB1A43F0010318473B
:100120009C1F0000BC1F00000A444FF0000C10F898
:10013000013B13F0070408BF10F8014B1D1108BF65
:1001400010F8015B641E05D010F8016B641E01F805
:10015000016BF9D113F0080F1EBF10F8014BAD1C55
:100160000C1B09D16D1E58BF01F801CBFAD505E073
:1001700014F8016B01F8016B6D1EF9D59142D6D3CD
:10018000704700000023002400250026103A28BFF5
:1001900078C1FBD8520728BF30C148BF0B607047F9
:1001A0001FB51FBD10B510BD00F031F81146FFF7A7
:1001B000F7FF01F035FF00F04FF803B4FFF7F2FF4F
:1001C00003BC00F057F80000094880470948004781
:1001D000FEE7FEE7FEE7FEE7FEE7FEE7FEE7FEE7F7
:1001E000FEE7FEE704480549054A064B7047000054
:1001F0000D1E0008ED000008B8250020B82B0020D7
:10020000B8270020B8270020704770477047754610
:1002100000F02CF8AE4605006946534620F0070072
:10022000854618B020B5FFF7DDFFBDE820404FF050
:1002300000064FF000074FF000084FF0000BAC46EF
:10024000ACE8C009ACE8C009ACE8C009ACE8C0093A
:1002500021F007018D46704710B50446AFF30080CA
:100260002046BDE81040FFF7A8BF000000487047D7
:10027000B824002001491820ABBEFEE7260002008A
:1002800070470000FEE7000042F21850C2F2000082
:1002900000F008B870470000EFF3108072B600BF9E
:1002A000FEE7000010B5D0E90FCE0168DCF80030A1
:1002B0000A6823FA0EF35C072AD512F0040427D04B
:1002C0000A68920603D40A6822F004020A602F2208
:1002D000C4F20202914240F20402C4F2020259DD69
:1002E0003023C4F20203994270D04423C4F20203C3
:1002F000994271D05823C4F20203994278D14FF445
:1003000080231360C16A002940F097806EE000BF2F
:100310009C0727D512F0020424D00A68920606D45E
:100320000A6822F00A020A60012280F821202F22A6
:10033000C4F20202914240F20402C4F2020239DD28
:100340003023C4F2020399425ED04423C4F2020374
:1003500099425DD05823C4F2020399425ED14FF412
:10036000003363E01B0741D512F0080208BF10BD3F
:100370000A6822F00E020A60012101FA0EF2CCF89E
:1003800004208163016B4FF480720029028454D1F0
:100390002CE000BF0823C4F20203994222D01C23A0
:1003A000C4F20203994223D140231360C16A002999
:1003B00043D11BE00823C4F2020399422CD01C2332
:1003C000C4F20203994229D120232FE04FF4806325
:1003D0001360C16A89BB09E04FF480431360C16AAE
:1003E00059BB03E004231360C16A31BB10BD00BFD9
:1003F00002F168044FF08063A14208BF4FF480030C
:100400001360C16AC9B9F1E74FF400730EE000BF91
:100410004FF400530AE000BF022307E002F1680432
:100420004FF00073A14208BF4FF400131360816ABC
:100430000022002980F82020D8D0BDE810400847CD
:10044000002804BF012070472DE9F04101684FF6F4
:10045000F872CBF6FD724CF6CD430A44CCF6CC4391
:10046000A2FB03236FF0030707EA93030027C4F2FC
:10047000020700F1040E00F11008C0E90F739EE8B6
:10048000045098E870010B6843F6F077BB431A43B9
:1004900042EA0C0242EA0E0222432A43324342EA73
:1004A00008020A6000214FF4807281630284BDE873
:1004B000F041084670470000B0B5044600F024F94A
:1004C000054640F20000C2F200000078611C18BF2F
:1004D000044400BF00F018F9401BA042FAD3B0BD9D
:1004E0002DE9F04F82B00E68002E00F0038140F23B
:1004F0000C4C41F200424FF6FF7EC4F2010CC4F2F4
:100500000102042700240123C1F2100E4FF0000A5B
:100510004FF00009904208BF0327009745E000BF55
:10052000012704F00C030F229A402BEA020207FA7B
:1005300003F34FEA9A051A4346F82520D1F804B090
:1005400040F20045C4F201055FEACB322A6854BF8D
:1005500022EA080242EA08022A606A685FEA8B33EC
:1005600054BF22EA080242EA08026A605FEACB232B
:10057000AA6854BF22EA080242EA08025FEA8B2313
:10058000AA60DCF800204FF0010354BF22EA080201
:1005900042EA0802CCF800200E680AF1010A36FA95
:1005A0000AF204F1040400F0A58003FA0AF816EA3E
:1005B000080FF1D04E68764512DC122E56D8DFE8CF
:1005C00006F0350B45495555555555555555555515
:1005D0005555554D510000BFD1F80C9046E000BF75
:1005E0004FF6FF72C1F2210296420FDC0022C1F2E7
:1005F000110296421AD00022C1F21202964215D080
:100600000022C1F22102964210D02FE00022C1F256
:10061000220296420AD00022C1F23102964205D04F
:100620000022C1F23202964220D100BF8A684AB14C
:10063000012A14BFC0F81480C0F810804FF00809D8
:1006400014E000BF4FF0040910E000BFCA6802F1D7
:1006500008090BE04FF0000908E000BFCA6802F18A
:10066000040903E0CA6802F10C0900BF22460646ED
:10067000BAF1080F24BF203A043637680F25954099
:1006800027EA050509FA02F22A433260CA79D2063E
:100690007FF582AF41F21803C4F202031A6842F0F8
:1006A00001021A601A6802F001020192019A40F2F6
:1006B0000042C4F20102A2F57E762AF0030256F847
:1006C00002B040F60002C4F20102904210D040F69F
:1006D0000042C4F2010290423FF422AF41F2000214
:1006E000C4F20102009F904208BF022719E700BF31
:1006F000002716E702B0BDE8F08F0000002A08BF0F
:10070000090401617047000042F2B450C2F20000D7
:100710000068704740F2000042F2B451C2F200009B
:10072000C2F2000100780A681044086070470000B7
:1007300080B542F20000C4F20200016841F01001ED
:100740000160032000F08EF80F2000F005F800F0A3
:1007500027F8002080BD000070B540F20006C2F20C
:10076000000640F208013278C2F200014FF47A73B9
:100770000968B3FBF2F20446B1FBF2F1084600F05F
:10078000D9FC0F2C4FF0010508D838B94FF0FF30D5
:1007900021460022002500F039F87460284670BD1B
:1007A00082B041F21800C4F202000168022241F056
:1007B00001010160016801F00101019101994168A5
:1007C00041F080514160406800F0805000900098F6
:1007D0000420C4F20100016862F31A61016002B0F2
:1007E00070470000002848BF7047C1B200F01F00EA
:1007F000012202FA00F04EF20012CEF2000242EAAA
:10080000D10121F0030108607047000010B54EF6D9
:100810000C5CCEF2000CDCF80030C3F3022E8EF03C
:100820000704042C28BF0424BEF103034FF0FF3E4D
:100830000EFA04F438BF0023A14399400EFA03F3E3
:100840009A43114300F00F0200F160430901043A9A
:1008500003F564436244002848BF02F10C03197099
:1008600010BD00004EF60C51CEF200010A684FF6A2
:10087000FF031A4060F30A2242F0806040F0FD70EE
:10088000086070472DE9F04381B0002800F08580B2
:1008900042F20008C4F202080446D8F800000D46EF
:1008A00000F0070088420CD2D8F8000020F00700C2
:1008B0002843C8F80000D8F8000000F00700A8425C
:1008C0006BD1206841F204098107C4F2020917D5EF
:1008D000410705D5D9F8001041F4E061C9F80010CE
:1008E000010705D5D9F8001041F46051C9F800108E
:1008F000D9F80010A26821F0F0011143C9F80010E6
:10090000C00741D1D8F8000000F00700A8420CD978
:10091000D8F8000020F007002843C8F80000D8F8F5
:10092000000000F00700A84237D12068410707D532
:10093000D9F80010E26821F4E0611143C9F8001011
:10094000000708D5D9F80000216920F4605040EA7A
:10095000C100C9F80000D9F8002002F00C000828F6
:1009600041F20020C0F27A0050D142F2AC03C2F34F
:100970008341C0F60003595CD2033BD440F600101B
:10098000C0F23D00484341E0606802280AD00128D7
:100990002AD159F8041C890308D4012001B0BDE80C
:1009A000F08300BF59F8041C8901F6D5D9F800106E
:1009B00021F003010843C9F80000FFF7A5FE064631
:1009C00041F28837D9F80000616800F00C00B0EB04
:1009D000810F97D0FFF798FE801BB842F2D9032011
:1009E00001B0BDE8F08300BF59F8041C8907D4D5D5
:1009F000DCE700BFD9F8002042F29A03C2F340427C
:100A0000C0F600039A5C4843B0FBF2F0D9F800103E
:100A100042F29C02C1F30311C0F60002515C40F2A5
:100A2000080220FA01F140F20400C2F2000000685E
:100A3000C2F200021160FFF78FFE002001B0BDE896
:100A4000F08300002DE9F04182B0002868D0044610
:100A5000007841F20006C007C4F2020625D0706893
:100A600000F00C0004281BD0706800F00C0008286F
:100A700002D17068C00313D46068002800F0688158
:100A8000B0F5A02F00F07C81B0F5803F00F07C81B4
:100A9000306820F480303060306820F4802076E1C7
:100AA0003068800301D56068D0B32078800718D5FE
:100AB000706810F00C0F07D0706800F00C00082868
:100AC0006ED17068C0036BD43068800702D520698E
:100AD000012825D13068616920F0F80040EAC100A2
:100AE0003060207800071FD42078400732D4E569B1
:100AF00095B1706800F00C00082840F08F80012D3F
:100B00000ED07068216A00F480328A4208D1616A8E
:100B100000F47010884203D1002002B0BDE8F081DB
:100B2000012002B0BDE8F081A069002862D0002059
:100B3000C4F242200121C0F88014FFF7E5FD05460C
:100B4000706A800700F18C80FFF7DEFD401B0228F1
:100B5000F6D92AE1F06910F0805808D1F06940F028
:100B60008050F061F06900F080500090009847F2EA
:100B70000007C4F200073868C00529D4386840F47B
:100B800080703860FFF7C0FD054600BF3868C005BB
:100B90001ED4FFF7B9FD401B6428F7D905E100BF5B
:100BA0002069002840F20000C4F2422000F0828058
:100BB00001210160FFF7A8FD054600BF30688007EE
:100BC0003FF588AFFFF7A0FD401B0228F6D9ECE007
:100BD000E068002800F08080052800F09780012858
:100BE00000F09880306A20F001003062306A20F016
:100BF000040092E00020C4F242200021C0F88014DA
:100C0000FFF782FD054600BF706A80077FF56CAF75
:100C1000FFF77AFD401B0228F6D9C6E00027C4F290
:100C2000422700203866FFF76FFD022D05460BD1E5
:100C30003068800140F1BE80FFF766FD401B02284E
:100C40004FF00300F4D968E7306880017FF564AFA6
:100C5000FFF75AFD401B02284FF00300F4D95CE770
:100C600040F20800C2F20000006844F6D351C1F21D
:100C70006201A0FB0101480A019000BF00BF01987A
:100C8000411E002801913FF42FAF00BF0198411E83
:100C9000002801913FF428AF00BF0198411E0028B1
:100CA00001913FF421AF00BF0198411E002801913E
:100CB000E4D119E700210160FFF726FD054600BFDA
:100CC000306880077FF50DAFFFF71EFD401B02283F
:100CD0004FF00300F4D920E7306A20F001003062C1
:100CE000306A20F004003062FFF70EFD054641F245
:100CF000883700BF306A800720D5FFF705FD401B0D
:100D0000B8424FF00300F5D907E700BF306A40F062
:100D100004003062306A40F001003062FFF7F4FCFA
:100D2000054641F2883700BF306A800706D4FFF7D6
:100D3000EBFC401BB842F7D937E000BFB8F1000F19
:100D40007FF4D5AEF06920F08050F061CFE600BFAF
:100D5000306820F480303060306820F480203060CB
:100D6000FFF7D2FC054600BF306880037FF59DAEDB
:100D7000FFF7CAFC401B64284FF00300F4D9CCE60F
:100D8000306840F480203060306840F4803030605B
:100D9000FFF7BAFC054600BF306880033FF585AE1B
:100DA000FFF7B2FC401B6428F6D9032002B0BDE86F
:100DB000F08100BF206AB0F5803F05D17168A2685C
:100DC00021F40031114371607168626A21F4741179
:100DD00011430843706001203866FFF795FC044614
:100DE000306880013FF598AEFFF78EFC001B0228AB
:100DF0004FF00300F4D990E670B538B10446406A6C
:100E000030B10020206104F1140007E0012070BD22
:100E10006068B0F5827F03D004F11C0000210160FE
:100E20000026A66294F8510020B9204684F850604C
:100E300000F038F8022084F8510094E8071001F41B
:100E40008271036802F4044223F0400303602369C3
:100E500011440CF40062114403F00202636911446E
:100E600003F00102A369E569114403F4007211441F
:100E700005F03802256A114405F08002A56A114385
:100E800005F4005211430160042101EA134141605D
:100E9000C16921F40061C1610120666584F85100D7
:100EA000304670BD2DE9F04186B040F6004504465D
:100EB000C4F201050068A5F5544100278842049753
:100EC00002D006B0BDE8F08141F21C00C4F202007D
:100ED000016841F2180641F4804101600068C4F2E3
:100EE000020600F480400190019830680DF1080876
:100EF00040F0080030603068414600F00800019082
:100F000001984FF4204002900220039003200590A6
:100F10002846FFF7E5FA4FF48040CDE9020728465E
:100F200041460497FFF7DCFA42F21855A6F57C60BB
:100F3000C2F200051021802285E883002846C5E919
:100F40000327C5E90577EF61FFF77AFA002818BF94
:100F5000FFF7A2F9A5646C6206B0BDE8F08100005D
:100F60002DE9F04381B0044690F85000012803D1E8
:100F7000022001B0BDE8F0834FF001091D4616467E
:100F80000F4684F85090FFF7BFFB94F851100129E9
:100F900044D18046002F4FF0010018BF002E00F012
:100FA000C0800320002184F8510061652763A68674
:100FB000E686A163A187E187A0682164B0F5004FB0
:100FC0002068616407D1016821F040010160016877
:100FD00041F4804101600168490603D4016841F091
:100FE000400101606168731EE268B1FA81F1B3FAF1
:100FF00083F349095B09B2F5006F41EA03013BD174
:1010000031B137F8021BC1602763E08E0138E086FA
:10101000E08E00286AD0681C0DD11CE0022080E020
:10102000216B31F8022BC2602163E08E0138E0862B
:10103000E08E00285AD0206881688907F0D4FFF735
:1010400063FBA0EB0800A842F2D338E0FFF75CFB9B
:10105000E08E00284AD0206881688907F6D5216B88
:1010600031F8022BC2602163E08E0138E086E08E09
:101070000028F0D13AE000BF39B139780173206B14
:1010800001302063E08E0138E086E08E70B3681C8A
:101090000BD11BE0216B09780173206B01302063B9
:1010A000E08E0138E086E08E00B320688168890711
:1010B000F0D4FFF729FBA0EB0800A842F3D30320EC
:1010C0002FE000BFFFF720FBE08E78B12068816839
:1010D0008907F7D5216B09780173206B01302063F4
:1010E000E08E0138E086E08E0028EFD12046802196
:1010F0002A46434600F014FE28B1606D40F02000FF
:10110000606520206065A06838B9002000902068E4
:10111000C1680091806800900098606D002818BF39
:101120000120002184F8519084F8501001B0BDE8EE
:10113000F0830000411E0020B0EB116F1CBF0120A6
:1011400070474EF21002CEF2000251604EF623516B
:10115000CEF20001F0230B70072190601160704700
:10116000FEE7000080B582B041F21400C4F2020034
:101170000168002241F0010101600068002100F0D7
:101180000100019001980F20FFF740FB0F2002B0F3
:10119000BDE88040FFF726BB2DE9F04F85B041F256
:1011A0001800C4F20200016840F6000A41F0100184
:1011B00001600168C4F2010A01F010010191019976
:1011C00001680AF5006641F0200101600168002213
:1011D00001F020010191019901684FF4005741F09D
:1011E0000401016001684FF0000801F00401019161
:1011F0000199016841F00801016000684FF4005155
:1012000000F00800019001983046FFF777FA504649
:10121000C02100224FF0C009FFF770FA0AF580657F
:101220002846012100220124FFF768FACDE9017464
:1012300001AF4FF0020B30463946CDF80C80CDF8A7
:1012400010B0FFF74DF950463946CDE90194CDE98C
:10125000038BFFF745F928463946CDE90144CDE92E
:10126000038BFFF73DF905B0BDE8F08F80B542F282
:101270005C5043F60001C2F20000C4F200014FF4DA
:101280008272002380E80E0000F114014FF4007C0C
:101290004FF0100E81E808500A21C0E90333C0E97D
:1012A0000833C0E90A31FFF7A7FD002808BF80BD59
:1012B000BDE88040FEF7F0BFFEE70000FEE700005B
:1012C0002DE9F04F81B040F60004C4F2010442F26F
:1012D0005C564FF0000B04F58065C2F200060DF17C
:1012E000020A0DF103074FF0000800BF08F1B0003B
:1012F0008DF800002046802100224FF00009FFF702
:10130000FDF9284601210022FFF7F8F93046694629
:1013100001224FF47A73FFF723FE284601210122B0
:10132000FFF7ECF9204680210122FFF7E7F90220C0
:101330008DF80100204680210022FFF7DFF92846C2
:1013400001210022FFF7DAF930460DF101010122F7
:101350004FF47A73FFF704FE284601210122FFF7BC
:10136000CDF9204680210122FFF7C8F910208DF821
:101370000200204680210022FFF7C0F92846012103
:101380000022FFF7BBF93046514601224FF47A7331
:10139000FFF7E6FD284601210122FFF7AFF92046BD
:1013A00080210122FFF7AAF92046802101228DF831
:1013B00003B0FFF7A3F9284601210022FFF79EF9A9
:1013C0003046394601224FF47A73FFF7C9FD2846AB
:1013D00001210122FFF792F9204680210122FFF727
:1013E0008DF909F101004FFA80F9B9F1FF3FDBDC1B
:1013F000B8F1070F08F10108FFF478AF01B0BDE8BC
:10140000F08F00002DE9F04F85B0994263D29946E4
:101410008A468242039053D940F60007DDF838B07F
:10142000C4F2010742F25C56111A4FF0000807F5AA
:101430008064C2F200060DF113050191CDF8089009
:101440005FFA8AF100F0F8FB019800EB0809A8F1B7
:10145000010800BF0BEB0800407880218DF81300D5
:1014600038460122FFF74AF9204601210022FFF702
:1014700045F93046294601224FF47A73FFF770FD93
:10148000204601210122FFF739F938468021012247
:10149000FFF734F908F10200C0B25FFA89F1814226
:1014A00008F10108D6D10AF1010ADDF808905FFAC7
:1014B0008AF04845039808F10108C1D30BE000BF4A
:1014C00003985FFA8AF100F0B7FB0AF1010A5FFAAC
:1014D0008AF04845F4D305B0BDE8F08F2DE9F04F10
:1014E00081B040F60004C4F20104204640210122EC
:1014F0004FF04009FFF702F96420FEF7DDFF2046B8
:10150000402100224FF0000BFFF7F8F8C820C82751
:10151000FEF7D2FF204640210122FFF7EFF8AE2070
:101520008DF803002046802100224FF0800AFFF74B
:10153000E5F804F58065284601210022FFF7DEF872
:1015400042F25C56C2F200060DF103013046012260
:101550004FF47A73FFF704FD284601210122FFF7BB
:10156000CDF8204680210122FFF7C8F84FF002088D
:101570002046802100228DF80380FFF7BFF828461F
:1015800001210022FFF7BAF80DF1030130460122D4
:101590004FF47A73FFF7E4FC284601210122FFF79C
:1015A000ADF8204680210122FFF7A8F810208DF821
:1015B0000300204680210022FFF7A0F828460121E1
:1015C0000022FFF79BF80DF10301304601224FF492
:1015D0007A73FFF7C5FC284601210122FFF78EF838
:1015E000204680210122FFF789F820468021002231
:1015F0008DF80390FFF782F8284601210022FFF7BB
:101600007DF80DF10301304601224FF47A73FFF7A4
:10161000A7FC284601210122FFF770F8204680210F
:101620000122FFF76BF881208DF80300204680210E
:101630000022FFF763F8284601210022FFF75EF839
:101640000DF10301304601224FF47A73FFF788FC55
:10165000284601210122FFF751F82046802101226E
:10166000FFF74CF8CF208DF80300204680210022A0
:10167000FFF744F8284601210022FFF73FF80DF15B
:101680000301304601224FF47A73FFF769FC2846C4
:1016900001210122FFF732F8204680210122FFF7C5
:1016A0002DF8A1208DF80300204680210022FFF7AD
:1016B00025F8284601210022FFF720F80DF103014B
:1016C000304601224FF47A73FFF74AFC2846012185
:1016D0000122FFF713F8204680210122FFF70EF8C0
:1016E0002046802100228DF80370FFF707F8284676
:1016F00001210022FFF702F80DF10301304601221B
:101700004FF47A73FFF72CFC284601210122FEF7E3
:10171000F5FF204680210122FEF7F0FFA627204694
:10172000802100228DF80370FEF7E8FF2846012192
:101730000022FEF7E3FF0DF10301304601224FF4D2
:101740007A73FFF70DFC284601210122FEF7D6FF30
:10175000204680210122FEF7D1FFA8208DF803004A
:10176000204680210022FEF7C9FF284601210022E1
:10177000FEF7C4FF0DF10301304601224FF47A73E6
:10178000FFF7EEFB284601210122FEF7B7FF2046B6
:1017900080210122FEF7B2FF3F208DF80300204692
:1017A00080210022FEF7AAFF284601210022FEF731
:1017B000A5FF0DF10301304601224FF47A73FFF7C4
:1017C000CFFB284601210122FEF798FF2046802109
:1017D0000122FEF793FFD3208DF8030020468021DD
:1017E0000022FEF78BFF284601210022FEF786FF2C
:1017F0000DF10301304601224FF47A73FFF7B0FB7D
:10180000284601210122FEF779FF2046802101228E
:10181000FEF774FF2046802100228DF803B0FEF70A
:101820006DFF284601210022FEF768FF0DF103013C
:10183000304601224FF47A73FFF792FB28460121CC
:101840000122FEF75BFF204680210122FEF756FFB2
:10185000D5208DF80300204680210022FEF74EFFA0
:10186000284601210022FEF749FF0DF10301304611
:1018700001224FF47A73FFF773FB284601210122FE
:10188000FEF73CFF204680210122FEF737FF20466D
:10189000802100228DF803A0FEF730FF28460121A9
:1018A0000022FEF72BFF0DF10301304601224FF419
:1018B0007A73FFF755FB284601210122FEF71EFF30
:1018C000204680210122FEF719FFD9208DF8030060
:1018D000204680210022FEF711FF28460121002228
:1018E000FEF70CFF0DF10301304601224FF47A732D
:1018F000FFF736FB284601210122FEF7FFFE2046B6
:1019000080210122FEF7FAFEF1208DF80300204627
:1019100080210022FEF7F2FE284601210022FEF778
:10192000EDFE0DF10301304601224FF47A73FFF70B
:1019300017FB284601210122FEF7E0FE2046802108
:101940000122FEF7DBFEDA208DF80300204680211D
:101950000022FEF7D3FE284601210022FEF7CEFE2C
:101960000DF10301304601224FF47A73FFF7F8FAC4
:10197000284601210122FEF7C1FE204680210122D6
:10198000FEF7BCFE12208DF80300204680210022C5
:10199000FEF7B4FE284601210022FEF7AFFE0DF14E
:1019A0000301304601224FF47A73FFF7D9FA284633
:1019B00001210122FEF7A2FE204680210122FEF72E
:1019C0009DFEDB208DF80300204680210022FEF7DB
:1019D00095FE284601210022FEF790FE0DF103013D
:1019E000304601224FF47A73FFF7BAFA28460121F4
:1019F0000122FEF783FE204680210122FEF77EFEB3
:101A00002046802100228DF80390FEF777FE2846BD
:101A100001210022FEF772FE0DF103013046012282
:101A20004FF47A73FFF79CFA284601210122FEF752
:101A300065FE204680210122FEF760FE20208DF801
:101A40000300204680210022FEF758FE284601218F
:101A50000022FEF753FE0DF10301304601224FF440
:101A60007A73FFF77DFA284601210122FEF746FE30
:101A7000204680210122FEF741FE204680210022DF
:101A80008DF80380FEF73AFE284601210022FEF77A
:101A900035FE0DF10301304601224FF47A73FFF752
:101AA0005FFA284601210122FEF728FE2046802108
:101AB0000122FEF723FE8D208DF8030020468021B1
:101AC0000022FEF71BFE284601210022FEF716FE2B
:101AD0000DF10301304601224FF47A73FFF740FA0B
:101AE000284601210122FEF709FE2046802101221D
:101AF000FEF704FE14208DF803002046802100220A
:101B0000FEF7FCFD284601210022FEF7F7FD0DF14E
:101B10000301304601224FF47A73FFF721FA284679
:101B200001210122FEF7EAFD204680210122FEF775
:101B3000E5FDA4208DF80300204680210022FEF759
:101B4000DDFD284601210022FEF7D8FD0DF103013D
:101B5000304601224FF47A73FFF702FA284601213A
:101B60000122FEF7CBFD204680210122FEF7C6FDB3
:101B70002046802100228DF80370FEF7BFFD284625
:101B800001210022FEF7BAFD0DF1030130460122CA
:101B90004FF47A73FFF7E4F9284601210122FEF79A
:101BA000ADFD204680210122FEF7A8FDAF2720468B
:101BB000802100228DF80370FEF7A0FD2846012148
:101BC0000022FEF79BFD0DF10301304601224FF488
:101BD0007A73FFF7C5F9284601210122FEF78EFD31
:101BE000204680210122FEF789FD20468021002227
:101BF0008DF80370FEF782FD284601210022FEF7D2
:101C00007DFD0DF10301304601224FF47A73FFF799
:101C1000A7F9284601210122FEF770FD2046802108
:101C20000122FEF76BFDFFF74BFB0020002100F0C7
:101C300003F801B0BDE8F08FF0B581B040F60004C4
:101C40000746A1F15000C4F201048DF801002046BE
:101C500080210022FEF752FD04F58065284601210F
:101C60000022FEF74BFD42F25C56C2F200060DF177
:101C70000101304601224FF47A73FFF771F92846CB
:101C800001210122FEF73AFD204680210122FEF7C4
:101C900035FD0237102040EA17108DF8020020466B
:101CA00080210022FEF72AFD284601210022FEF7AE
:101CB00025FD0DF10201304601224FF47A73FFF742
:101CC0004FF9284601210122FEF718FD2046802108
:101CD0000122FEF713FD07F00F008DF803002046E8
:101CE00080210022FEF70AFD284601210022FEF78E
:101CF00005FD0DF10301304601224FF47A73FFF721
:101D00002FF9284601210122FEF7F8FC2046802108
:101D10000122FEF7F3FC01B0F0BD000070470000A7
:101D20002DE9F04182B01E4690460D460446FEF76E
:101D3000EBFC301A00EB0807FEF7E6FC40F2080166
:101D4000C2F200010968C1F3CB31794301912168E6
:101D50008A682A40AA4227D1064618F101001FD0FE
:101D6000FEF7D2FC801BB84222D2019801990028CC
:101D7000A1F1010101912168896808BF074601EAC4
:101D80000500A842ECD00FE088682840A8420BD19B
:101D900088682840A84207D188682840A84203D113
:101DA00088682840A842EFD0002002B0BDE8F0814A
:101DB000D4E900014268B1F5827F22F0E00242607E
:101DC0000AD1A168B1F5004F02D0B1F5806F03D1FF
:101DD000016821F040010160A16AB1F5005F07D1FF
:101DE000016821F400510160016841F40051016073
:101DF000012084F85100002084F85000032002B034
:101E0000BDE8F08170470000FEF784BC7047000019
:101E1000FEE7000080B582B0FFF752FA40F20C0CEA
:101E2000C2F2000C2020002165220823CDF800C05A
:101E3000FFF7E8FA5320FEF73FFB40F2342CC2F2E2
:101E4000000C2020002165220823CDF800C0FFF7F8
:101E5000D9FA5320FEF730FB41F2743CC2F2000C79
:101E60002020002165220823CDF800C0FFF7CAFA20
:101E70005320FEF721FB41F29C5CC2F2000C2020B3
:101E8000002165220823CDF800C0FFF7BBFA5320DC
:101E9000FEF712FB41F2C47CC2F2000C20200021AC
:101EA00065220823CDF800C0FFF7ACFA5320FEF7F7
:101EB00003FB41F6EC1CC2F2000C2020002165223D
:101EC0000823CDF800C0FFF79DFA5320FEF7F4FA7F
:101ED00041F6144CC2F2000C202000216522082398
:101EE000CDF800C0FFF78EFA5320FEF7E5FA41F671
:101EF0003C6CC2F2000C2020002165220823CDF8A2
:101F000000C0FFF77FFA5320FEF7D6FA42F2640CC6
:101F1000C2F2000C2020002165220823CDF800C069
:101F2000FFF770FA5320FEF7C7FA42F28C2CC2F288
:101F3000000C2020002165220823CDF800C0FFF707
:101F400061FA5320FEF7B8FA40F25C4CC2F2000C82
:101F50002020002165220823CDF800C0FFF752FAA7
:101F60005320FEF7A9FA40F2846CC2F2000C202044
:101F7000002165220823CDF800C0FFF743FA532063
:101F8000FEF79AFA40F6AC0CC2F2000C20200021B9
:101F900065220823CDF800C0FFF734FA5320FEF77E
:101FA0008BFA40F6D42CC2F2000C202000216522CE
:101FB0000823CDF800C0FFF725FA5320FEF77CFA7E
:101FC00040F6FC4CC2F2000C2020002165220823C0
:101FD000CDF800C0FFF716FA5320FEF76DFA40F671
:101FE000247CC2F2000C2020002165220823CDF8B9
:101FF00000C0FFF707FA5320FEF75EFA41F24C1CCF
:10200000C2F2000C2020002165220823CDF800C078
:10201000FFF7F8F9532002B0BDE88040FEF74CBA54
:1020200090B0FEF785FB00240120CDE90B44CDE9FB
:10203000094406900A904FF4E0104FF480310225D5
:102040000F9006A8CDE90714CDE90D51FEF7FAFC73
:1020500020B1EFF3108072B6FEE700BF0F20CDE98C
:1020600001054FF48060CDE9040401A80221039426
:10207000FEF708FC20B1EFF3108072B6FEE700BF58
:10208000FFF78AF8FFF76EF8FFF7F0F8FFF726FA88
:10209000FFF716F9FFF7BEFEFCE7010200000000A3
:1020A00000000000010203040607080902030405FA
:1020B000060708090A0B0C0D0E0F1010E02000088F
:1020C00000000020B824000028010008F8280008BB
:1020D000B824002000070000840100080000000070
:1020E00032014210036424F4063F8080C0808018CF
:1020F0000C0F87C09393C3E3E0E0C0C05009324E99
:102100006FC0FCFEE807FF0111080A287F1F1F3E71
:102110003C7C7C7030417808E0F8FC7F1F0FFD4468
:10212000032FFFEE77081C1F8F07032E0183870FF5
:102130003F46022BE08008040E1E1C1C0E0F15F4F7
:10214000FEFF3F3C8081CFD20139000A7F87FFFF2D
:102150009E3F7F7F736100083CC0E060A0E0E0C06C
:102160001280100BC3E0F0E4E4F0FDF0F0F00D306D
:10217000C0C0C080426FE0FFFF7C07FF0111000A72
:10218000273F0F0F1F1F3E3C7C7C680D20F83C3E14
:102190001F0F0703233F387F45022DF76F18181CC8
:1021A0001C1F0FD0213CC3010F460238E036011E30
:1021B000FEFF371AC14503397F3A000B8603F7FD4E
:1021C000F0183F7F7F7160000936387C1E4E7E7CA0
:1021D0007C3808152EC0F8FCFC78CEFFFFFCF8F820
:1021E000FCFEFC88F8F0F0C080412808FFFFEFFFFC
:1021F000FDFEFF0114BF07070010220103030707BC
:102200000F8F1E0E0C0C1838F0203EF8FF1F9F9FFA
:102210003F90083F7FFF7F1F070319481C0E0F0EDA
:10222000540125370116DFFFFF8F12030438C04029
:10223000C037021FFFFFFC801220033AFF1F16E089
:10224000FD7F3F1E2808C0FCFCFBE080804F017F23
:10225000000A33081C3E0E2E3E3E7C181814808067
:10226000C0F0FCFCFC78EEFFFFFEF8FDFCFEFE1863
:10227000F8013DF0E0E0C001091CE0281280C0E058
:10228000F0783C1E0F0767F7FFFFE7F9FEFF014FED
:10229000BF4F0705030101000B190373F1F0F8F0BC
:1022A000F06135015C060F031D3E909C7F7F7F42ED
:1022B00005377F1F1F0C4203138F010E1A030F3EB9
:1022C000FFB4BC011E4DFCFEFFF3500537FFFFFCC1
:1022D000FE6580F7FFFF0E387BFFFFF0C08E0148E0
:1022E000080931181C3E063E3E7E38CB481C80C093
:1022F000E0F0FCFCFC78FEFFFFFFFCFCFEFE7E80B5
:10230000F8F8F8F0E0C0C0C08001091A3D180CE0F0
:10231000F078381C0E0F070787E33F1BC7FC051931
:102320000128099F261C0703010103010009196701
:10233000E3E1E1D1C1E56119279118080F3F3F3F63
:102340007FFF7F03BCBF1F9E252901092AD52A8351
:10235000590008351F3F7EFEE2C0C0751CFEFFFF1E
:102360001AF0D302351F65C0FFFF7F0E35787DFF61
:10237000FFE08B0149000A35387C7E1E5E7E7C3C86
:10238000101680F0F8FCF8080E2BFEFEFCF8F8F8AA
:10239000FCFEFC0CF0F0E0D0180C80E0F8FC3F1FD5
:1023A0007FFFFFFF80042901000E257F171C070F08
:1023B0001F3F7FF8E0C0C080453E3F0F0328080F55
:1023C00007071F1F7F7F4D2CFFFBE03C3FC0808035
:1023D0008181831D0929933480C060100A03071F7F
:1023E0003FFFFFFEF8E00E2C01030307034575E0F5
:1023F000FEFF1F0734F8FFFF3F070154F9FBFB1BEB
:10240000203CD52D7B7060609701764BE0F0010990
:1024100038821380C0100BF1F1E3C3D2E3F3F9F07B
:10242000F00B31C080424809F8FEFFFFFEC11FFFDC
:10243000011BFBCC050230F8193448083F033F1F4D
:102440001F3F3F46072FFEFD9F7FFFF04407070316
:102450002240000D37810101071F3FFF3F1F0E0F74
:102460000F1C40FF01DC000A34C0F0FFFE7C3C3C46
:102470001C0814F8F2F81C081E1FD605BF3B3030AC
:102480002000093C387C7C5E7E7E78B01809E0C074
:102490003CFCF8F8FCFF010536E3FCFCF82FFFFFDD
:1024A000FEE3CFBF4439010234301983241F0101F8
:1024B0002D0101030F450431FC80807401110F2FA1
:1024C000B80EC00383F3480932D3170707C7F7F0E4
:1024D000F0280A0E0F1F1F3F3B3331219801BC002B
:1024E0000B381E3F1F9F1FBEDC8080802809E0F84C
:1024F000E01EFFFEFEFF01063183FEFFFCF0380DFB
:102500003078FE3F07032339E75F7F7F47190102D9
:102510002DFC40081838383C1C1E0F2B0108052BD9
:10252000079F45033B7F60000D34B81E844080C385
:10253000FFFFFEFCFC7825C0E0F0F000097A070FF1
:102540001F3F3F3B312000093970380C043C1C7898
:10255000301480E0F01BF8FC01080A2FFEFFFEFC9F
:102560001CE0F08080401678783F3F5F6AFF0100F2
:102570000A26C0BF07071F3F7F7E78571C181C1C08
:102580000F077C180F0F460A3873D22808804007BF
:1025900001030F7F46092DCD91460F3FFFFCC00E72
:1025A00036E3FFFF7F1F89000D7EC0E1FF7F7E7055
:1025B000181F3F3F786000093A381C0E061E1E1C8B
:1025C0003813E0F8100AF8FCFEFEFEFFFFFEFC06E2
:1025D00028F0C0C0E0C01AC001580DE0F03C1C1C3F
:1025E0000E0F0F0F87C3FF0111000833FF3F0F1FAE
:1025F0003F7F7C2F010B8E9FBF7F45043AFEFFC7B4
:102600003E03BF1F071F8C0236FD471878F8F8E617
:10261000801A0F45023738280880C1E7FFFFF840CD
:1026200046057B3F3F382014F018080E320C18780E
:10263000F060C61B90E001180EF0F0F870FCFCFE94
:10264000FEFFFFFE34F801000922F0F0F030307098
:10265000F0E0280B02040E0E0E0703010103011126
:102660003C037FFF011BF18F0952FD0233011E82E3
:102670000F3F1FBF4719910237071F80E0733F1FAD
:102680000F440535FBFBFF7F2F187CFCFFF3E0C2F6
:102690001B1F7FCE0A35F0881CC0C1E7C9393E0533
:1026A0007A0F3F3F0E080A3520F03808085C3CF8E6
:1026B00060C9180980C0E0E0F080F0F801080B273D
:1026C000FCFEFC38C8E0F0E0E0C03E180BC3C1E1FE
:1026D000C3E3FF07070703011E040B0F7FFF013B46
:1026E000F0BF070E22FF1E38F0F04CB601010301C7
:1026F000011CDCBCBF3E2F7F3F3E3F7F7F180F2871
:102700000101073F3C30D2300C80E0F8FC3F1F0F46
:10271000070301030333901C600901070F3FFFFF0C
:10272000FCE0063406FFFFFE801E40E0E0E3F348D5
:1027300039491B01030A027C404B80C001093B441C
:10274000000A35C7C3838082C3E7C7834809C0F83E
:10275000FCFE7F3E83FF010F2A3FC7F8FEFCF89086
:10276000300940E0381E0F0F07034BE0F3452C788B
:102770007F7F07012B180B606060F078307CE0F8F9
:10278000FC8D1F3F1F070703809A1A049602300131
:1027900048091F1F3F7FFFF9F0E0C4193F0B2F01CD
:1027A00001444994000CC76167737B7F7E7E7CF097
:1027B000F4FC000938383C3C0C2C3C7C3C14E0F028
:1027C000F8000D34FEFEFEFCFCFCFEFFFC38C0E011
:1027D0001EF0FFFFFFFC0429012A8F0D0232FD5A73
:1027E000F440000C327F1F07010303E7FFFF3F01A6
:1027F00010090101098BDFFFC7812A800D0B310F02
:102800001F4331000DCC06076767777F3F1E1FD03F
:10281000F0F000093838387C0C7C7CF870100EF031
:10282000F8F086FEFEFCF8F8F8FCFCF80234C06C08
:102830006070FF010733BFDFE7F9FFFF1210100CD4
:10284000FCFFFF3F1F0703038333070D30041FFF07
:10285000FF8B1ACE43001131FFFF07C010B3F126E2
:10286000FCFCFCE0E0E3F707180D010767777F7FCA
:102870003F1E0FF1F0F00E0384010100083980C003
:10288000C0E0C0C08013C0C0080B34E0F0F3C380C8
:10289000C6C7E7C703811EE0FFFFFFEF0419010071
:1028A00008307F3F6FF8FEFCC05C01E3FB40457FD2
:1028B0007F7B05080928838F8F1F3E3830E04B60EF
:1028C0000E4090FF9FBF7F4F07030180C00458094F
:1028D000030F1F1E1E1C0E0F0F01232E0E3F7FFF26
:1028E000FF75043B13F125000C224060717F3F1FF0
:0828F0001F90F0F080000000D1
:04000005080000ED02
:00000001FF
